{"contracts/AUSD.sol":{"AUSD":{"abi":[{"inputs":[],"stateMutability":"nonpayable","type":"constructor"},{"anonymous":false,"inputs":[{"indexed":true,"internalType":"address","name":"owner","type":"address"},{"indexed":true,"internalType":"address","name":"spender","type":"address"},{"indexed":false,"internalType":"uint256","name":"value","type":"uint256"}],"name":"Approval","type":"event"},{"anonymous":false,"inputs":[{"indexed":true,"internalType":"address","name":"authorizer","type":"address"},{"indexed":true,"internalType":"bytes32","name":"nonce","type":"bytes32"}],"name":"AuthorizationUsed","type":"event"},{"anonymous":false,"inputs":[{"indexed":true,"internalType":"address","name":"to","type":"address"},{"indexed":false,"internalType":"uint256","name":"amount","type":"uint256"}],"name":"Mint","type":"event"},{"anonymous":false,"inputs":[{"indexed":true,"internalType":"address","name":"from","type":"address"},{"indexed":true,"internalType":"address","name":"to","type":"address"},{"indexed":false,"internalType":"uint256","name":"value","type":"uint256"}],"name":"Transfer","type":"event"},{"inputs":[],"name":"DOMAIN_SEPARATOR","outputs":[{"internalType":"bytes32","name":"","type":"bytes32"}],"stateMutability":"view","type":"function"},{"inputs":[],"name":"RECEIVE_WITH_AUTHORIZATION_TYPEHASH","outputs":[{"internalType":"bytes32","name":"","type":"bytes32"}],"stateMutability":"view","type":"function"},{"inputs":[],"name":"TRANSFER_WITH_AUTHORIZATION_TYPEHASH","outputs":[{"internalType":"bytes32","name":"","type":"bytes32"}],"stateMutability":"view","type":"function"},{"inputs":[{"internalType":"address","name":"","type":"address"},{"internalType":"address","name":"","type":"address"}],"name":"allowance","outputs":[{"internalType":"uint256","name":"","type":"uint256"}],"stateMutability":"view","type":"function"},{"inputs":[{"internalType":"address","name":"spender","type":"address"},{"internalType":"uint256","name":"amount","type":"uint256"}],"name":"approve","outputs":[{"internalType":"bool","name":"","type":"bool"}],"stateMutability":"nonpayable","type":"function"},{"inputs":[{"internalType":"address","name":"","type":"address"},{"internalType":"bytes32","name":"","type":"bytes32"}],"name":"authorizationState","outputs":[{"internalType":"bool","name":"","type":"bool"}],"stateMutability":"view","type":"function"},{"inputs":[{"internalType":"address","name":"","type":"address"}],"name":"balanceOf","outputs":[{"internalType":"uint256","name":"","type":"uint256"}],"stateMutability":"view","type":"function"},{"inputs":[],"name":"decimals","outputs":[{"internalType":"uint8","name":"","type":"uint8"}],"stateMutability":"view","type":"function"},{"inputs":[{"internalType":"address","name":"to","type":"address"},{"internalType":"uint256","name":"amount","type":"uint256"}],"name":"mint","outputs":[],"stateMutability":"nonpayable","type":"function"},{"inputs":[],"name":"name","outputs":[{"internalType":"string","name":"","type":"string"}],"stateMutability":"view","type":"function"},{"inputs":[],"name":"owner","outputs":[{"internalType":"address","name":"","type":"address"}],"stateMutability":"view","type":"function"},{"inputs":[{"internalType":"address","name":"from","type":"address"},{"internalType":"address","name":"to","type":"address"},{"internalType":"uint256","name":"value","type":"uint256"},{"internalType":"uint256","name":"validAfter","type":"uint256"},{"internalType":"uint256","name":"validBefore","type":"uint256"},{"internalType":"bytes32","name":"nonce","type":"bytes32"},{"internalType":"uint8","name":"v","type":"uint8"},{"internalType":"bytes32","name":"r","type":"bytes32"},{"internalType":"bytes32","name":"s","type":"bytes32"}],"name":"receiveWithAuthorization","outputs":[],"stateMutability":"nonpayable","type":"function"},{"inputs":[],"name":"symbol","outputs":[{"internalType":"string","name":"","type":"string"}],"stateMutability":"view","type":"function"},{"inputs":[],"name":"totalSupply","outputs":[{"internalType":"uint256","name":"","type":"uint256"}],"stateMutability":"view","type":"function"},{"inputs":[{"internalType":"address","name":"to","type":"address"},{"internalType":"uint256","name":"amount","type":"uint256"}],"name":"transfer","outputs":[{"internalType":"bool","name":"","type":"bool"}],"stateMutability":"nonpayable","type":"function"},{"inputs":[{"internalType":"address","name":"from","type":"address"},{"internalType":"address","name":"to","type":"address"},{"internalType":"uint256","name":"amount","type":"uint256"}],"name":"transferFrom","outputs":[{"internalType":"bool","name":"","type":"bool"}],"stateMutability":"nonpayable","type":"function"},{"inputs":[{"internalType":"address","name":"from","type":"address"},{"internalType":"address","name":"to","type":"address"},{"internalType":"uint256","name":"value","type":"uint256"},{"internalType":"uint256","name":"validAfter","type":"uint256"},{"internalType":"uint256","name":"validBefore","type":"uint256"},{"internalType":"bytes32","name":"nonce","type":"bytes32"},{"internalType":"uint8","name":"v","type":"uint8"},{"internalType":"bytes32","name":"r","type":"bytes32"},{"internalType":"bytes32","name":"s","type":"bytes32"}],"name":"transferWithAuthorization","outputs":[],"stateMutability":"nonpayable","type":"function"}],"evm":{"bytecode":{"linkReferences":{},"object":"60806040523480156200001157600080fd5b5033600160006101000a81548173ffffffffffffffffffffffffffffffffffffffff021916908373ffffffffffffffffffffffffffffffffffffffff1602179055507f8b73c3c69bb8fe3d512ecc4cf759cc79239f7b179b0ffacaa9a75d522b39400f6040518060400160405280600a81526020017f4143434f52442055534400000000000000000000000000000000000000000000815250805190602001206040518060400160405280600181526020017f3100000000000000000000000000000000000000000000000000000000000000815250805190602001204630604051602001620001069594939291906200035a565b60405160208183030381529060405280519060200120600581905550620001393364e8d4a510006200013f60201b60201c565b620004c1565b600073ffffffffffffffffffffffffffffffffffffffff168273ffffffffffffffffffffffffffffffffffffffff1603620001b1576040517f08c379a0000000000000000000000000000000000000000000000000000000008152600401620001a89062000418565b60405180910390fd5b80600080828254620001c4919062000469565b9250508190555080600260008473ffffffffffffffffffffffffffffffffffffffff1673ffffffffffffffffffffffffffffffffffffffff16815260200190815260200160002060008282546200021c919062000469565b925050819055508173ffffffffffffffffffffffffffffffffffffffff16600073ffffffffffffffffffffffffffffffffffffffff167fddf252ad1be2c89b69c2b068fc378daa952ba7f163c4a11628f55a4df523b3ef83604051620002839190620004a4565b60405180910390a38173ffffffffffffffffffffffffffffffffffffffff167f0f6798a560793a54c3bcfe86a93cde1e73087d944c0ea20544137d412139688582604051620002d39190620004a4565b60405180910390a25050565b6000819050919050565b620002f481620002df565b82525050565b6000819050919050565b6200030f81620002fa565b82525050565b600073ffffffffffffffffffffffffffffffffffffffff82169050919050565b6000620003428262000315565b9050919050565b620003548162000335565b82525050565b600060a082019050620003716000830188620002e9565b620003806020830187620002e9565b6200038f6040830186620002e9565b6200039e606083018562000304565b620003ad608083018462000349565b9695505050505050565b600082825260208201905092915050565b7f4d696e7420746f207a65726f2061646472657373000000000000000000000000600082015250565b600062000400601483620003b7565b91506200040d82620003c8565b602082019050919050565b600060208201905081810360008301526200043381620003f1565b9050919050565b7f4e487b7100000000000000000000000000000000000000000000000000000000600052601160045260246000fd5b60006200047682620002fa565b91506200048383620002fa565b92508282019050808211156200049e576200049d6200043a565b5b92915050565b6000602082019050620004bb600083018462000304565b92915050565b611e2380620004d16000396000f3fe608060405234801561001057600080fd5b506004361061010b5760003560e01c80637f2eecc3116100a2578063a9059cbb11610071578063a9059cbb146102ac578063dd62ed3e146102dc578063e3ee160e1461030c578063e94a010214610328578063ef55bec6146103585761010b565b80637f2eecc3146102345780638da5cb5b1461025257806395d89b4114610270578063a0cc6a681461028e5761010b565b8063313ce567116100de578063313ce567146101ac5780633644e515146101ca57806340c10f19146101e857806370a08231146102045761010b565b806306fdde0314610110578063095ea7b31461012e57806318160ddd1461015e57806323b872dd1461017c575b600080fd5b610118610374565b604051610125919061133d565b60405180910390f35b610148600480360381019061014391906113f8565b6103ad565b6040516101559190611453565b60405180910390f35b61016661049f565b604051610173919061147d565b60405180910390f35b61019660048036038101906101919190611498565b6104a5565b6040516101a39190611453565b60405180910390f35b6101b461060f565b6040516101c19190611507565b60405180910390f35b6101d2610614565b6040516101df919061153b565b60405180910390f35b61020260048036038101906101fd91906113f8565b61061a565b005b61021e60048036038101906102199190611556565b6106b8565b60405161022b919061147d565b60405180910390f35b61023c6106d0565b604051610249919061153b565b60405180910390f35b61025a6106f4565b6040516102679190611592565b60405180910390f35b61027861071a565b604051610285919061133d565b60405180910390f35b610296610753565b6040516102a3919061153b565b60405180910390f35b6102c660048036038101906102c191906113f8565b610777565b6040516102d39190611453565b60405180910390f35b6102f660048036038101906102f191906115ad565b61078e565b604051610303919061147d565b60405180910390f35b61032660048036038101906103219190611645565b6107b3565b005b610342600480360381019061033d919061170f565b610adc565b60405161034f9190611453565b60405180910390f35b610372600480360381019061036d9190611645565b610b0b565b005b6040518060400160405280600a81526020017f4143434f5244205553440000000000000000000000000000000000000000000081525081565b600081600360003373ffffffffffffffffffffffffffffffffffffffff1673ffffffffffffffffffffffffffffffffffffffff16815260200190815260200160002060008573ffffffffffffffffffffffffffffffffffffffff1673ffffffffffffffffffffffffffffffffffffffff168152602001908152602001600020819055508273ffffffffffffffffffffffffffffffffffffffff163373ffffffffffffffffffffffffffffffffffffffff167f8c5be1e5ebec7d5bd14f71427d1e84f3dd0314c0f7b2291e5b200ac8c7c3b9258460405161048d919061147d565b60405180910390a36001905092915050565b60005481565b600081600360008673ffffffffffffffffffffffffffffffffffffffff1673ffffffffffffffffffffffffffffffffffffffff16815260200190815260200160002060003373ffffffffffffffffffffffffffffffffffffffff1673ffffffffffffffffffffffffffffffffffffffff168152602001908152602001600020541015610566576040517f08c379a000000000000000000000000000000000000000000000000000000000815260040161055d9061179b565b60405180910390fd5b81600360008673ffffffffffffffffffffffffffffffffffffffff1673ffffffffffffffffffffffffffffffffffffffff16815260200190815260200160002060003373ffffffffffffffffffffffffffffffffffffffff1673ffffffffffffffffffffffffffffffffffffffff16815260200190815260200160002060008282546105f291906117ea565b92505081905550610604848484610ea2565b600190509392505050565b600681565b60055481565b600160009054906101000a900473ffffffffffffffffffffffffffffffffffffffff1673ffffffffffffffffffffffffffffffffffffffff163373ffffffffffffffffffffffffffffffffffffffff16146106aa576040517f08c379a00000000000000000000000000000000000000000000000000000000081526004016106a19061186a565b60405180910390fd5b6106b48282611118565b5050565b60026020528060005260406000206000915090505481565b7fd099cc98ef71107a616c4f0f941f04c322d8e254fe26b3c6668db87aae413de881565b600160009054906101000a900473ffffffffffffffffffffffffffffffffffffffff1681565b6040518060400160405280600481526020017f415553440000000000000000000000000000000000000000000000000000000081525081565b7f7c7c6cdb67a18743f49ec6fa9b35f50d52ed05cbed4cc592e13b44501c1a226781565b6000610784338484610ea2565b6001905092915050565b6003602052816000526040600020602052806000526040600020600091509150505481565b8542116107f5576040517f08c379a00000000000000000000000000000000000000000000000000000000081526004016107ec906118d6565b60405180910390fd5b844210610837576040517f08c379a000000000000000000000000000000000000000000000000000000000815260040161082e90611942565b60405180910390fd5b600460008a73ffffffffffffffffffffffffffffffffffffffff1673ffffffffffffffffffffffffffffffffffffffff168152602001908152602001600020600085815260200190815260200160002060009054906101000a900460ff16156108d5576040517f08c379a00000000000000000000000000000000000000000000000000000000081526004016108cc906119ae565b60405180910390fd5b60006005547f7c7c6cdb67a18743f49ec6fa9b35f50d52ed05cbed4cc592e13b44501c1a22678b8b8b8b8b8b60405160200161091797969594939291906119ce565b6040516020818303038152906040528051906020012060405160200161093e929190611ab5565b60405160208183030381529060405280519060200120905060006001828686866040516000815260200160405260405161097b9493929190611aec565b6020604051602081039080840390855afa15801561099d573d6000803e3d6000fd5b5050506020604051035190508a73ffffffffffffffffffffffffffffffffffffffff168173ffffffffffffffffffffffffffffffffffffffff1614610a17576040517f08c379a0000000000000000000000000000000000000000000000000000000008152600401610a0e90611b7d565b60405180910390fd5b6001600460008d73ffffffffffffffffffffffffffffffffffffffff1673ffffffffffffffffffffffffffffffffffffffff168152602001908152602001600020600088815260200190815260200160002060006101000a81548160ff021916908315150217905550858b73ffffffffffffffffffffffffffffffffffffffff167f98de503528ee59b575ef0c0a2576a82497bfc029a5685b209e9ec333479b10a560405160405180910390a3610acf8b8b8b610ea2565b5050505050505050505050565b60046020528160005260406000206020528060005260406000206000915091509054906101000a900460ff1681565b3373ffffffffffffffffffffffffffffffffffffffff168873ffffffffffffffffffffffffffffffffffffffff1614610b79576040517f08c379a0000000000000000000000000000000000000000000000000000000008152600401610b7090611be9565b60405180910390fd5b854211610bbb576040517f08c379a0000000000000000000000000000000000000000000000000000000008152600401610bb2906118d6565b60405180910390fd5b844210610bfd576040517f08c379a0000000000000000000000000000000000000000000000000000000008152600401610bf490611942565b60405180910390fd5b600460008a73ffffffffffffffffffffffffffffffffffffffff1673ffffffffffffffffffffffffffffffffffffffff168152602001908152602001600020600085815260200190815260200160002060009054906101000a900460ff1615610c9b576040517f08c379a0000000000000000000000000000000000000000000000000000000008152600401610c92906119ae565b60405180910390fd5b60006005547fd099cc98ef71107a616c4f0f941f04c322d8e254fe26b3c6668db87aae413de88b8b8b8b8b8b604051602001610cdd97969594939291906119ce565b60405160208183030381529060405280519060200120604051602001610d04929190611ab5565b604051602081830303815290604052805190602001209050600060018286868660405160008152602001604052604051610d419493929190611aec565b6020604051602081039080840390855afa158015610d63573d6000803e3d6000fd5b5050506020604051035190508a73ffffffffffffffffffffffffffffffffffffffff168173ffffffffffffffffffffffffffffffffffffffff1614610ddd576040517f08c379a0000000000000000000000000000000000000000000000000000000008152600401610dd490611b7d565b60405180910390fd5b6001600460008d73ffffffffffffffffffffffffffffffffffffffff1673ffffffffffffffffffffffffffffffffffffffff168152602001908152602001600020600088815260200190815260200160002060006101000a81548160ff021916908315150217905550858b73ffffffffffffffffffffffffffffffffffffffff167f98de503528ee59b575ef0c0a2576a82497bfc029a5685b209e9ec333479b10a560405160405180910390a3610e958b8b8b610ea2565b5050505050505050505050565b600073ffffffffffffffffffffffffffffffffffffffff168373ffffffffffffffffffffffffffffffffffffffff1603610f11576040517f08c379a0000000000000000000000000000000000000000000000000000000008152600401610f0890611c55565b60405180910390fd5b600073ffffffffffffffffffffffffffffffffffffffff168273ffffffffffffffffffffffffffffffffffffffff1603610f80576040517f08c379a0000000000000000000000000000000000000000000000000000000008152600401610f7790611cc1565b60405180910390fd5b80600260008573ffffffffffffffffffffffffffffffffffffffff1673ffffffffffffffffffffffffffffffffffffffff168152602001908152602001600020541015611002576040517f08c379a0000000000000000000000000000000000000000000000000000000008152600401610ff990611d2d565b60405180910390fd5b80600260008573ffffffffffffffffffffffffffffffffffffffff1673ffffffffffffffffffffffffffffffffffffffff168152602001908152602001600020600082825461105191906117ea565b9250508190555080600260008473ffffffffffffffffffffffffffffffffffffffff1673ffffffffffffffffffffffffffffffffffffffff16815260200190815260200160002060008282546110a79190611d4d565b925050819055508173ffffffffffffffffffffffffffffffffffffffff168373ffffffffffffffffffffffffffffffffffffffff167fddf252ad1be2c89b69c2b068fc378daa952ba7f163c4a11628f55a4df523b3ef8360405161110b919061147d565b60405180910390a3505050565b600073ffffffffffffffffffffffffffffffffffffffff168273ffffffffffffffffffffffffffffffffffffffff1603611187576040517f08c379a000000000000000000000000000000000000000000000000000000000815260040161117e90611dcd565b60405180910390fd5b806000808282546111989190611d4d565b9250508190555080600260008473ffffffffffffffffffffffffffffffffffffffff1673ffffffffffffffffffffffffffffffffffffffff16815260200190815260200160002060008282546111ee9190611d4d565b925050819055508173ffffffffffffffffffffffffffffffffffffffff16600073ffffffffffffffffffffffffffffffffffffffff167fddf252ad1be2c89b69c2b068fc378daa952ba7f163c4a11628f55a4df523b3ef83604051611253919061147d565b60405180910390a38173ffffffffffffffffffffffffffffffffffffffff167f0f6798a560793a54c3bcfe86a93cde1e73087d944c0ea20544137d4121396885826040516112a1919061147d565b60405180910390a25050565b600081519050919050565b600082825260208201905092915050565b60005b838110156112e75780820151818401526020810190506112cc565b60008484015250505050565b6000601f19601f8301169050919050565b600061130f826112ad565b61131981856112b8565b93506113298185602086016112c9565b611332816112f3565b840191505092915050565b600060208201905081810360008301526113578184611304565b905092915050565b600080fd5b600073ffffffffffffffffffffffffffffffffffffffff82169050919050565b600061138f82611364565b9050919050565b61139f81611384565b81146113aa57600080fd5b50565b6000813590506113bc81611396565b92915050565b6000819050919050565b6113d5816113c2565b81146113e057600080fd5b50565b6000813590506113f2816113cc565b92915050565b6000806040838503121561140f5761140e61135f565b5b600061141d858286016113ad565b925050602061142e858286016113e3565b9150509250929050565b60008115159050919050565b61144d81611438565b82525050565b60006020820190506114686000830184611444565b92915050565b611477816113c2565b82525050565b6000602082019050611492600083018461146e565b92915050565b6000806000606084860312156114b1576114b061135f565b5b60006114bf868287016113ad565b93505060206114d0868287016113ad565b92505060406114e1868287016113e3565b9150509250925092565b600060ff82169050919050565b611501816114eb565b82525050565b600060208201905061151c60008301846114f8565b92915050565b6000819050919050565b61153581611522565b82525050565b6000602082019050611550600083018461152c565b92915050565b60006020828403121561156c5761156b61135f565b5b600061157a848285016113ad565b91505092915050565b61158c81611384565b82525050565b60006020820190506115a76000830184611583565b92915050565b600080604083850312156115c4576115c361135f565b5b60006115d2858286016113ad565b92505060206115e3858286016113ad565b9150509250929050565b6115f681611522565b811461160157600080fd5b50565b600081359050611613816115ed565b92915050565b611622816114eb565b811461162d57600080fd5b50565b60008135905061163f81611619565b92915050565b60008060008060008060008060006101208a8c0312156116685761166761135f565b5b60006116768c828d016113ad565b99505060206116878c828d016113ad565b98505060406116988c828d016113e3565b97505060606116a98c828d016113e3565b96505060806116ba8c828d016113e3565b95505060a06116cb8c828d01611604565b94505060c06116dc8c828d01611630565b93505060e06116ed8c828d01611604565b9250506101006116ff8c828d01611604565b9150509295985092959850929598565b600080604083850312156117265761172561135f565b5b6000611734858286016113ad565b925050602061174585828601611604565b9150509250929050565b7f496e73756666696369656e7420616c6c6f77616e636500000000000000000000600082015250565b60006117856016836112b8565b91506117908261174f565b602082019050919050565b600060208201905081810360008301526117b481611778565b9050919050565b7f4e487b7100000000000000000000000000000000000000000000000000000000600052601160045260246000fd5b60006117f5826113c2565b9150611800836113c2565b9250828203905081811115611818576118176117bb565b5b92915050565b7f4e6f74206f776e65720000000000000000000000000000000000000000000000600082015250565b60006118546009836112b8565b915061185f8261181e565b602082019050919050565b6000602082019050818103600083015261188381611847565b9050919050565b7f417574686f72697a6174696f6e206e6f74207965742076616c69640000000000600082015250565b60006118c0601b836112b8565b91506118cb8261188a565b602082019050919050565b600060208201905081810360008301526118ef816118b3565b9050919050565b7f417574686f72697a6174696f6e20657870697265640000000000000000000000600082015250565b600061192c6015836112b8565b9150611937826118f6565b602082019050919050565b6000602082019050818103600083015261195b8161191f565b9050919050565b7f417574686f72697a6174696f6e20616c72656164792075736564000000000000600082015250565b6000611998601a836112b8565b91506119a382611962565b602082019050919050565b600060208201905081810360008301526119c78161198b565b9050919050565b600060e0820190506119e3600083018a61152c565b6119f06020830189611583565b6119fd6040830188611583565b611a0a606083018761146e565b611a17608083018661146e565b611a2460a083018561146e565b611a3160c083018461152c565b98975050505050505050565b600081905092915050565b7f1901000000000000000000000000000000000000000000000000000000000000600082015250565b6000611a7e600283611a3d565b9150611a8982611a48565b600282019050919050565b6000819050919050565b611aaf611aaa82611522565b611a94565b82525050565b6000611ac082611a71565b9150611acc8285611a9e565b602082019150611adc8284611a9e565b6020820191508190509392505050565b6000608082019050611b01600083018761152c565b611b0e60208301866114f8565b611b1b604083018561152c565b611b28606083018461152c565b95945050505050565b7f496e76616c6964207369676e6174757265000000000000000000000000000000600082015250565b6000611b676011836112b8565b9150611b7282611b31565b602082019050919050565b60006020820190508181036000830152611b9681611b5a565b9050919050565b7f43616c6c6572206d75737420626520726563697069656e740000000000000000600082015250565b6000611bd36018836112b8565b9150611bde82611b9d565b602082019050919050565b60006020820190508181036000830152611c0281611bc6565b9050919050565b7f5472616e736665722066726f6d207a65726f2061646472657373000000000000600082015250565b6000611c3f601a836112b8565b9150611c4a82611c09565b602082019050919050565b60006020820190508181036000830152611c6e81611c32565b9050919050565b7f5472616e7366657220746f207a65726f20616464726573730000000000000000600082015250565b6000611cab6018836112b8565b9150611cb682611c75565b602082019050919050565b60006020820190508181036000830152611cda81611c9e565b9050919050565b7f496e73756666696369656e742062616c616e6365000000000000000000000000600082015250565b6000611d176014836112b8565b9150611d2282611ce1565b602082019050919050565b60006020820190508181036000830152611d4681611d0a565b9050919050565b6000611d58826113c2565b9150611d63836113c2565b9250828201905080821115611d7b57611d7a6117bb565b5b92915050565b7f4d696e7420746f207a65726f2061646472657373000000000000000000000000600082015250565b6000611db76014836112b8565b9150611dc282611d81565b602082019050919050565b60006020820190508181036000830152611de681611daa565b905091905056fea2646970667358221220cd8f576bd788246f698bd6df27b9d4e9aa941c4ad51a9c01152ce98ff4ef71a064736f6c63430008140033","opcodes":"PUSH1 0x80 PUSH1 0x40 MSTORE CALLVALUE DUP1 ISZERO PUSH3 0x11 JUMPI PUSH1 0x0 DUP1 REVERT JUMPDEST POP CALLER PUSH1 0x1 PUSH1 0x0 PUSH2 0x100 EXP DUP2 SLOAD DUP2 PUSH20 0xFFFFFFFFFFFFFFFFFFFFFFFFFFFFFFFFFFFFFFFF MUL NOT AND SWAP1 DUP4 PUSH20 0xFFFFFFFFFFFFFFFFFFFFFFFFFFFFFFFFFFFFFFFF AND MUL OR SWAP1 SSTORE POP PUSH32 0x8B73C3C69BB8FE3D512ECC4CF759CC79239F7B179B0FFACAA9A75D522B39400F PUSH1 0x40 MLOAD DUP1 PUSH1 0x40 ADD PUSH1 0x40 MSTORE DUP1 PUSH1 0xA DUP2 MSTORE PUSH1 0x20 ADD PUSH32 0x4143434F52442055534400000000000000000000000000000000000000000000 DUP2 MSTORE POP DUP1 MLOAD SWAP1 PUSH1 0x20 ADD KECCAK256 PUSH1 0x40 MLOAD DUP1 PUSH1 0x40 ADD PUSH1 0x40 MSTORE DUP1 PUSH1 0x1 DUP2 MSTORE PUSH1 0x20 ADD PUSH32 0x3100000000000000000000000000000000000000000000000000000000000000 DUP2 MSTORE POP DUP1 MLOAD SWAP1 PUSH1 0x20 ADD KECCAK256 CHAINID ADDRESS PUSH1 0x40 MLOAD PUSH1 0x20 ADD PUSH3 0x106 SWAP6 SWAP5 SWAP4 SWAP3 SWAP2 SWAP1 PUSH3 0x35A JUMP JUMPDEST PUSH1 0x40 MLOAD PUSH1 0x20 DUP2 DUP4 SUB SUB DUP2 MSTORE SWAP1 PUSH1 0x40 MSTORE DUP1 MLOAD SWAP1 PUSH1 0x20 ADD KECCAK256 PUSH1 0x5 DUP2 SWAP1 SSTORE POP PUSH3 0x139 CALLER PUSH5 0xE8D4A51000 PUSH3 0x13F PUSH1 0x20 SHL PUSH1 0x20 SHR JUMP JUMPDEST PUSH3 0x4C1 JUMP JUMPDEST PUSH1 0x0 PUSH20 0xFFFFFFFFFFFFFFFFFFFFFFFFFFFFFFFFFFFFFFFF AND DUP3 PUSH20 0xFFFFFFFFFFFFFFFFFFFFFFFFFFFFFFFFFFFFFFFF AND SUB PUSH3 0x1B1 JUMPI PUSH1 0x40 MLOAD PUSH32 0x8C379A000000000000000000000000000000000000000000000000000000000 DUP2 MSTORE PUSH1 0x4 ADD PUSH3 0x1A8 SWAP1 PUSH3 0x418 JUMP JUMPDEST PUSH1 0x40 MLOAD DUP1 SWAP2 SUB SWAP1 REVERT JUMPDEST DUP1 PUSH1 0x0 DUP1 DUP3 DUP3 SLOAD PUSH3 0x1C4 SWAP2 SWAP1 PUSH3 0x469 JUMP JUMPDEST SWAP3 POP POP DUP2 SWAP1 SSTORE POP DUP1 PUSH1 0x2 PUSH1 0x0 DUP5 PUSH20 0xFFFFFFFFFFFFFFFFFFFFFFFFFFFFFFFFFFFFFFFF AND PUSH20 0xFFFFFFFFFFFFFFFFFFFFFFFFFFFFFFFFFFFFFFFF AND DUP2 MSTORE PUSH1 0x20 ADD SWAP1 DUP2 MSTORE PUSH1 0x20 ADD PUSH1 0x0 KECCAK256 PUSH1 0x0 DUP3 DUP3 SLOAD PUSH3 0x21C SWAP2 SWAP1 PUSH3 0x469 JUMP JUMPDEST SWAP3 POP POP DUP2 SWAP1 SSTORE POP DUP2 PUSH20 0xFFFFFFFFFFFFFFFFFFFFFFFFFFFFFFFFFFFFFFFF AND PUSH1 0x0 PUSH20 0xFFFFFFFFFFFFFFFFFFFFFFFFFFFFFFFFFFFFFFFF AND PUSH32 0xDDF252AD1BE2C89B69C2B068FC378DAA952BA7F163C4A11628F55A4DF523B3EF DUP4 PUSH1 0x40 MLOAD PUSH3 0x283 SWAP2 SWAP1 PUSH3 0x4A4 JUMP JUMPDEST PUSH1 0x40 MLOAD DUP1 SWAP2 SUB SWAP1 LOG3 DUP2 PUSH20 0xFFFFFFFFFFFFFFFFFFFFFFFFFFFFFFFFFFFFFFFF AND PUSH32 0xF6798A560793A54C3BCFE86A93CDE1E73087D944C0EA20544137D4121396885 DUP3 PUSH1 0x40 MLOAD PUSH3 0x2D3 SWAP2 SWAP1 PUSH3 0x4A4 JUMP JUMPDEST PUSH1 0x40 MLOAD DUP1 SWAP2 SUB SWAP1 LOG2 POP POP JUMP JUMPDEST PUSH1 0x0 DUP2 SWAP1 POP SWAP2 SWAP1 POP JUMP JUMPDEST PUSH3 0x2F4 DUP2 PUSH3 0x2DF JUMP JUMPDEST DUP3 MSTORE POP POP JUMP JUMPDEST PUSH1 0x0 DUP2 SWAP1 POP SWAP2 SWAP1 POP JUMP JUMPDEST PUSH3 0x30F DUP2 PUSH3 0x2FA JUMP JUMPDEST DUP3 MSTORE POP POP JUMP JUMPDEST PUSH1 0x0 PUSH20 0xFFFFFFFFFFFFFFFFFFFFFFFFFFFFFFFFFFFFFFFF DUP3 AND SWAP1 POP SWAP2 SWAP1 POP JUMP JUMPDEST PUSH1 0x0 PUSH3 0x342 DUP3 PUSH3 0x315 JUMP JUMPDEST SWAP1 POP SWAP2 SWAP1 POP JUMP JUMPDEST PUSH3 0x354 DUP2 PUSH3 0x335 JUMP JUMPDEST DUP3 MSTORE POP POP JUMP JUMPDEST PUSH1 0x0 PUSH1 0xA0 DUP3 ADD SWAP1 POP PUSH3 0x371 PUSH1 0x0 DUP4 ADD DUP9 PUSH3 0x2E9 JUMP JUMPDEST PUSH3 0x380 PUSH1 0x20 DUP4 ADD DUP8 PUSH3 0x2E9 JUMP JUMPDEST PUSH3 0x38F PUSH1 0x40 DUP4 ADD DUP7 PUSH3 0x2E9 JUMP JUMPDEST PUSH3 0x39E PUSH1 0x60 DUP4 ADD DUP6 PUSH3 0x304 JUMP JUMPDEST PUSH3 0x3AD PUSH1 0x80 DUP4 ADD DUP5 PUSH3 0x349 JUMP JUMPDEST SWAP7 SWAP6 POP POP POP POP POP POP JUMP JUMPDEST PUSH1 0x0 DUP3 DUP3 MSTORE PUSH1 0x20 DUP3 ADD SWAP1 POP SWAP3 SWAP2 POP POP JUMP JUMPDEST PUSH32 0x4D696E7420746F207A65726F2061646472657373000000000000000000000000 PUSH1 0x0 DUP3 ADD MSTORE POP JUMP JUMPDEST PUSH1 0x0 PUSH3 0x400 PUSH1 0x14 DUP4 PUSH3 0x3B7 JUMP JUMPDEST SWAP2 POP PUSH3 0x40D DUP3 PUSH3 0x3C8 JUMP JUMPDEST PUSH1 0x20 DUP3 ADD SWAP1 POP SWAP2 SWAP1 POP JUMP JUMPDEST PUSH1 0x0 PUSH1 0x20 DUP3 ADD SWAP1 POP DUP2 DUP2 SUB PUSH1 0x0 DUP4 ADD MSTORE PUSH3 0x433 DUP2 PUSH3 0x3F1 JUMP JUMPDEST SWAP1 POP SWAP2 SWAP1 POP JUMP JUMPDEST PUSH32 0x4E487B7100000000000000000000000000000000000000000000000000000000 PUSH1 0x0 MSTORE PUSH1 0x11 PUSH1 0x4 MSTORE PUSH1 0x24 PUSH1 0x0 REVERT JUMPDEST PUSH1 0x0 PUSH3 0x476 DUP3 PUSH3 0x2FA JUMP JUMPDEST SWAP2 POP PUSH3 0x483 DUP4 PUSH3 0x2FA JUMP JUMPDEST SWAP3 POP DUP3 DUP3 ADD SWAP1 POP DUP1 DUP3 GT ISZERO PUSH3 0x49E JUMPI PUSH3 0x49D PUSH3 0x43A JUMP JUMPDEST JUMPDEST SWAP3 SWAP2 POP POP JUMP JUMPDEST PUSH1 0x0 PUSH1 0x20 DUP3 ADD SWAP1 POP PUSH3 0x4BB PUSH1 0x0 DUP4 ADD DUP5 PUSH3 0x304 JUMP JUMPDEST SWAP3 SWAP2 POP POP JUMP JUMPDEST PUSH2 0x1E23 DUP1 PUSH3 0x4D1 PUSH1 0x0 CODECOPY PUSH1 0x0 RETURN INVALID PUSH1 0x80 PUSH1 0x40 MSTORE CALLVALUE DUP1 ISZERO PUSH2 0x10 JUMPI PUSH1 0x0 DUP1 REVERT JUMPDEST POP PUSH1 0x4 CALLDATASIZE LT PUSH2 0x10B JUMPI PUSH1 0x0 CALLDATALOAD PUSH1 0xE0 SHR DUP1 PUSH4 0x7F2EECC3 GT PUSH2 0xA2 JUMPI DUP1 PUSH4 0xA9059CBB GT PUSH2 0x71 JUMPI DUP1 PUSH4 0xA9059CBB EQ PUSH2 0x2AC JUMPI DUP1 PUSH4 0xDD62ED3E EQ PUSH2 0x2DC JUMPI DUP1 PUSH4 0xE3EE160E EQ PUSH2 0x30C JUMPI DUP1 PUSH4 0xE94A0102 EQ PUSH2 0x328 JUMPI DUP1 PUSH4 0xEF55BEC6 EQ PUSH2 0x358 JUMPI PUSH2 0x10B JUMP JUMPDEST DUP1 PUSH4 0x7F2EECC3 EQ PUSH2 0x234 JUMPI DUP1 PUSH4 0x8DA5CB5B EQ PUSH2 0x252 JUMPI DUP1 PUSH4 0x95D89B41 EQ PUSH2 0x270 JUMPI DUP1 PUSH4 0xA0CC6A68 EQ PUSH2 0x28E JUMPI PUSH2 0x10B JUMP JUMPDEST DUP1 PUSH4 0x313CE567 GT PUSH2 0xDE JUMPI DUP1 PUSH4 0x313CE567 EQ PUSH2 0x1AC JUMPI DUP1 PUSH4 0x3644E515 EQ PUSH2 0x1CA JUMPI DUP1 PUSH4 0x40C10F19 EQ PUSH2 0x1E8 JUMPI DUP1 PUSH4 0x70A08231 EQ PUSH2 0x204 JUMPI PUSH2 0x10B JUMP JUMPDEST DUP1 PUSH4 0x6FDDE03 EQ PUSH2 0x110 JUMPI DUP1 PUSH4 0x95EA7B3 EQ PUSH2 0x12E JUMPI DUP1 PUSH4 0x18160DDD EQ PUSH2 0x15E JUMPI DUP1 PUSH4 0x23B872DD EQ PUSH2 0x17C JUMPI JUMPDEST PUSH1 0x0 DUP1 REVERT JUMPDEST PUSH2 0x118 PUSH2 0x374 JUMP JUMPDEST PUSH1 0x40 MLOAD PUSH2 0x125 SWAP2 SWAP1 PUSH2 0x133D JUMP JUMPDEST PUSH1 0x40 MLOAD DUP1 SWAP2 SUB SWAP1 RETURN JUMPDEST PUSH2 0x148 PUSH1 0x4 DUP1 CALLDATASIZE SUB DUP2 ADD SWAP1 PUSH2 0x143 SWAP2 SWAP1 PUSH2 0x13F8 JUMP JUMPDEST PUSH2 0x3AD JUMP JUMPDEST PUSH1 0x40 MLOAD PUSH2 0x155 SWAP2 SWAP1 PUSH2 0x1453 JUMP JUMPDEST PUSH1 0x40 MLOAD DUP1 SWAP2 SUB SWAP1 RETURN JUMPDEST PUSH2 0x166 PUSH2 0x49F JUMP JUMPDEST PUSH1 0x40 MLOAD PUSH2 0x173 SWAP2 SWAP1 PUSH2 0x147D JUMP JUMPDEST PUSH1 0x40 MLOAD DUP1 SWAP2 SUB SWAP1 RETURN JUMPDEST PUSH2 0x196 PUSH1 0x4 DUP1 CALLDATASIZE SUB DUP2 ADD SWAP1 PUSH2 0x191 SWAP2 SWAP1 PUSH2 0x1498 JUMP JUMPDEST PUSH2 0x4A5 JUMP JUMPDEST PUSH1 0x40 MLOAD PUSH2 0x1A3 SWAP2 SWAP1 PUSH2 0x1453 JUMP JUMPDEST PUSH1 0x40 MLOAD DUP1 SWAP2 SUB SWAP1 RETURN JUMPDEST PUSH2 0x1B4 PUSH2 0x60F JUMP JUMPDEST PUSH1 0x40 MLOAD PUSH2 0x1C1 SWAP2 SWAP1 PUSH2 0x1507 JUMP JUMPDEST PUSH1 0x40 MLOAD DUP1 SWAP2 SUB SWAP1 RETURN JUMPDEST PUSH2 0x1D2 PUSH2 0x614 JUMP JUMPDEST PUSH1 0x40 MLOAD PUSH2 0x1DF SWAP2 SWAP1 PUSH2 0x153B JUMP JUMPDEST PUSH1 0x40 MLOAD DUP1 SWAP2 SUB SWAP1 RETURN JUMPDEST PUSH2 0x202 PUSH1 0x4 DUP1 CALLDATASIZE SUB DUP2 ADD SWAP1 PUSH2 0x1FD SWAP2 SWAP1 PUSH2 0x13F8 JUMP JUMPDEST PUSH2 0x61A JUMP JUMPDEST STOP JUMPDEST PUSH2 0x21E PUSH1 0x4 DUP1 CALLDATASIZE SUB DUP2 ADD SWAP1 PUSH2 0x219 SWAP2 SWAP1 PUSH2 0x1556 JUMP JUMPDEST PUSH2 0x6B8 JUMP JUMPDEST PUSH1 0x40 MLOAD PUSH2 0x22B SWAP2 SWAP1 PUSH2 0x147D JUMP JUMPDEST PUSH1 0x40 MLOAD DUP1 SWAP2 SUB SWAP1 RETURN JUMPDEST PUSH2 0x23C PUSH2 0x6D0 JUMP JUMPDEST PUSH1 0x40 MLOAD PUSH2 0x249 SWAP2 SWAP1 PUSH2 0x153B JUMP JUMPDEST PUSH1 0x40 MLOAD DUP1 SWAP2 SUB SWAP1 RETURN JUMPDEST PUSH2 0x25A PUSH2 0x6F4 JUMP JUMPDEST PUSH1 0x40 MLOAD PUSH2 0x267 SWAP2 SWAP1 PUSH2 0x1592 JUMP JUMPDEST PUSH1 0x40 MLOAD DUP1 SWAP2 SUB SWAP1 RETURN JUMPDEST PUSH2 0x278 PUSH2 0x71A JUMP JUMPDEST PUSH1 0x40 MLOAD PUSH2 0x285 SWAP2 SWAP1 PUSH2 0x133D JUMP JUMPDEST PUSH1 0x40 MLOAD DUP1 SWAP2 SUB SWAP1 RETURN JUMPDEST PUSH2 0x296 PUSH2 0x753 JUMP JUMPDEST PUSH1 0x40 MLOAD PUSH2 0x2A3 SWAP2 SWAP1 PUSH2 0x153B JUMP JUMPDEST PUSH1 0x40 MLOAD DUP1 SWAP2 SUB SWAP1 RETURN JUMPDEST PUSH2 0x2C6 PUSH1 0x4 DUP1 CALLDATASIZE SUB DUP2 ADD SWAP1 PUSH2 0x2C1 SWAP2 SWAP1 PUSH2 0x13F8 JUMP JUMPDEST PUSH2 0x777 JUMP JUMPDEST PUSH1 0x40 MLOAD PUSH2 0x2D3 SWAP2 SWAP1 PUSH2 0x1453 JUMP JUMPDEST PUSH1 0x40 MLOAD DUP1 SWAP2 SUB SWAP1 RETURN JUMPDEST PUSH2 0x2F6 PUSH1 0x4 DUP1 CALLDATASIZE SUB DUP2 ADD SWAP1 PUSH2 0x2F1 SWAP2 SWAP1 PUSH2 0x15AD JUMP JUMPDEST PUSH2 0x78E JUMP JUMPDEST PUSH1 0x40 MLOAD PUSH2 0x303 SWAP2 SWAP1 PUSH2 0x147D JUMP JUMPDEST PUSH1 0x40 MLOAD DUP1 SWAP2 SUB SWAP1 RETURN JUMPDEST PUSH2 0x326 PUSH1 0x4 DUP1 CALLDATASIZE SUB DUP2 ADD SWAP1 PUSH2 0x321 SWAP2 SWAP1 PUSH2 0x1645 JUMP JUMPDEST PUSH2 0x7B3 JUMP JUMPDEST STOP JUMPDEST PUSH2 0x342 PUSH1 0x4 DUP1 CALLDATASIZE SUB DUP2 ADD SWAP1 PUSH2 0x33D SWAP2 SWAP1 PUSH2 0x170F JUMP JUMPDEST PUSH2 0xADC JUMP JUMPDEST PUSH1 0x40 MLOAD PUSH2 0x34F SWAP2 SWAP1 PUSH2 0x1453 JUMP JUMPDEST PUSH1 0x40 MLOAD DUP1 SWAP2 SUB SWAP1 RETURN JUMPDEST PUSH2 0x372 PUSH1 0x4 DUP1 CALLDATASIZE SUB DUP2 ADD SWAP1 PUSH2 0x36D SWAP2 SWAP1 PUSH2 0x1645 JUMP JUMPDEST PUSH2 0xB0B JUMP JUMPDEST STOP JUMPDEST PUSH1 0x40 MLOAD DUP1 PUSH1 0x40 ADD PUSH1 0x40 MSTORE DUP1 PUSH1 0xA DUP2 MSTORE PUSH1 0x20 ADD PUSH32 0x4143434F52442055534400000000000000000000000000000000000000000000 DUP2 MSTORE POP DUP2 JUMP JUMPDEST PUSH1 0x0 DUP2 PUSH1 0x3 PUSH1 0x0 CALLER PUSH20 0xFFFFFFFFFFFFFFFFFFFFFFFFFFFFFFFFFFFFFFFF AND PUSH20 0xFFFFFFFFFFFFFFFFFFFFFFFFFFFFFFFFFFFFFFFF AND DUP2 MSTORE PUSH1 0x20 ADD SWAP1 DUP2 MSTORE PUSH1 0x20 ADD PUSH1 0x0 KECCAK256 PUSH1 0x0 DUP6 PUSH20 0xFFFFFFFFFFFFFFFFFFFFFFFFFFFFFFFFFFFFFFFF AND PUSH20 0xFFFFFFFFFFFFFFFFFFFFFFFFFFFFFFFFFFFFFFFF AND DUP2 MSTORE PUSH1 0x20 ADD SWAP1 DUP2 MSTORE PUSH1 0x20 ADD PUSH1 0x0 KECCAK256 DUP2 SWAP1 SSTORE POP DUP3 PUSH20 0xFFFFFFFFFFFFFFFFFFFFFFFFFFFFFFFFFFFFFFFF AND CALLER PUSH20 0xFFFFFFFFFFFFFFFFFFFFFFFFFFFFFFFFFFFFFFFF AND PUSH32 0x8C5BE1E5EBEC7D5BD14F71427D1E84F3DD0314C0F7B2291E5B200AC8C7C3B925 DUP5 PUSH1 0x40 MLOAD PUSH2 0x48D SWAP2 SWAP1 PUSH2 0x147D JUMP JUMPDEST PUSH1 0x40 MLOAD DUP1 SWAP2 SUB SWAP1 LOG3 PUSH1 0x1 SWAP1 POP SWAP3 SWAP2 POP POP JUMP JUMPDEST PUSH1 0x0 SLOAD DUP2 JUMP JUMPDEST PUSH1 0x0 DUP2 PUSH1 0x3 PUSH1 0x0 DUP7 PUSH20 0xFFFFFFFFFFFFFFFFFFFFFFFFFFFFFFFFFFFFFFFF AND PUSH20 0xFFFFFFFFFFFFFFFFFFFFFFFFFFFFFFFFFFFFFFFF AND DUP2 MSTORE PUSH1 0x20 ADD SWAP1 DUP2 MSTORE PUSH1 0x20 ADD PUSH1 0x0 KECCAK256 PUSH1 0x0 CALLER PUSH20 0xFFFFFFFFFFFFFFFFFFFFFFFFFFFFFFFFFFFFFFFF AND PUSH20 0xFFFFFFFFFFFFFFFFFFFFFFFFFFFFFFFFFFFFFFFF AND DUP2 MSTORE PUSH1 0x20 ADD SWAP1 DUP2 MSTORE PUSH1 0x20 ADD PUSH1 0x0 KECCAK256 SLOAD LT ISZERO PUSH2 0x566 JUMPI PUSH1 0x40 MLOAD PUSH32 0x8C379A000000000000000000000000000000000000000000000000000000000 DUP2 MSTORE PUSH1 0x4 ADD PUSH2 0x55D SWAP1 PUSH2 0x179B JUMP JUMPDEST PUSH1 0x40 MLOAD DUP1 SWAP2 SUB SWAP1 REVERT JUMPDEST DUP2 PUSH1 0x3 PUSH1 0x0 DUP7 PUSH20 0xFFFFFFFFFFFFFFFFFFFFFFFFFFFFFFFFFFFFFFFF AND PUSH20 0xFFFFFFFFFFFFFFFFFFFFFFFFFFFFFFFFFFFFFFFF AND DUP2 MSTORE PUSH1 0x20 ADD SWAP1 DUP2 MSTORE PUSH1 0x20 ADD PUSH1 0x0 KECCAK256 PUSH1 0x0 CALLER PUSH20 0xFFFFFFFFFFFFFFFFFFFFFFFFFFFFFFFFFFFFFFFF AND PUSH20 0xFFFFFFFFFFFFFFFFFFFFFFFFFFFFFFFFFFFFFFFF AND DUP2 MSTORE PUSH1 0x20 ADD SWAP1 DUP2 MSTORE PUSH1 0x20 ADD PUSH1 0x0 KECCAK256 PUSH1 0x0 DUP3 DUP3 SLOAD PUSH2 0x5F2 SWAP2 SWAP1 PUSH2 0x17EA JUMP JUMPDEST SWAP3 POP POP DUP2 SWAP1 SSTORE POP PUSH2 0x604 DUP5 DUP5 DUP5 PUSH2 0xEA2 JUMP JUMPDEST PUSH1 0x1 SWAP1 POP SWAP4 SWAP3 POP POP POP JUMP JUMPDEST PUSH1 0x6 DUP2 JUMP JUMPDEST PUSH1 0x5 SLOAD DUP2 JUMP JUMPDEST PUSH1 0x1 PUSH1 0x0 SWAP1 SLOAD SWAP1 PUSH2 0x100 EXP SWAP1 DIV PUSH20 0xFFFFFFFFFFFFFFFFFFFFFFFFFFFFFFFFFFFFFFFF AND PUSH20 0xFFFFFFFFFFFFFFFFFFFFFFFFFFFFFFFFFFFFFFFF AND CALLER PUSH20 0xFFFFFFFFFFFFFFFFFFFFFFFFFFFFFFFFFFFFFFFF AND EQ PUSH2 0x6AA JUMPI PUSH1 0x40 MLOAD PUSH32 0x8C379A000000000000000000000000000000000000000000000000000000000 DUP2 MSTORE PUSH1 0x4 ADD PUSH2 0x6A1 SWAP1 PUSH2 0x186A JUMP JUMPDEST PUSH1 0x40 MLOAD DUP1 SWAP2 SUB SWAP1 REVERT JUMPDEST PUSH2 0x6B4 DUP3 DUP3 PUSH2 0x1118 JUMP JUMPDEST POP POP JUMP JUMPDEST PUSH1 0x2 PUSH1 0x20 MSTORE DUP1 PUSH1 0x0 MSTORE PUSH1 0x40 PUSH1 0x0 KECCAK256 PUSH1 0x0 SWAP2 POP SWAP1 POP SLOAD DUP2 JUMP JUMPDEST PUSH32 0xD099CC98EF71107A616C4F0F941F04C322D8E254FE26B3C6668DB87AAE413DE8 DUP2 JUMP JUMPDEST PUSH1 0x1 PUSH1 0x0 SWAP1 SLOAD SWAP1 PUSH2 0x100 EXP SWAP1 DIV PUSH20 0xFFFFFFFFFFFFFFFFFFFFFFFFFFFFFFFFFFFFFFFF AND DUP2 JUMP JUMPDEST PUSH1 0x40 MLOAD DUP1 PUSH1 0x40 ADD PUSH1 0x40 MSTORE DUP1 PUSH1 0x4 DUP2 MSTORE PUSH1 0x20 ADD PUSH32 0x4155534400000000000000000000000000000000000000000000000000000000 DUP2 MSTORE POP DUP2 JUMP JUMPDEST PUSH32 0x7C7C6CDB67A18743F49EC6FA9B35F50D52ED05CBED4CC592E13B44501C1A2267 DUP2 JUMP JUMPDEST PUSH1 0x0 PUSH2 0x784 CALLER DUP5 DUP5 PUSH2 0xEA2 JUMP JUMPDEST PUSH1 0x1 SWAP1 POP SWAP3 SWAP2 POP POP JUMP JUMPDEST PUSH1 0x3 PUSH1 0x20 MSTORE DUP2 PUSH1 0x0 MSTORE PUSH1 0x40 PUSH1 0x0 KECCAK256 PUSH1 0x20 MSTORE DUP1 PUSH1 0x0 MSTORE PUSH1 0x40 PUSH1 0x0 KECCAK256 PUSH1 0x0 SWAP2 POP SWAP2 POP POP SLOAD DUP2 JUMP JUMPDEST DUP6 TIMESTAMP GT PUSH2 0x7F5 JUMPI PUSH1 0x40 MLOAD PUSH32 0x8C379A000000000000000000000000000000000000000000000000000000000 DUP2 MSTORE PUSH1 0x4 ADD PUSH2 0x7EC SWAP1 PUSH2 0x18D6 JUMP JUMPDEST PUSH1 0x40 MLOAD DUP1 SWAP2 SUB SWAP1 REVERT JUMPDEST DUP5 TIMESTAMP LT PUSH2 0x837 JUMPI PUSH1 0x40 MLOAD PUSH32 0x8C379A000000000000000000000000000000000000000000000000000000000 DUP2 MSTORE PUSH1 0x4 ADD PUSH2 0x82E SWAP1 PUSH2 0x1942 JUMP JUMPDEST PUSH1 0x40 MLOAD DUP1 SWAP2 SUB SWAP1 REVERT JUMPDEST PUSH1 0x4 PUSH1 0x0 DUP11 PUSH20 0xFFFFFFFFFFFFFFFFFFFFFFFFFFFFFFFFFFFFFFFF AND PUSH20 0xFFFFFFFFFFFFFFFFFFFFFFFFFFFFFFFFFFFFFFFF AND DUP2 MSTORE PUSH1 0x20 ADD SWAP1 DUP2 MSTORE PUSH1 0x20 ADD PUSH1 0x0 KECCAK256 PUSH1 0x0 DUP6 DUP2 MSTORE PUSH1 0x20 ADD SWAP1 DUP2 MSTORE PUSH1 0x20 ADD PUSH1 0x0 KECCAK256 PUSH1 0x0 SWAP1 SLOAD SWAP1 PUSH2 0x100 EXP SWAP1 DIV PUSH1 0xFF AND ISZERO PUSH2 0x8D5 JUMPI PUSH1 0x40 MLOAD PUSH32 0x8C379A000000000000000000000000000000000000000000000000000000000 DUP2 MSTORE PUSH1 0x4 ADD PUSH2 0x8CC SWAP1 PUSH2 0x19AE JUMP JUMPDEST PUSH1 0x40 MLOAD DUP1 SWAP2 SUB SWAP1 REVERT JUMPDEST PUSH1 0x0 PUSH1 0x5 SLOAD PUSH32 0x7C7C6CDB67A18743F49EC6FA9B35F50D52ED05CBED4CC592E13B44501C1A2267 DUP12 DUP12 DUP12 DUP12 DUP12 DUP12 PUSH1 0x40 MLOAD PUSH1 0x20 ADD PUSH2 0x917 SWAP8 SWAP7 SWAP6 SWAP5 SWAP4 SWAP3 SWAP2 SWAP1 PUSH2 0x19CE JUMP JUMPDEST PUSH1 0x40 MLOAD PUSH1 0x20 DUP2 DUP4 SUB SUB DUP2 MSTORE SWAP1 PUSH1 0x40 MSTORE DUP1 MLOAD SWAP1 PUSH1 0x20 ADD KECCAK256 PUSH1 0x40 MLOAD PUSH1 0x20 ADD PUSH2 0x93E SWAP3 SWAP2 SWAP1 PUSH2 0x1AB5 JUMP JUMPDEST PUSH1 0x40 MLOAD PUSH1 0x20 DUP2 DUP4 SUB SUB DUP2 MSTORE SWAP1 PUSH1 0x40 MSTORE DUP1 MLOAD SWAP1 PUSH1 0x20 ADD KECCAK256 SWAP1 POP PUSH1 0x0 PUSH1 0x1 DUP3 DUP7 DUP7 DUP7 PUSH1 0x40 MLOAD PUSH1 0x0 DUP2 MSTORE PUSH1 0x20 ADD PUSH1 0x40 MSTORE PUSH1 0x40 MLOAD PUSH2 0x97B SWAP5 SWAP4 SWAP3 SWAP2 SWAP1 PUSH2 0x1AEC JUMP JUMPDEST PUSH1 0x20 PUSH1 0x40 MLOAD PUSH1 0x20 DUP2 SUB SWAP1 DUP1 DUP5 SUB SWAP1 DUP6 GAS STATICCALL ISZERO DUP1 ISZERO PUSH2 0x99D JUMPI RETURNDATASIZE PUSH1 0x0 DUP1 RETURNDATACOPY RETURNDATASIZE PUSH1 0x0 REVERT JUMPDEST POP POP POP PUSH1 0x20 PUSH1 0x40 MLOAD SUB MLOAD SWAP1 POP DUP11 PUSH20 0xFFFFFFFFFFFFFFFFFFFFFFFFFFFFFFFFFFFFFFFF AND DUP2 PUSH20 0xFFFFFFFFFFFFFFFFFFFFFFFFFFFFFFFFFFFFFFFF AND EQ PUSH2 0xA17 JUMPI PUSH1 0x40 MLOAD PUSH32 0x8C379A000000000000000000000000000000000000000000000000000000000 DUP2 MSTORE PUSH1 0x4 ADD PUSH2 0xA0E SWAP1 PUSH2 0x1B7D JUMP JUMPDEST PUSH1 0x40 MLOAD DUP1 SWAP2 SUB SWAP1 REVERT JUMPDEST PUSH1 0x1 PUSH1 0x4 PUSH1 0x0 DUP14 PUSH20 0xFFFFFFFFFFFFFFFFFFFFFFFFFFFFFFFFFFFFFFFF AND PUSH20 0xFFFFFFFFFFFFFFFFFFFFFFFFFFFFFFFFFFFFFFFF AND DUP2 MSTORE PUSH1 0x20 ADD SWAP1 DUP2 MSTORE PUSH1 0x20 ADD PUSH1 0x0 KECCAK256 PUSH1 0x0 DUP9 DUP2 MSTORE PUSH1 0x20 ADD SWAP1 DUP2 MSTORE PUSH1 0x20 ADD PUSH1 0x0 KECCAK256 PUSH1 0x0 PUSH2 0x100 EXP DUP2 SLOAD DUP2 PUSH1 0xFF MUL NOT AND SWAP1 DUP4 ISZERO ISZERO MUL OR SWAP1 SSTORE POP DUP6 DUP12 PUSH20 0xFFFFFFFFFFFFFFFFFFFFFFFFFFFFFFFFFFFFFFFF AND PUSH32 0x98DE503528EE59B575EF0C0A2576A82497BFC029A5685B209E9EC333479B10A5 PUSH1 0x40 MLOAD PUSH1 0x40 MLOAD DUP1 SWAP2 SUB SWAP1 LOG3 PUSH2 0xACF DUP12 DUP12 DUP12 PUSH2 0xEA2 JUMP JUMPDEST POP POP POP POP POP POP POP POP POP POP POP JUMP JUMPDEST PUSH1 0x4 PUSH1 0x20 MSTORE DUP2 PUSH1 0x0 MSTORE PUSH1 0x40 PUSH1 0x0 KECCAK256 PUSH1 0x20 MSTORE DUP1 PUSH1 0x0 MSTORE PUSH1 0x40 PUSH1 0x0 KECCAK256 PUSH1 0x0 SWAP2 POP SWAP2 POP SWAP1 SLOAD SWAP1 PUSH2 0x100 EXP SWAP1 DIV PUSH1 0xFF AND DUP2 JUMP JUMPDEST CALLER PUSH20 0xFFFFFFFFFFFFFFFFFFFFFFFFFFFFFFFFFFFFFFFF AND DUP9 PUSH20 0xFFFFFFFFFFFFFFFFFFFFFFFFFFFFFFFFFFFFFFFF AND EQ PUSH2 0xB79 JUMPI PUSH1 0x40 MLOAD PUSH32 0x8C379A000000000000000000000000000000000000000000000000000000000 DUP2 MSTORE PUSH1 0x4 ADD PUSH2 0xB70 SWAP1 PUSH2 0x1BE9 JUMP JUMPDEST PUSH1 0x40 MLOAD DUP1 SWAP2 SUB SWAP1 REVERT JUMPDEST DUP6 TIMESTAMP GT PUSH2 0xBBB JUMPI PUSH1 0x40 MLOAD PUSH32 0x8C379A000000000000000000000000000000000000000000000000000000000 DUP2 MSTORE PUSH1 0x4 ADD PUSH2 0xBB2 SWAP1 PUSH2 0x18D6 JUMP JUMPDEST PUSH1 0x40 MLOAD DUP1 SWAP2 SUB SWAP1 REVERT JUMPDEST DUP5 TIMESTAMP LT PUSH2 0xBFD JUMPI PUSH1 0x40 MLOAD PUSH32 0x8C379A000000000000000000000000000000000000000000000000000000000 DUP2 MSTORE PUSH1 0x4 ADD PUSH2 0xBF4 SWAP1 PUSH2 0x1942 JUMP JUMPDEST PUSH1 0x40 MLOAD DUP1 SWAP2 SUB SWAP1 REVERT JUMPDEST PUSH1 0x4 PUSH1 0x0 DUP11 PUSH20 0xFFFFFFFFFFFFFFFFFFFFFFFFFFFFFFFFFFFFFFFF AND PUSH20 0xFFFFFFFFFFFFFFFFFFFFFFFFFFFFFFFFFFFFFFFF AND DUP2 MSTORE PUSH1 0x20 ADD SWAP1 DUP2 MSTORE PUSH1 0x20 ADD PUSH1 0x0 KECCAK256 PUSH1 0x0 DUP6 DUP2 MSTORE PUSH1 0x20 ADD SWAP1 DUP2 MSTORE PUSH1 0x20 ADD PUSH1 0x0 KECCAK256 PUSH1 0x0 SWAP1 SLOAD SWAP1 PUSH2 0x100 EXP SWAP1 DIV PUSH1 0xFF AND ISZERO PUSH2 0xC9B JUMPI PUSH1 0x40 MLOAD PUSH32 0x8C379A000000000000000000000000000000000000000000000000000000000 DUP2 MSTORE PUSH1 0x4 ADD PUSH2 0xC92 SWAP1 PUSH2 0x19AE JUMP JUMPDEST PUSH1 0x40 MLOAD DUP1 SWAP2 SUB SWAP1 REVERT JUMPDEST PUSH1 0x0 PUSH1 0x5 SLOAD PUSH32 0xD099CC98EF71107A616C4F0F941F04C322D8E254FE26B3C6668DB87AAE413DE8 DUP12 DUP12 DUP12 DUP12 DUP12 DUP12 PUSH1 0x40 MLOAD PUSH1 0x20 ADD PUSH2 0xCDD SWAP8 SWAP7 SWAP6 SWAP5 SWAP4 SWAP3 SWAP2 SWAP1 PUSH2 0x19CE JUMP JUMPDEST PUSH1 0x40 MLOAD PUSH1 0x20 DUP2 DUP4 SUB SUB DUP2 MSTORE SWAP1 PUSH1 0x40 MSTORE DUP1 MLOAD SWAP1 PUSH1 0x20 ADD KECCAK256 PUSH1 0x40 MLOAD PUSH1 0x20 ADD PUSH2 0xD04 SWAP3 SWAP2 SWAP1 PUSH2 0x1AB5 JUMP JUMPDEST PUSH1 0x40 MLOAD PUSH1 0x20 DUP2 DUP4 SUB SUB DUP2 MSTORE SWAP1 PUSH1 0x40 MSTORE DUP1 MLOAD SWAP1 PUSH1 0x20 ADD KECCAK256 SWAP1 POP PUSH1 0x0 PUSH1 0x1 DUP3 DUP7 DUP7 DUP7 PUSH1 0x40 MLOAD PUSH1 0x0 DUP2 MSTORE PUSH1 0x20 ADD PUSH1 0x40 MSTORE PUSH1 0x40 MLOAD PUSH2 0xD41 SWAP5 SWAP4 SWAP3 SWAP2 SWAP1 PUSH2 0x1AEC JUMP JUMPDEST PUSH1 0x20 PUSH1 0x40 MLOAD PUSH1 0x20 DUP2 SUB SWAP1 DUP1 DUP5 SUB SWAP1 DUP6 GAS STATICCALL ISZERO DUP1 ISZERO PUSH2 0xD63 JUMPI RETURNDATASIZE PUSH1 0x0 DUP1 RETURNDATACOPY RETURNDATASIZE PUSH1 0x0 REVERT JUMPDEST POP POP POP PUSH1 0x20 PUSH1 0x40 MLOAD SUB MLOAD SWAP1 POP DUP11 PUSH20 0xFFFFFFFFFFFFFFFFFFFFFFFFFFFFFFFFFFFFFFFF AND DUP2 PUSH20 0xFFFFFFFFFFFFFFFFFFFFFFFFFFFFFFFFFFFFFFFF AND EQ PUSH2 0xDDD JUMPI PUSH1 0x40 MLOAD PUSH32 0x8C379A000000000000000000000000000000000000000000000000000000000 DUP2 MSTORE PUSH1 0x4 ADD PUSH2 0xDD4 SWAP1 PUSH2 0x1B7D JUMP JUMPDEST PUSH1 0x40 MLOAD DUP1 SWAP2 SUB SWAP1 REVERT JUMPDEST PUSH1 0x1 PUSH1 0x4 PUSH1 0x0 DUP14 PUSH20 0xFFFFFFFFFFFFFFFFFFFFFFFFFFFFFFFFFFFFFFFF AND PUSH20 0xFFFFFFFFFFFFFFFFFFFFFFFFFFFFFFFFFFFFFFFF AND DUP2 MSTORE PUSH1 0x20 ADD SWAP1 DUP2 MSTORE PUSH1 0x20 ADD PUSH1 0x0 KECCAK256 PUSH1 0x0 DUP9 DUP2 MSTORE PUSH1 0x20 ADD SWAP1 DUP2 MSTORE PUSH1 0x20 ADD PUSH1 0x0 KECCAK256 PUSH1 0x0 PUSH2 0x100 EXP DUP2 SLOAD DUP2 PUSH1 0xFF MUL NOT AND SWAP1 DUP4 ISZERO ISZERO MUL OR SWAP1 SSTORE POP DUP6 DUP12 PUSH20 0xFFFFFFFFFFFFFFFFFFFFFFFFFFFFFFFFFFFFFFFF AND PUSH32 0x98DE503528EE59B575EF0C0A2576A82497BFC029A5685B209E9EC333479B10A5 PUSH1 0x40 MLOAD PUSH1 0x40 MLOAD DUP1 SWAP2 SUB SWAP1 LOG3 PUSH2 0xE95 DUP12 DUP12 DUP12 PUSH2 0xEA2 JUMP JUMPDEST POP POP POP POP POP POP POP POP POP POP POP JUMP JUMPDEST PUSH1 0x0 PUSH20 0xFFFFFFFFFFFFFFFFFFFFFFFFFFFFFFFFFFFFFFFF AND DUP4 PUSH20 0xFFFFFFFFFFFFFFFFFFFFFFFFFFFFFFFFFFFFFFFF AND SUB PUSH2 0xF11 JUMPI PUSH1 0x40 MLOAD PUSH32 0x8C379A000000000000000000000000000000000000000000000000000000000 DUP2 MSTORE PUSH1 0x4 ADD PUSH2 0xF08 SWAP1 PUSH2 0x1C55 JUMP JUMPDEST PUSH1 0x40 MLOAD DUP1 SWAP2 SUB SWAP1 REVERT JUMPDEST PUSH1 0x0 PUSH20 0xFFFFFFFFFFFFFFFFFFFFFFFFFFFFFFFFFFFFFFFF AND DUP3 PUSH20 0xFFFFFFFFFFFFFFFFFFFFFFFFFFFFFFFFFFFFFFFF AND SUB PUSH2 0xF80 JUMPI PUSH1 0x40 MLOAD PUSH32 0x8C379A000000000000000000000000000000000000000000000000000000000 DUP2 MSTORE PUSH1 0x4 ADD PUSH2 0xF77 SWAP1 PUSH2 0x1CC1 JUMP JUMPDEST PUSH1 0x40 MLOAD DUP1 SWAP2 SUB SWAP1 REVERT JUMPDEST DUP1 PUSH1 0x2 PUSH1 0x0 DUP6 PUSH20 0xFFFFFFFFFFFFFFFFFFFFFFFFFFFFFFFFFFFFFFFF AND PUSH20 0xFFFFFFFFFFFFFFFFFFFFFFFFFFFFFFFFFFFFFFFF AND DUP2 MSTORE PUSH1 0x20 ADD SWAP1 DUP2 MSTORE PUSH1 0x20 ADD PUSH1 0x0 KECCAK256 SLOAD LT ISZERO PUSH2 0x1002 JUMPI PUSH1 0x40 MLOAD PUSH32 0x8C379A000000000000000000000000000000000000000000000000000000000 DUP2 MSTORE PUSH1 0x4 ADD PUSH2 0xFF9 SWAP1 PUSH2 0x1D2D JUMP JUMPDEST PUSH1 0x40 MLOAD DUP1 SWAP2 SUB SWAP1 REVERT JUMPDEST DUP1 PUSH1 0x2 PUSH1 0x0 DUP6 PUSH20 0xFFFFFFFFFFFFFFFFFFFFFFFFFFFFFFFFFFFFFFFF AND PUSH20 0xFFFFFFFFFFFFFFFFFFFFFFFFFFFFFFFFFFFFFFFF AND DUP2 MSTORE PUSH1 0x20 ADD SWAP1 DUP2 MSTORE PUSH1 0x20 ADD PUSH1 0x0 KECCAK256 PUSH1 0x0 DUP3 DUP3 SLOAD PUSH2 0x1051 SWAP2 SWAP1 PUSH2 0x17EA JUMP JUMPDEST SWAP3 POP POP DUP2 SWAP1 SSTORE POP DUP1 PUSH1 0x2 PUSH1 0x0 DUP5 PUSH20 0xFFFFFFFFFFFFFFFFFFFFFFFFFFFFFFFFFFFFFFFF AND PUSH20 0xFFFFFFFFFFFFFFFFFFFFFFFFFFFFFFFFFFFFFFFF AND DUP2 MSTORE PUSH1 0x20 ADD SWAP1 DUP2 MSTORE PUSH1 0x20 ADD PUSH1 0x0 KECCAK256 PUSH1 0x0 DUP3 DUP3 SLOAD PUSH2 0x10A7 SWAP2 SWAP1 PUSH2 0x1D4D JUMP JUMPDEST SWAP3 POP POP DUP2 SWAP1 SSTORE POP DUP2 PUSH20 0xFFFFFFFFFFFFFFFFFFFFFFFFFFFFFFFFFFFFFFFF AND DUP4 PUSH20 0xFFFFFFFFFFFFFFFFFFFFFFFFFFFFFFFFFFFFFFFF AND PUSH32 0xDDF252AD1BE2C89B69C2B068FC378DAA952BA7F163C4A11628F55A4DF523B3EF DUP4 PUSH1 0x40 MLOAD PUSH2 0x110B SWAP2 SWAP1 PUSH2 0x147D JUMP JUMPDEST PUSH1 0x40 MLOAD DUP1 SWAP2 SUB SWAP1 LOG3 POP POP POP JUMP JUMPDEST PUSH1 0x0 PUSH20 0xFFFFFFFFFFFFFFFFFFFFFFFFFFFFFFFFFFFFFFFF AND DUP3 PUSH20 0xFFFFFFFFFFFFFFFFFFFFFFFFFFFFFFFFFFFFFFFF AND SUB PUSH2 0x1187 JUMPI PUSH1 0x40 MLOAD PUSH32 0x8C379A000000000000000000000000000000000000000000000000000000000 DUP2 MSTORE PUSH1 0x4 ADD PUSH2 0x117E SWAP1 PUSH2 0x1DCD JUMP JUMPDEST PUSH1 0x40 MLOAD DUP1 SWAP2 SUB SWAP1 REVERT JUMPDEST DUP1 PUSH1 0x0 DUP1 DUP3 DUP3 SLOAD PUSH2 0x1198 SWAP2 SWAP1 PUSH2 0x1D4D JUMP JUMPDEST SWAP3 POP POP DUP2 SWAP1 SSTORE POP DUP1 PUSH1 0x2 PUSH1 0x0 DUP5 PUSH20 0xFFFFFFFFFFFFFFFFFFFFFFFFFFFFFFFFFFFFFFFF AND PUSH20 0xFFFFFFFFFFFFFFFFFFFFFFFFFFFFFFFFFFFFFFFF AND DUP2 MSTORE PUSH1 0x20 ADD SWAP1 DUP2 MSTORE PUSH1 0x20 ADD PUSH1 0x0 KECCAK256 PUSH1 0x0 DUP3 DUP3 SLOAD PUSH2 0x11EE SWAP2 SWAP1 PUSH2 0x1D4D JUMP JUMPDEST SWAP3 POP POP DUP2 SWAP1 SSTORE POP DUP2 PUSH20 0xFFFFFFFFFFFFFFFFFFFFFFFFFFFFFFFFFFFFFFFF AND PUSH1 0x0 PUSH20 0xFFFFFFFFFFFFFFFFFFFFFFFFFFFFFFFFFFFFFFFF AND PUSH32 0xDDF252AD1BE2C89B69C2B068FC378DAA952BA7F163C4A11628F55A4DF523B3EF DUP4 PUSH1 0x40 MLOAD PUSH2 0x1253 SWAP2 SWAP1 PUSH2 0x147D JUMP JUMPDEST PUSH1 0x40 MLOAD DUP1 SWAP2 SUB SWAP1 LOG3 DUP2 PUSH20 0xFFFFFFFFFFFFFFFFFFFFFFFFFFFFFFFFFFFFFFFF AND PUSH32 0xF6798A560793A54C3BCFE86A93CDE1E73087D944C0EA20544137D4121396885 DUP3 PUSH1 0x40 MLOAD PUSH2 0x12A1 SWAP2 SWAP1 PUSH2 0x147D JUMP JUMPDEST PUSH1 0x40 MLOAD DUP1 SWAP2 SUB SWAP1 LOG2 POP POP JUMP JUMPDEST PUSH1 0x0 DUP2 MLOAD SWAP1 POP SWAP2 SWAP1 POP JUMP JUMPDEST PUSH1 0x0 DUP3 DUP3 MSTORE PUSH1 0x20 DUP3 ADD SWAP1 POP SWAP3 SWAP2 POP POP JUMP JUMPDEST PUSH1 0x0 JUMPDEST DUP4 DUP2 LT ISZERO PUSH2 0x12E7 JUMPI DUP1 DUP3 ADD MLOAD DUP2 DUP5 ADD MSTORE PUSH1 0x20 DUP2 ADD SWAP1 POP PUSH2 0x12CC JUMP JUMPDEST PUSH1 0x0 DUP5 DUP5 ADD MSTORE POP POP POP POP JUMP JUMPDEST PUSH1 0x0 PUSH1 0x1F NOT PUSH1 0x1F DUP4 ADD AND SWAP1 POP SWAP2 SWAP1 POP JUMP JUMPDEST PUSH1 0x0 PUSH2 0x130F DUP3 PUSH2 0x12AD JUMP JUMPDEST PUSH2 0x1319 DUP2 DUP6 PUSH2 0x12B8 JUMP JUMPDEST SWAP4 POP PUSH2 0x1329 DUP2 DUP6 PUSH1 0x20 DUP7 ADD PUSH2 0x12C9 JUMP JUMPDEST PUSH2 0x1332 DUP2 PUSH2 0x12F3 JUMP JUMPDEST DUP5 ADD SWAP2 POP POP SWAP3 SWAP2 POP POP JUMP JUMPDEST PUSH1 0x0 PUSH1 0x20 DUP3 ADD SWAP1 POP DUP2 DUP2 SUB PUSH1 0x0 DUP4 ADD MSTORE PUSH2 0x1357 DUP2 DUP5 PUSH2 0x1304 JUMP JUMPDEST SWAP1 POP SWAP3 SWAP2 POP POP JUMP JUMPDEST PUSH1 0x0 DUP1 REVERT JUMPDEST PUSH1 0x0 PUSH20 0xFFFFFFFFFFFFFFFFFFFFFFFFFFFFFFFFFFFFFFFF DUP3 AND SWAP1 POP SWAP2 SWAP1 POP JUMP JUMPDEST PUSH1 0x0 PUSH2 0x138F DUP3 PUSH2 0x1364 JUMP JUMPDEST SWAP1 POP SWAP2 SWAP1 POP JUMP JUMPDEST PUSH2 0x139F DUP2 PUSH2 0x1384 JUMP JUMPDEST DUP2 EQ PUSH2 0x13AA JUMPI PUSH1 0x0 DUP1 REVERT JUMPDEST POP JUMP JUMPDEST PUSH1 0x0 DUP2 CALLDATALOAD SWAP1 POP PUSH2 0x13BC DUP2 PUSH2 0x1396 JUMP JUMPDEST SWAP3 SWAP2 POP POP JUMP JUMPDEST PUSH1 0x0 DUP2 SWAP1 POP SWAP2 SWAP1 POP JUMP JUMPDEST PUSH2 0x13D5 DUP2 PUSH2 0x13C2 JUMP JUMPDEST DUP2 EQ PUSH2 0x13E0 JUMPI PUSH1 0x0 DUP1 REVERT JUMPDEST POP JUMP JUMPDEST PUSH1 0x0 DUP2 CALLDATALOAD SWAP1 POP PUSH2 0x13F2 DUP2 PUSH2 0x13CC JUMP JUMPDEST SWAP3 SWAP2 POP POP JUMP JUMPDEST PUSH1 0x0 DUP1 PUSH1 0x40 DUP4 DUP6 SUB SLT ISZERO PUSH2 0x140F JUMPI PUSH2 0x140E PUSH2 0x135F JUMP JUMPDEST JUMPDEST PUSH1 0x0 PUSH2 0x141D DUP6 DUP3 DUP7 ADD PUSH2 0x13AD JUMP JUMPDEST SWAP3 POP POP PUSH1 0x20 PUSH2 0x142E DUP6 DUP3 DUP7 ADD PUSH2 0x13E3 JUMP JUMPDEST SWAP2 POP POP SWAP3 POP SWAP3 SWAP1 POP JUMP JUMPDEST PUSH1 0x0 DUP2 ISZERO ISZERO SWAP1 POP SWAP2 SWAP1 POP JUMP JUMPDEST PUSH2 0x144D DUP2 PUSH2 0x1438 JUMP JUMPDEST DUP3 MSTORE POP POP JUMP JUMPDEST PUSH1 0x0 PUSH1 0x20 DUP3 ADD SWAP1 POP PUSH2 0x1468 PUSH1 0x0 DUP4 ADD DUP5 PUSH2 0x1444 JUMP JUMPDEST SWAP3 SWAP2 POP POP JUMP JUMPDEST PUSH2 0x1477 DUP2 PUSH2 0x13C2 JUMP JUMPDEST DUP3 MSTORE POP POP JUMP JUMPDEST PUSH1 0x0 PUSH1 0x20 DUP3 ADD SWAP1 POP PUSH2 0x1492 PUSH1 0x0 DUP4 ADD DUP5 PUSH2 0x146E JUMP JUMPDEST SWAP3 SWAP2 POP POP JUMP JUMPDEST PUSH1 0x0 DUP1 PUSH1 0x0 PUSH1 0x60 DUP5 DUP7 SUB SLT ISZERO PUSH2 0x14B1 JUMPI PUSH2 0x14B0 PUSH2 0x135F JUMP JUMPDEST JUMPDEST PUSH1 0x0 PUSH2 0x14BF DUP7 DUP3 DUP8 ADD PUSH2 0x13AD JUMP JUMPDEST SWAP4 POP POP PUSH1 0x20 PUSH2 0x14D0 DUP7 DUP3 DUP8 ADD PUSH2 0x13AD JUMP JUMPDEST SWAP3 POP POP PUSH1 0x40 PUSH2 0x14E1 DUP7 DUP3 DUP8 ADD PUSH2 0x13E3 JUMP JUMPDEST SWAP2 POP POP SWAP3 POP SWAP3 POP SWAP3 JUMP JUMPDEST PUSH1 0x0 PUSH1 0xFF DUP3 AND SWAP1 POP SWAP2 SWAP1 POP JUMP JUMPDEST PUSH2 0x1501 DUP2 PUSH2 0x14EB JUMP JUMPDEST DUP3 MSTORE POP POP JUMP JUMPDEST PUSH1 0x0 PUSH1 0x20 DUP3 ADD SWAP1 POP PUSH2 0x151C PUSH1 0x0 DUP4 ADD DUP5 PUSH2 0x14F8 JUMP JUMPDEST SWAP3 SWAP2 POP POP JUMP JUMPDEST PUSH1 0x0 DUP2 SWAP1 POP SWAP2 SWAP1 POP JUMP JUMPDEST PUSH2 0x1535 DUP2 PUSH2 0x1522 JUMP JUMPDEST DUP3 MSTORE POP POP JUMP JUMPDEST PUSH1 0x0 PUSH1 0x20 DUP3 ADD SWAP1 POP PUSH2 0x1550 PUSH1 0x0 DUP4 ADD DUP5 PUSH2 0x152C JUMP JUMPDEST SWAP3 SWAP2 POP POP JUMP JUMPDEST PUSH1 0x0 PUSH1 0x20 DUP3 DUP5 SUB SLT ISZERO PUSH2 0x156C JUMPI PUSH2 0x156B PUSH2 0x135F JUMP JUMPDEST JUMPDEST PUSH1 0x0 PUSH2 0x157A DUP5 DUP3 DUP6 ADD PUSH2 0x13AD JUMP JUMPDEST SWAP2 POP POP SWAP3 SWAP2 POP POP JUMP JUMPDEST PUSH2 0x158C DUP2 PUSH2 0x1384 JUMP JUMPDEST DUP3 MSTORE POP POP JUMP JUMPDEST PUSH1 0x0 PUSH1 0x20 DUP3 ADD SWAP1 POP PUSH2 0x15A7 PUSH1 0x0 DUP4 ADD DUP5 PUSH2 0x1583 JUMP JUMPDEST SWAP3 SWAP2 POP POP JUMP JUMPDEST PUSH1 0x0 DUP1 PUSH1 0x40 DUP4 DUP6 SUB SLT ISZERO PUSH2 0x15C4 JUMPI PUSH2 0x15C3 PUSH2 0x135F JUMP JUMPDEST JUMPDEST PUSH1 0x0 PUSH2 0x15D2 DUP6 DUP3 DUP7 ADD PUSH2 0x13AD JUMP JUMPDEST SWAP3 POP POP PUSH1 0x20 PUSH2 0x15E3 DUP6 DUP3 DUP7 ADD PUSH2 0x13AD JUMP JUMPDEST SWAP2 POP POP SWAP3 POP SWAP3 SWAP1 POP JUMP JUMPDEST PUSH2 0x15F6 DUP2 PUSH2 0x1522 JUMP JUMPDEST DUP2 EQ PUSH2 0x1601 JUMPI PUSH1 0x0 DUP1 REVERT JUMPDEST POP JUMP JUMPDEST PUSH1 0x0 DUP2 CALLDATALOAD SWAP1 POP PUSH2 0x1613 DUP2 PUSH2 0x15ED JUMP JUMPDEST SWAP3 SWAP2 POP POP JUMP JUMPDEST PUSH2 0x1622 DUP2 PUSH2 0x14EB JUMP JUMPDEST DUP2 EQ PUSH2 0x162D JUMPI PUSH1 0x0 DUP1 REVERT JUMPDEST POP JUMP JUMPDEST PUSH1 0x0 DUP2 CALLDATALOAD SWAP1 POP PUSH2 0x163F DUP2 PUSH2 0x1619 JUMP JUMPDEST SWAP3 SWAP2 POP POP JUMP JUMPDEST PUSH1 0x0 DUP1 PUSH1 0x0 DUP1 PUSH1 0x0 DUP1 PUSH1 0x0 DUP1 PUSH1 0x0 PUSH2 0x120 DUP11 DUP13 SUB SLT ISZERO PUSH2 0x1668 JUMPI PUSH2 0x1667 PUSH2 0x135F JUMP JUMPDEST JUMPDEST PUSH1 0x0 PUSH2 0x1676 DUP13 DUP3 DUP14 ADD PUSH2 0x13AD JUMP JUMPDEST SWAP10 POP POP PUSH1 0x20 PUSH2 0x1687 DUP13 DUP3 DUP14 ADD PUSH2 0x13AD JUMP JUMPDEST SWAP9 POP POP PUSH1 0x40 PUSH2 0x1698 DUP13 DUP3 DUP14 ADD PUSH2 0x13E3 JUMP JUMPDEST SWAP8 POP POP PUSH1 0x60 PUSH2 0x16A9 DUP13 DUP3 DUP14 ADD PUSH2 0x13E3 JUMP JUMPDEST SWAP7 POP POP PUSH1 0x80 PUSH2 0x16BA DUP13 DUP3 DUP14 ADD PUSH2 0x13E3 JUMP JUMPDEST SWAP6 POP POP PUSH1 0xA0 PUSH2 0x16CB DUP13 DUP3 DUP14 ADD PUSH2 0x1604 JUMP JUMPDEST SWAP5 POP POP PUSH1 0xC0 PUSH2 0x16DC DUP13 DUP3 DUP14 ADD PUSH2 0x1630 JUMP JUMPDEST SWAP4 POP POP PUSH1 0xE0 PUSH2 0x16ED DUP13 DUP3 DUP14 ADD PUSH2 0x1604 JUMP JUMPDEST SWAP3 POP POP PUSH2 0x100 PUSH2 0x16FF DUP13 DUP3 DUP14 ADD PUSH2 0x1604 JUMP JUMPDEST SWAP2 POP POP SWAP3 SWAP6 SWAP9 POP SWAP3 SWAP6 SWAP9 POP SWAP3 SWAP6 SWAP9 JUMP JUMPDEST PUSH1 0x0 DUP1 PUSH1 0x40 DUP4 DUP6 SUB SLT ISZERO PUSH2 0x1726 JUMPI PUSH2 0x1725 PUSH2 0x135F JUMP JUMPDEST JUMPDEST PUSH1 0x0 PUSH2 0x1734 DUP6 DUP3 DUP7 ADD PUSH2 0x13AD JUMP JUMPDEST SWAP3 POP POP PUSH1 0x20 PUSH2 0x1745 DUP6 DUP3 DUP7 ADD PUSH2 0x1604 JUMP JUMPDEST SWAP2 POP POP SWAP3 POP SWAP3 SWAP1 POP JUMP JUMPDEST PUSH32 0x496E73756666696369656E7420616C6C6F77616E636500000000000000000000 PUSH1 0x0 DUP3 ADD MSTORE POP JUMP JUMPDEST PUSH1 0x0 PUSH2 0x1785 PUSH1 0x16 DUP4 PUSH2 0x12B8 JUMP JUMPDEST SWAP2 POP PUSH2 0x1790 DUP3 PUSH2 0x174F JUMP JUMPDEST PUSH1 0x20 DUP3 ADD SWAP1 POP SWAP2 SWAP1 POP JUMP JUMPDEST PUSH1 0x0 PUSH1 0x20 DUP3 ADD SWAP1 POP DUP2 DUP2 SUB PUSH1 0x0 DUP4 ADD MSTORE PUSH2 0x17B4 DUP2 PUSH2 0x1778 JUMP JUMPDEST SWAP1 POP SWAP2 SWAP1 POP JUMP JUMPDEST PUSH32 0x4E487B7100000000000000000000000000000000000000000000000000000000 PUSH1 0x0 MSTORE PUSH1 0x11 PUSH1 0x4 MSTORE PUSH1 0x24 PUSH1 0x0 REVERT JUMPDEST PUSH1 0x0 PUSH2 0x17F5 DUP3 PUSH2 0x13C2 JUMP JUMPDEST SWAP2 POP PUSH2 0x1800 DUP4 PUSH2 0x13C2 JUMP JUMPDEST SWAP3 POP DUP3 DUP3 SUB SWAP1 POP DUP2 DUP2 GT ISZERO PUSH2 0x1818 JUMPI PUSH2 0x1817 PUSH2 0x17BB JUMP JUMPDEST JUMPDEST SWAP3 SWAP2 POP POP JUMP JUMPDEST PUSH32 0x4E6F74206F776E65720000000000000000000000000000000000000000000000 PUSH1 0x0 DUP3 ADD MSTORE POP JUMP JUMPDEST PUSH1 0x0 PUSH2 0x1854 PUSH1 0x9 DUP4 PUSH2 0x12B8 JUMP JUMPDEST SWAP2 POP PUSH2 0x185F DUP3 PUSH2 0x181E JUMP JUMPDEST PUSH1 0x20 DUP3 ADD SWAP1 POP SWAP2 SWAP1 POP JUMP JUMPDEST PUSH1 0x0 PUSH1 0x20 DUP3 ADD SWAP1 POP DUP2 DUP2 SUB PUSH1 0x0 DUP4 ADD MSTORE PUSH2 0x1883 DUP2 PUSH2 0x1847 JUMP JUMPDEST SWAP1 POP SWAP2 SWAP1 POP JUMP JUMPDEST PUSH32 0x417574686F72697A6174696F6E206E6F74207965742076616C69640000000000 PUSH1 0x0 DUP3 ADD MSTORE POP JUMP JUMPDEST PUSH1 0x0 PUSH2 0x18C0 PUSH1 0x1B DUP4 PUSH2 0x12B8 JUMP JUMPDEST SWAP2 POP PUSH2 0x18CB DUP3 PUSH2 0x188A JUMP JUMPDEST PUSH1 0x20 DUP3 ADD SWAP1 POP SWAP2 SWAP1 POP JUMP JUMPDEST PUSH1 0x0 PUSH1 0x20 DUP3 ADD SWAP1 POP DUP2 DUP2 SUB PUSH1 0x0 DUP4 ADD MSTORE PUSH2 0x18EF DUP2 PUSH2 0x18B3 JUMP JUMPDEST SWAP1 POP SWAP2 SWAP1 POP JUMP JUMPDEST PUSH32 0x417574686F72697A6174696F6E20657870697265640000000000000000000000 PUSH1 0x0 DUP3 ADD MSTORE POP JUMP JUMPDEST PUSH1 0x0 PUSH2 0x192C PUSH1 0x15 DUP4 PUSH2 0x12B8 JUMP JUMPDEST SWAP2 POP PUSH2 0x1937 DUP3 PUSH2 0x18F6 JUMP JUMPDEST PUSH1 0x20 DUP3 ADD SWAP1 POP SWAP2 SWAP1 POP JUMP JUMPDEST PUSH1 0x0 PUSH1 0x20 DUP3 ADD SWAP1 POP DUP2 DUP2 SUB PUSH1 0x0 DUP4 ADD MSTORE PUSH2 0x195B DUP2 PUSH2 0x191F JUMP JUMPDEST SWAP1 POP SWAP2 SWAP1 POP JUMP JUMPDEST PUSH32 0x417574686F72697A6174696F6E20616C72656164792075736564000000000000 PUSH1 0x0 DUP3 ADD MSTORE POP JUMP JUMPDEST PUSH1 0x0 PUSH2 0x1998 PUSH1 0x1A DUP4 PUSH2 0x12B8 JUMP JUMPDEST SWAP2 POP PUSH2 0x19A3 DUP3 PUSH2 0x1962 JUMP JUMPDEST PUSH1 0x20 DUP3 ADD SWAP1 POP SWAP2 SWAP1 POP JUMP JUMPDEST PUSH1 0x0 PUSH1 0x20 DUP3 ADD SWAP1 POP DUP2 DUP2 SUB PUSH1 0x0 DUP4 ADD MSTORE PUSH2 0x19C7 DUP2 PUSH2 0x198B JUMP JUMPDEST SWAP1 POP SWAP2 SWAP1 POP JUMP JUMPDEST PUSH1 0x0 PUSH1 0xE0 DUP3 ADD SWAP1 POP PUSH2 0x19E3 PUSH1 0x0 DUP4 ADD DUP11 PUSH2 0x152C JUMP JUMPDEST PUSH2 0x19F0 PUSH1 0x20 DUP4 ADD DUP10 PUSH2 0x1583 JUMP JUMPDEST PUSH2 0x19FD PUSH1 0x40 DUP4 ADD DUP9 PUSH2 0x1583 JUMP JUMPDEST PUSH2 0x1A0A PUSH1 0x60 DUP4 ADD DUP8 PUSH2 0x146E JUMP JUMPDEST PUSH2 0x1A17 PUSH1 0x80 DUP4 ADD DUP7 PUSH2 0x146E JUMP JUMPDEST PUSH2 0x1A24 PUSH1 0xA0 DUP4 ADD DUP6 PUSH2 0x146E JUMP JUMPDEST PUSH2 0x1A31 PUSH1 0xC0 DUP4 ADD DUP5 PUSH2 0x152C JUMP JUMPDEST SWAP9 SWAP8 POP POP POP POP POP POP POP POP JUMP JUMPDEST PUSH1 0x0 DUP2 SWAP1 POP SWAP3 SWAP2 POP POP JUMP JUMPDEST PUSH32 0x1901000000000000000000000000000000000000000000000000000000000000 PUSH1 0x0 DUP3 ADD MSTORE POP JUMP JUMPDEST PUSH1 0x0 PUSH2 0x1A7E PUSH1 0x2 DUP4 PUSH2 0x1A3D JUMP JUMPDEST SWAP2 POP PUSH2 0x1A89 DUP3 PUSH2 0x1A48 JUMP JUMPDEST PUSH1 0x2 DUP3 ADD SWAP1 POP SWAP2 SWAP1 POP JUMP JUMPDEST PUSH1 0x0 DUP2 SWAP1 POP SWAP2 SWAP1 POP JUMP JUMPDEST PUSH2 0x1AAF PUSH2 0x1AAA DUP3 PUSH2 0x1522 JUMP JUMPDEST PUSH2 0x1A94 JUMP JUMPDEST DUP3 MSTORE POP POP JUMP JUMPDEST PUSH1 0x0 PUSH2 0x1AC0 DUP3 PUSH2 0x1A71 JUMP JUMPDEST SWAP2 POP PUSH2 0x1ACC DUP3 DUP6 PUSH2 0x1A9E JUMP JUMPDEST PUSH1 0x20 DUP3 ADD SWAP2 POP PUSH2 0x1ADC DUP3 DUP5 PUSH2 0x1A9E JUMP JUMPDEST PUSH1 0x20 DUP3 ADD SWAP2 POP DUP2 SWAP1 POP SWAP4 SWAP3 POP POP POP JUMP JUMPDEST PUSH1 0x0 PUSH1 0x80 DUP3 ADD SWAP1 POP PUSH2 0x1B01 PUSH1 0x0 DUP4 ADD DUP8 PUSH2 0x152C JUMP JUMPDEST PUSH2 0x1B0E PUSH1 0x20 DUP4 ADD DUP7 PUSH2 0x14F8 JUMP JUMPDEST PUSH2 0x1B1B PUSH1 0x40 DUP4 ADD DUP6 PUSH2 0x152C JUMP JUMPDEST PUSH2 0x1B28 PUSH1 0x60 DUP4 ADD DUP5 PUSH2 0x152C JUMP JUMPDEST SWAP6 SWAP5 POP POP POP POP POP JUMP JUMPDEST PUSH32 0x496E76616C6964207369676E6174757265000000000000000000000000000000 PUSH1 0x0 DUP3 ADD MSTORE POP JUMP JUMPDEST PUSH1 0x0 PUSH2 0x1B67 PUSH1 0x11 DUP4 PUSH2 0x12B8 JUMP JUMPDEST SWAP2 POP PUSH2 0x1B72 DUP3 PUSH2 0x1B31 JUMP JUMPDEST PUSH1 0x20 DUP3 ADD SWAP1 POP SWAP2 SWAP1 POP JUMP JUMPDEST PUSH1 0x0 PUSH1 0x20 DUP3 ADD SWAP1 POP DUP2 DUP2 SUB PUSH1 0x0 DUP4 ADD MSTORE PUSH2 0x1B96 DUP2 PUSH2 0x1B5A JUMP JUMPDEST SWAP1 POP SWAP2 SWAP1 POP JUMP JUMPDEST PUSH32 0x43616C6C6572206D75737420626520726563697069656E740000000000000000 PUSH1 0x0 DUP3 ADD MSTORE POP JUMP JUMPDEST PUSH1 0x0 PUSH2 0x1BD3 PUSH1 0x18 DUP4 PUSH2 0x12B8 JUMP JUMPDEST SWAP2 POP PUSH2 0x1BDE DUP3 PUSH2 0x1B9D JUMP JUMPDEST PUSH1 0x20 DUP3 ADD SWAP1 POP SWAP2 SWAP1 POP JUMP JUMPDEST PUSH1 0x0 PUSH1 0x20 DUP3 ADD SWAP1 POP DUP2 DUP2 SUB PUSH1 0x0 DUP4 ADD MSTORE PUSH2 0x1C02 DUP2 PUSH2 0x1BC6 JUMP JUMPDEST SWAP1 POP SWAP2 SWAP1 POP JUMP JUMPDEST PUSH32 0x5472616E736665722066726F6D207A65726F2061646472657373000000000000 PUSH1 0x0 DUP3 ADD MSTORE POP JUMP JUMPDEST PUSH1 0x0 PUSH2 0x1C3F PUSH1 0x1A DUP4 PUSH2 0x12B8 JUMP JUMPDEST SWAP2 POP PUSH2 0x1C4A DUP3 PUSH2 0x1C09 JUMP JUMPDEST PUSH1 0x20 DUP3 ADD SWAP1 POP SWAP2 SWAP1 POP JUMP JUMPDEST PUSH1 0x0 PUSH1 0x20 DUP3 ADD SWAP1 POP DUP2 DUP2 SUB PUSH1 0x0 DUP4 ADD MSTORE PUSH2 0x1C6E DUP2 PUSH2 0x1C32 JUMP JUMPDEST SWAP1 POP SWAP2 SWAP1 POP JUMP JUMPDEST PUSH32 0x5472616E7366657220746F207A65726F20616464726573730000000000000000 PUSH1 0x0 DUP3 ADD MSTORE POP JUMP JUMPDEST PUSH1 0x0 PUSH2 0x1CAB PUSH1 0x18 DUP4 PUSH2 0x12B8 JUMP JUMPDEST SWAP2 POP PUSH2 0x1CB6 DUP3 PUSH2 0x1C75 JUMP JUMPDEST PUSH1 0x20 DUP3 ADD SWAP1 POP SWAP2 SWAP1 POP JUMP JUMPDEST PUSH1 0x0 PUSH1 0x20 DUP3 ADD SWAP1 POP DUP2 DUP2 SUB PUSH1 0x0 DUP4 ADD MSTORE PUSH2 0x1CDA DUP2 PUSH2 0x1C9E JUMP JUMPDEST SWAP1 POP SWAP2 SWAP1 POP JUMP JUMPDEST PUSH32 0x496E73756666696369656E742062616C616E6365000000000000000000000000 PUSH1 0x0 DUP3 ADD MSTORE POP JUMP JUMPDEST PUSH1 0x0 PUSH2 0x1D17 PUSH1 0x14 DUP4 PUSH2 0x12B8 JUMP JUMPDEST SWAP2 POP PUSH2 0x1D22 DUP3 PUSH2 0x1CE1 JUMP JUMPDEST PUSH1 0x20 DUP3 ADD SWAP1 POP SWAP2 SWAP1 POP JUMP JUMPDEST PUSH1 0x0 PUSH1 0x20 DUP3 ADD SWAP1 POP DUP2 DUP2 SUB PUSH1 0x0 DUP4 ADD MSTORE PUSH2 0x1D46 DUP2 PUSH2 0x1D0A JUMP JUMPDEST SWAP1 POP SWAP2 SWAP1 POP JUMP JUMPDEST PUSH1 0x0 PUSH2 0x1D58 DUP3 PUSH2 0x13C2 JUMP JUMPDEST SWAP2 POP PUSH2 0x1D63 DUP4 PUSH2 0x13C2 JUMP JUMPDEST SWAP3 POP DUP3 DUP3 ADD SWAP1 POP DUP1 DUP3 GT ISZERO PUSH2 0x1D7B JUMPI PUSH2 0x1D7A PUSH2 0x17BB JUMP JUMPDEST JUMPDEST SWAP3 SWAP2 POP POP JUMP JUMPDEST PUSH32 0x4D696E7420746F207A65726F2061646472657373000000000000000000000000 PUSH1 0x0 DUP3 ADD MSTORE POP JUMP JUMPDEST PUSH1 0x0 PUSH2 0x1DB7 PUSH1 0x14 DUP4 PUSH2 0x12B8 JUMP JUMPDEST SWAP2 POP PUSH2 0x1DC2 DUP3 PUSH2 0x1D81 JUMP JUMPDEST PUSH1 0x20 DUP3 ADD SWAP1 POP SWAP2 SWAP1 POP JUMP JUMPDEST PUSH1 0x0 PUSH1 0x20 DUP3 ADD SWAP1 POP DUP2 DUP2 SUB PUSH1 0x0 DUP4 ADD MSTORE PUSH2 0x1DE6 DUP2 PUSH2 0x1DAA JUMP JUMPDEST SWAP1 POP SWAP2 SWAP1 POP JUMP INVALID LOG2 PUSH5 0x6970667358 0x22 SLT KECCAK256 0xCD DUP16 JUMPI PUSH12 0xD788246F698BD6DF27B9D4E9 0xAA SWAP5 SHR 0x4A 0xD5 BYTE SWAP13 ADD ISZERO 0x2C 0xE9 DUP16 DELEGATECALL 0xEF PUSH18 0xA064736F6C63430008140033000000000000 "},"methodIdentifiers":{"DOMAIN_SEPARATOR()":"3644e515","RECEIVE_WITH_AUTHORIZATION_TYPEHASH()":"7f2eecc3","TRANSFER_WITH_AUTHORIZATION_TYPEHASH()":"a0cc6a68","allowance(address,address)":"dd62ed3e","approve(address,uint256)":"095ea7b3","authorizationState(address,bytes32)":"e94a0102","balanceOf(address)":"70a08231","decimals()":"313ce567","mint(address,uint256)":"40c10f19","name()":"06fdde03","owner()":"8da5cb5b","receiveWithAuthorization(address,address,uint256,uint256,uint256,bytes32,uint8,bytes32,bytes32)":"ef55bec6","symbol()":"95d89b41","totalSupply()":"18160ddd","transfer(address,uint256)":"a9059cbb","transferFrom(address,address,uint256)":"23b872dd","transferWithAuthorization(address,address,uint256,uint256,uint256,bytes32,uint8,bytes32,bytes32)":"e3ee160e"}}}}}