{"contracts/VerifierV1.sol":{"VerifierV1":{"abi":[{"inputs":[{"internalType":"bytes32","name":"schemaHash","type":"bytes32"},{"components":[{"internalType":"enum VerifierV1.ConstraintType","name":"constraintType","type":"uint8"},{"internalType":"bytes32","name":"fieldKey","type":"bytes32"},{"internalType":"int256","name":"minValue","type":"int256"},{"internalType":"int256","name":"maxValue","type":"int256"},{"internalType":"int256","name":"expectedValue","type":"int256"},{"internalType":"bytes32","name":"expectedHash","type":"bytes32"},{"internalType":"bytes32[]","name":"enumMembers","type":"bytes32[]"}],"internalType":"struct VerifierV1.Constraint[]","name":"constraints","type":"tuple[]"}],"name":"hashSpec","outputs":[{"internalType":"bytes32","name":"","type":"bytes32"}],"stateMutability":"pure","type":"function"},{"inputs":[{"components":[{"internalType":"bytes32","name":"fieldKey","type":"bytes32"},{"internalType":"bool","name":"exists","type":"bool"},{"internalType":"int256","name":"intValue","type":"int256"},{"internalType":"bytes32","name":"hashValue","type":"bytes32"},{"internalType":"address","name":"addrValue","type":"address"},{"internalType":"bool","name":"boolValue","type":"bool"},{"internalType":"uint8","name":"valueType","type":"uint8"}],"internalType":"struct VerifierV1.FieldValue[]","name":"fields","type":"tuple[]"},{"components":[{"internalType":"enum VerifierV1.ConstraintType","name":"constraintType","type":"uint8"},{"internalType":"bytes32","name":"fieldKey","type":"bytes32"},{"internalType":"int256","name":"minValue","type":"int256"},{"internalType":"int256","name":"maxValue","type":"int256"},{"internalType":"int256","name":"expectedValue","type":"int256"},{"internalType":"bytes32","name":"expectedHash","type":"bytes32"},{"internalType":"bytes32[]","name":"enumMembers","type":"bytes32[]"}],"internalType":"struct VerifierV1.Constraint[]","name":"constraints","type":"tuple[]"},{"internalType":"uint256","name":"deadline","type":"uint256"}],"name":"verify","outputs":[{"internalType":"bool","name":"passed","type":"bool"},{"components":[{"internalType":"bytes32","name":"fieldKey","type":"bytes32"},{"internalType":"enum VerifierV1.ConstraintType","name":"constraintType","type":"uint8"},{"internalType":"bool","name":"passed","type":"bool"},{"internalType":"bytes32","name":"reason","type":"bytes32"}],"internalType":"struct VerifierV1.VerificationTrace[]","name":"trace","type":"tuple[]"}],"stateMutability":"view","type":"function"}],"evm":{"bytecode":{"linkReferences":{},"object":"608060405234801561001057600080fd5b50611da3806100206000396000f3fe608060405234801561001057600080fd5b50600436106100365760003560e01c8063389ad4491461003b578063cadee6af1461006c575b600080fd5b610055600480360381019061005091906112e2565b61009c565b604051610063929190611535565b60405180910390f35b61008660048036038101906100819190611591565b6101f2565b6040516100939190611600565b60405180910390f35b600060608484905067ffffffffffffffff8111156100bd576100bc61161b565b5b6040519080825280602002602001820160405280156100f657816020015b6100e361113b565b8152602001906001900390816100db5790505b5090506001915060005b858590508110156101e7573686868381811061011f5761011e61164a565b5b90506020028101906101319190611688565b90506000806101458b8b8560200135610228565b915091506000806101588585858c6102e6565b9150915060405180608001604052808660200135815260200186600001602081019061018491906116d5565b600a811115610196576101956113d7565b5b81526020018315158152602001828152508787815181106101ba576101b961164a565b5b6020026020010181905250816101cf57600097505b505050505080806101df90611731565b915050610100565b509550959350505050565b600083838360405160200161020993929190611a9e565b6040516020818303038152906040528051906020012090509392505050565b61023061117d565b600080600090505b858590508110156102b157838686838181106102575761025661164a565b5b905060e00201600001350361029e578585828181106102795761027861164a565b5b905060e002016001818036038101906102929190611ca9565b915092509250506102de565b80806102a990611731565b915050610238565b506102ba61117d565b83816000018181525050600081602001901515908115158152505080600092509250505b935093915050565b6000806000600a8111156102fd576102fc6113d7565b5b86600001602081019061031091906116d5565b600a811115610322576103216113d7565b5b03610391576000848015610337575085602001515b90508081610365577f4649454c445f4d495353494e4700000000000000000000000000000000000000610387565b7f4f4b0000000000000000000000000000000000000000000000000000000000005b9250925050611132565b8315806103a057508460200151155b156103d15760007f4649454c445f4d495353494e470000000000000000000000000000000000000091509150611132565b6001600a8111156103e5576103e46113d7565b5b8660000160208101906103f891906116d5565b600a81111561040a576104096113d7565b5b036106a85760006003811115610423576104226113d7565b5b60ff168560c0015160ff160361049a57600086608001358660400151149050808161046e577f455155414c535f4641494c000000000000000000000000000000000000000000610490565b7f4f4b0000000000000000000000000000000000000000000000000000000000005b9250925050611132565b600160038111156104ae576104ad6113d7565b5b60ff168560c0015160ff16036105255760008660a00135866060015114905080816104f9577f455155414c535f4641494c00000000000000000000000000000000000000000061051b565b7f4f4b0000000000000000000000000000000000000000000000000000000000005b9250925050611132565b60026003811115610539576105386113d7565b5b60ff168560c0015160ff16036105e55760008660a0013560001c905060008173ffffffffffffffffffffffffffffffffffffffff16876080015173ffffffffffffffffffffffffffffffffffffffff1614905080816105b8577f455155414c535f4641494c0000000000000000000000000000000000000000006105da565b7f4f4b0000000000000000000000000000000000000000000000000000000000005b935093505050611132565b6003808111156105f8576105f76113d7565b5b60ff168560c0015160ff160361067c5760008087608001351415905060008115158760a001511515149050808161064f577f455155414c535f4641494c000000000000000000000000000000000000000000610671565b7f4f4b0000000000000000000000000000000000000000000000000000000000005b935093505050611132565b60007f554e535550504f525445445f545950450000000000000000000000000000000091509150611132565b6002600a8111156106bc576106bb6113d7565b5b8660000160208101906106cf91906116d5565b600a8111156106e1576106e06113d7565b5b036107b257600060038111156106fa576106f96113d7565b5b60ff168560c0015160ff16146107365760007f545950455f4d49534d415443480000000000000000000000000000000000000091509150611132565b6000866040013586604001511215801561075857508660600135866040015113155b90508081610786577f52414e47455f4641494c000000000000000000000000000000000000000000006107a8565b7f4f4b0000000000000000000000000000000000000000000000000000000000005b9250925050611132565b6003600a8111156107c6576107c56113d7565b5b8660000160208101906107d991906116d5565b600a8111156107eb576107ea6113d7565b5b036108a75760016003811115610804576108036113d7565b5b60ff168560c0015160ff16146108405760007f545950455f4d49534d415443480000000000000000000000000000000000000091509150611132565b60008660a001358660600151149050808161087b577f484153485f4d49534d415443480000000000000000000000000000000000000061089d565b7f4f4b0000000000000000000000000000000000000000000000000000000000005b9250925050611132565b6004600a8111156108bb576108ba6113d7565b5b8660000160208101906108ce91906116d5565b600a8111156108e0576108df6113d7565b5b036109e457600060038111156108f9576108f86113d7565b5b60ff168560c0015160ff16146109355760007f545950455f4d49534d415443480000000000000000000000000000000000000091509150611132565b60008560400151121561096e5760007f494e56414c49445f54494d455354414d5000000000000000000000000000000091509150611132565b60008560400151905060008482111580156109895750844211155b905080816109b7577f444541444c494e455f4641494c000000000000000000000000000000000000006109d9565b7f4f4b0000000000000000000000000000000000000000000000000000000000005b935093505050611132565b6005600a8111156109f8576109f76113d7565b5b866000016020810190610a0b91906116d5565b600a811115610a1d57610a1c6113d7565b5b03610b0e5760026003811115610a3657610a356113d7565b5b60ff168560c0015160ff1614610a725760007f545950455f4d49534d415443480000000000000000000000000000000000000091509150611132565b60008660a0013560001c905060008173ffffffffffffffffffffffffffffffffffffffff16876080015173ffffffffffffffffffffffffffffffffffffffff161490508081610ae1577f5349474e45525f4d49534d415443480000000000000000000000000000000000610b03565b7f4f4b0000000000000000000000000000000000000000000000000000000000005b935093505050611132565b6006600a811115610b2257610b216113d7565b5b866000016020810190610b3591906116d5565b600a811115610b4757610b466113d7565b5b03610c575760016003811115610b6057610b5f6113d7565b5b60ff168560c0015160ff1614610b9c5760007f545950455f4d49534d415443480000000000000000000000000000000000000091509150611132565b60005b868060c00190610baf9190611cd6565b9050811015610c2a57868060c00190610bc89190611cd6565b82818110610bd957610bd861164a565b5b90506020020135866060015103610c175760017f4f4b0000000000000000000000000000000000000000000000000000000000009250925050611132565b8080610c2290611731565b915050610b9f565b5060007f4e4f545f494e5f454e554d00000000000000000000000000000000000000000091509150611132565b6007600a811115610c6b57610c6a6113d7565b5b866000016020810190610c7e91906116d5565b600a811115610c9057610c8f6113d7565b5b03610da35760006003811115610ca957610ca86113d7565b5b60ff168560c0015160ff1614610ce55760007f545950455f4d49534d415443480000000000000000000000000000000000000091509150611132565b600085604001511215610d1e5760007f494e56414c49445f54494d455354414d5000000000000000000000000000000091509150611132565b6000856040015190506000814210158015610d48575087608001358242610d459190611d39565b11155b90508081610d76577f5354414c455f4441544100000000000000000000000000000000000000000000610d98565b7f4f4b0000000000000000000000000000000000000000000000000000000000005b935093505050611132565b6008600a811115610db757610db66113d7565b5b866000016020810190610dca91906116d5565b600a811115610ddc57610ddb6113d7565b5b03610ead5760006003811115610df557610df46113d7565b5b60ff168560c0015160ff1614610e315760007f545950455f4d49534d415443480000000000000000000000000000000000000091509150611132565b60008660400135866040015112158015610e5357508660600135866040015113155b90508081610e81577f54494d455354414d505f57494e444f575f4641494c0000000000000000000000610ea3565b7f4f4b0000000000000000000000000000000000000000000000000000000000005b9250925050611132565b6009600a811115610ec157610ec06113d7565b5b866000016020810190610ed491906116d5565b600a811115610ee657610ee56113d7565b5b03610fa25760016003811115610eff57610efe6113d7565b5b60ff168560c0015160ff1614610f3b5760007f545950455f4d49534d415443480000000000000000000000000000000000000091509150611132565b60008660a0013586606001511490508081610f76577f4d45524b4c455f524f4f545f4d49534d41544348000000000000000000000000610f98565b7f4f4b0000000000000000000000000000000000000000000000000000000000005b9250925050611132565b600a80811115610fb557610fb46113d7565b5b866000016020810190610fc891906116d5565b600a811115610fda57610fd96113d7565b5b0361110a5760026003811115610ff357610ff26113d7565b5b60ff168560c0015160ff161461102f5760007f545950455f4d49534d415443480000000000000000000000000000000000000091509150611132565b6000856080015173ffffffffffffffffffffffffffffffffffffffff1660001b905060005b878060c001906110649190611cd6565b90508110156110dc57878060c0019061107d9190611cd6565b8281811061108e5761108d61164a565b5b9050602002013582036110c95760017f4f4b000000000000000000000000000000000000000000000000000000000000935093505050611132565b80806110d490611731565b915050611054565b5060007f5349474e45525f4e4f545f414c4c4f57454400000000000000000000000000009250925050611132565b60007f554e4b4e4f574e5f434f4e53545241494e540000000000000000000000000000915091505b94509492505050565b6040518060800160405280600080191681526020016000600a811115611164576111636113d7565b5b8152602001600015158152602001600080191681525090565b6040518060e00160405280600080191681526020016000151581526020016000815260200160008019168152602001600073ffffffffffffffffffffffffffffffffffffffff168152602001600015158152602001600060ff1681525090565b6000604051905090565b600080fd5b600080fd5b600080fd5b600080fd5b600080fd5b60008083601f840112611216576112156111f1565b5b8235905067ffffffffffffffff811115611233576112326111f6565b5b6020830191508360e082028301111561124f5761124e6111fb565b5b9250929050565b60008083601f84011261126c5761126b6111f1565b5b8235905067ffffffffffffffff811115611289576112886111f6565b5b6020830191508360208202830111156112a5576112a46111fb565b5b9250929050565b6000819050919050565b6112bf816112ac565b81146112ca57600080fd5b50565b6000813590506112dc816112b6565b92915050565b6000806000806000606086880312156112fe576112fd6111e7565b5b600086013567ffffffffffffffff81111561131c5761131b6111ec565b5b61132888828901611200565b9550955050602086013567ffffffffffffffff81111561134b5761134a6111ec565b5b61135788828901611256565b9350935050604061136a888289016112cd565b9150509295509295909350565b60008115159050919050565b61138c81611377565b82525050565b600081519050919050565b600082825260208201905092915050565b6000819050602082019050919050565b6000819050919050565b6113d1816113be565b82525050565b7f4e487b7100000000000000000000000000000000000000000000000000000000600052602160045260246000fd5b600b8110611417576114166113d7565b5b50565b600081905061142882611406565b919050565b60006114388261141a565b9050919050565b6114488161142d565b82525050565b61145781611377565b82525050565b60808201600082015161147360008501826113c8565b506020820151611486602085018261143f565b506040820151611499604085018261144e565b5060608201516114ac60608501826113c8565b50505050565b60006114be838361145d565b60808301905092915050565b6000602082019050919050565b60006114e282611392565b6114ec818561139d565b93506114f7836113ae565b8060005b8381101561152857815161150f88826114b2565b975061151a836114ca565b9250506001810190506114fb565b5085935050505092915050565b600060408201905061154a6000830185611383565b818103602083015261155c81846114d7565b90509392505050565b61156e816113be565b811461157957600080fd5b50565b60008135905061158b81611565565b92915050565b6000806000604084860312156115aa576115a96111e7565b5b60006115b88682870161157c565b935050602084013567ffffffffffffffff8111156115d9576115d86111ec565b5b6115e586828701611256565b92509250509250925092565b6115fa816113be565b82525050565b600060208201905061161560008301846115f1565b92915050565b7f4e487b7100000000000000000000000000000000000000000000000000000000600052604160045260246000fd5b7f4e487b7100000000000000000000000000000000000000000000000000000000600052603260045260246000fd5b600080fd5b600080fd5b600080fd5b60008235600160e0038336030381126116a4576116a3611679565b5b80830191505092915050565b600b81106116bd57600080fd5b50565b6000813590506116cf816116b0565b92915050565b6000602082840312156116eb576116ea6111e7565b5b60006116f9848285016116c0565b91505092915050565b7f4e487b7100000000000000000000000000000000000000000000000000000000600052601160045260246000fd5b600061173c826112ac565b91507fffffffffffffffffffffffffffffffffffffffffffffffffffffffffffffffff820361176e5761176d611702565b5b600182019050919050565b600082825260208201905092915050565b6000819050919050565b60006117a360208401846116c0565b905092915050565b60006117ba602084018461157c565b905092915050565b6000819050919050565b6117d5816117c2565b81146117e057600080fd5b50565b6000813590506117f2816117cc565b92915050565b600061180760208401846117e3565b905092915050565b611818816117c2565b82525050565b600080fd5b600080fd5b600080fd5b6000808335600160200384360303811261184a57611849611828565b5b83810192508235915060208301925067ffffffffffffffff8211156118725761187161181e565b5b60208202360383131561188857611887611823565b5b509250929050565b600082825260208201905092915050565b600080fd5b82818337505050565b60006118bb8385611890565b93507f07ffffffffffffffffffffffffffffffffffffffffffffffffffffffffffffff8311156118ee576118ed6118a1565b5b6020830292506118ff8385846118a6565b82840190509392505050565b600060e0830161191e6000840184611794565b61192b600086018261143f565b5061193960208401846117ab565b61194660208601826113c8565b5061195460408401846117f8565b611961604086018261180f565b5061196f60608401846117f8565b61197c606086018261180f565b5061198a60808401846117f8565b611997608086018261180f565b506119a560a08401846117ab565b6119b260a08601826113c8565b506119c060c084018461182d565b85830360c08701526119d38382846118af565b925050508091505092915050565b60006119ed838361190b565b905092915050565b60008235600160e003833603038112611a1157611a10611828565b5b82810191505092915050565b6000602082019050919050565b6000611a368385611779565b935083602084028501611a488461178a565b8060005b87811015611a8c578484038952611a6382846119f5565b611a6d85826119e1565b9450611a7883611a1d565b925060208a01995050600181019050611a4c565b50829750879450505050509392505050565b6000604082019050611ab360008301866115f1565b8181036020830152611ac6818486611a2a565b9050949350505050565b600080fd5b6000601f19601f8301169050919050565b611aef82611ad5565b810181811067ffffffffffffffff82111715611b0e57611b0d61161b565b5b80604052505050565b6000611b216111dd565b9050611b2d8282611ae6565b919050565b611b3b81611377565b8114611b4657600080fd5b50565b600081359050611b5881611b32565b92915050565b600073ffffffffffffffffffffffffffffffffffffffff82169050919050565b6000611b8982611b5e565b9050919050565b611b9981611b7e565b8114611ba457600080fd5b50565b600081359050611bb681611b90565b92915050565b600060ff82169050919050565b611bd281611bbc565b8114611bdd57600080fd5b50565b600081359050611bef81611bc9565b92915050565b600060e08284031215611c0b57611c0a611ad0565b5b611c1560e0611b17565b90506000611c258482850161157c565b6000830152506020611c3984828501611b49565b6020830152506040611c4d848285016117e3565b6040830152506060611c618482850161157c565b6060830152506080611c7584828501611ba7565b60808301525060a0611c8984828501611b49565b60a08301525060c0611c9d84828501611be0565b60c08301525092915050565b600060e08284031215611cbf57611cbe6111e7565b5b6000611ccd84828501611bf5565b91505092915050565b60008083356001602003843603038112611cf357611cf2611679565b5b80840192508235915067ffffffffffffffff821115611d1557611d1461167e565b5b602083019250602082023603831315611d3157611d30611683565b5b509250929050565b6000611d44826112ac565b9150611d4f836112ac565b9250828203905081811115611d6757611d66611702565b5b9291505056fea264697066735822122081d2622ce34cc62819737a76a9dab5be2142da02dacd63852d7e08726828b62f64736f6c63430008140033","opcodes":"PUSH1 0x80 PUSH1 0x40 MSTORE CALLVALUE DUP1 ISZERO PUSH2 0x10 JUMPI PUSH1 0x0 DUP1 REVERT JUMPDEST POP PUSH2 0x1DA3 DUP1 PUSH2 0x20 PUSH1 0x0 CODECOPY PUSH1 0x0 RETURN INVALID PUSH1 0x80 PUSH1 0x40 MSTORE CALLVALUE DUP1 ISZERO PUSH2 0x10 JUMPI PUSH1 0x0 DUP1 REVERT JUMPDEST POP PUSH1 0x4 CALLDATASIZE LT PUSH2 0x36 JUMPI PUSH1 0x0 CALLDATALOAD PUSH1 0xE0 SHR DUP1 PUSH4 0x389AD449 EQ PUSH2 0x3B JUMPI DUP1 PUSH4 0xCADEE6AF EQ PUSH2 0x6C JUMPI JUMPDEST PUSH1 0x0 DUP1 REVERT JUMPDEST PUSH2 0x55 PUSH1 0x4 DUP1 CALLDATASIZE SUB DUP2 ADD SWAP1 PUSH2 0x50 SWAP2 SWAP1 PUSH2 0x12E2 JUMP JUMPDEST PUSH2 0x9C JUMP JUMPDEST PUSH1 0x40 MLOAD PUSH2 0x63 SWAP3 SWAP2 SWAP1 PUSH2 0x1535 JUMP JUMPDEST PUSH1 0x40 MLOAD DUP1 SWAP2 SUB SWAP1 RETURN JUMPDEST PUSH2 0x86 PUSH1 0x4 DUP1 CALLDATASIZE SUB DUP2 ADD SWAP1 PUSH2 0x81 SWAP2 SWAP1 PUSH2 0x1591 JUMP JUMPDEST PUSH2 0x1F2 JUMP JUMPDEST PUSH1 0x40 MLOAD PUSH2 0x93 SWAP2 SWAP1 PUSH2 0x1600 JUMP JUMPDEST PUSH1 0x40 MLOAD DUP1 SWAP2 SUB SWAP1 RETURN JUMPDEST PUSH1 0x0 PUSH1 0x60 DUP5 DUP5 SWAP1 POP PUSH8 0xFFFFFFFFFFFFFFFF DUP2 GT ISZERO PUSH2 0xBD JUMPI PUSH2 0xBC PUSH2 0x161B JUMP JUMPDEST JUMPDEST PUSH1 0x40 MLOAD SWAP1 DUP1 DUP3 MSTORE DUP1 PUSH1 0x20 MUL PUSH1 0x20 ADD DUP3 ADD PUSH1 0x40 MSTORE DUP1 ISZERO PUSH2 0xF6 JUMPI DUP2 PUSH1 0x20 ADD JUMPDEST PUSH2 0xE3 PUSH2 0x113B JUMP JUMPDEST DUP2 MSTORE PUSH1 0x20 ADD SWAP1 PUSH1 0x1 SWAP1 SUB SWAP1 DUP2 PUSH2 0xDB JUMPI SWAP1 POP JUMPDEST POP SWAP1 POP PUSH1 0x1 SWAP2 POP PUSH1 0x0 JUMPDEST DUP6 DUP6 SWAP1 POP DUP2 LT ISZERO PUSH2 0x1E7 JUMPI CALLDATASIZE DUP7 DUP7 DUP4 DUP2 DUP2 LT PUSH2 0x11F JUMPI PUSH2 0x11E PUSH2 0x164A JUMP JUMPDEST JUMPDEST SWAP1 POP PUSH1 0x20 MUL DUP2 ADD SWAP1 PUSH2 0x131 SWAP2 SWAP1 PUSH2 0x1688 JUMP JUMPDEST SWAP1 POP PUSH1 0x0 DUP1 PUSH2 0x145 DUP12 DUP12 DUP6 PUSH1 0x20 ADD CALLDATALOAD PUSH2 0x228 JUMP JUMPDEST SWAP2 POP SWAP2 POP PUSH1 0x0 DUP1 PUSH2 0x158 DUP6 DUP6 DUP6 DUP13 PUSH2 0x2E6 JUMP JUMPDEST SWAP2 POP SWAP2 POP PUSH1 0x40 MLOAD DUP1 PUSH1 0x80 ADD PUSH1 0x40 MSTORE DUP1 DUP7 PUSH1 0x20 ADD CALLDATALOAD DUP2 MSTORE PUSH1 0x20 ADD DUP7 PUSH1 0x0 ADD PUSH1 0x20 DUP2 ADD SWAP1 PUSH2 0x184 SWAP2 SWAP1 PUSH2 0x16D5 JUMP JUMPDEST PUSH1 0xA DUP2 GT ISZERO PUSH2 0x196 JUMPI PUSH2 0x195 PUSH2 0x13D7 JUMP JUMPDEST JUMPDEST DUP2 MSTORE PUSH1 0x20 ADD DUP4 ISZERO ISZERO DUP2 MSTORE PUSH1 0x20 ADD DUP3 DUP2 MSTORE POP DUP8 DUP8 DUP2 MLOAD DUP2 LT PUSH2 0x1BA JUMPI PUSH2 0x1B9 PUSH2 0x164A JUMP JUMPDEST JUMPDEST PUSH1 0x20 MUL PUSH1 0x20 ADD ADD DUP2 SWAP1 MSTORE POP DUP2 PUSH2 0x1CF JUMPI PUSH1 0x0 SWAP8 POP JUMPDEST POP POP POP POP POP DUP1 DUP1 PUSH2 0x1DF SWAP1 PUSH2 0x1731 JUMP JUMPDEST SWAP2 POP POP PUSH2 0x100 JUMP JUMPDEST POP SWAP6 POP SWAP6 SWAP4 POP POP POP POP JUMP JUMPDEST PUSH1 0x0 DUP4 DUP4 DUP4 PUSH1 0x40 MLOAD PUSH1 0x20 ADD PUSH2 0x209 SWAP4 SWAP3 SWAP2 SWAP1 PUSH2 0x1A9E JUMP JUMPDEST PUSH1 0x40 MLOAD PUSH1 0x20 DUP2 DUP4 SUB SUB DUP2 MSTORE SWAP1 PUSH1 0x40 MSTORE DUP1 MLOAD SWAP1 PUSH1 0x20 ADD KECCAK256 SWAP1 POP SWAP4 SWAP3 POP POP POP JUMP JUMPDEST PUSH2 0x230 PUSH2 0x117D JUMP JUMPDEST PUSH1 0x0 DUP1 PUSH1 0x0 SWAP1 POP JUMPDEST DUP6 DUP6 SWAP1 POP DUP2 LT ISZERO PUSH2 0x2B1 JUMPI DUP4 DUP7 DUP7 DUP4 DUP2 DUP2 LT PUSH2 0x257 JUMPI PUSH2 0x256 PUSH2 0x164A JUMP JUMPDEST JUMPDEST SWAP1 POP PUSH1 0xE0 MUL ADD PUSH1 0x0 ADD CALLDATALOAD SUB PUSH2 0x29E JUMPI DUP6 DUP6 DUP3 DUP2 DUP2 LT PUSH2 0x279 JUMPI PUSH2 0x278 PUSH2 0x164A JUMP JUMPDEST JUMPDEST SWAP1 POP PUSH1 0xE0 MUL ADD PUSH1 0x1 DUP2 DUP1 CALLDATASIZE SUB DUP2 ADD SWAP1 PUSH2 0x292 SWAP2 SWAP1 PUSH2 0x1CA9 JUMP JUMPDEST SWAP2 POP SWAP3 POP SWAP3 POP POP PUSH2 0x2DE JUMP JUMPDEST DUP1 DUP1 PUSH2 0x2A9 SWAP1 PUSH2 0x1731 JUMP JUMPDEST SWAP2 POP POP PUSH2 0x238 JUMP JUMPDEST POP PUSH2 0x2BA PUSH2 0x117D JUMP JUMPDEST DUP4 DUP2 PUSH1 0x0 ADD DUP2 DUP2 MSTORE POP POP PUSH1 0x0 DUP2 PUSH1 0x20 ADD SWAP1 ISZERO ISZERO SWAP1 DUP2 ISZERO ISZERO DUP2 MSTORE POP POP DUP1 PUSH1 0x0 SWAP3 POP SWAP3 POP POP JUMPDEST SWAP4 POP SWAP4 SWAP2 POP POP JUMP JUMPDEST PUSH1 0x0 DUP1 PUSH1 0x0 PUSH1 0xA DUP2 GT ISZERO PUSH2 0x2FD JUMPI PUSH2 0x2FC PUSH2 0x13D7 JUMP JUMPDEST JUMPDEST DUP7 PUSH1 0x0 ADD PUSH1 0x20 DUP2 ADD SWAP1 PUSH2 0x310 SWAP2 SWAP1 PUSH2 0x16D5 JUMP JUMPDEST PUSH1 0xA DUP2 GT ISZERO PUSH2 0x322 JUMPI PUSH2 0x321 PUSH2 0x13D7 JUMP JUMPDEST JUMPDEST SUB PUSH2 0x391 JUMPI PUSH1 0x0 DUP5 DUP1 ISZERO PUSH2 0x337 JUMPI POP DUP6 PUSH1 0x20 ADD MLOAD JUMPDEST SWAP1 POP DUP1 DUP2 PUSH2 0x365 JUMPI PUSH32 0x4649454C445F4D495353494E4700000000000000000000000000000000000000 PUSH2 0x387 JUMP JUMPDEST PUSH32 0x4F4B000000000000000000000000000000000000000000000000000000000000 JUMPDEST SWAP3 POP SWAP3 POP POP PUSH2 0x1132 JUMP JUMPDEST DUP4 ISZERO DUP1 PUSH2 0x3A0 JUMPI POP DUP5 PUSH1 0x20 ADD MLOAD ISZERO JUMPDEST ISZERO PUSH2 0x3D1 JUMPI PUSH1 0x0 PUSH32 0x4649454C445F4D495353494E4700000000000000000000000000000000000000 SWAP2 POP SWAP2 POP PUSH2 0x1132 JUMP JUMPDEST PUSH1 0x1 PUSH1 0xA DUP2 GT ISZERO PUSH2 0x3E5 JUMPI PUSH2 0x3E4 PUSH2 0x13D7 JUMP JUMPDEST JUMPDEST DUP7 PUSH1 0x0 ADD PUSH1 0x20 DUP2 ADD SWAP1 PUSH2 0x3F8 SWAP2 SWAP1 PUSH2 0x16D5 JUMP JUMPDEST PUSH1 0xA DUP2 GT ISZERO PUSH2 0x40A JUMPI PUSH2 0x409 PUSH2 0x13D7 JUMP JUMPDEST JUMPDEST SUB PUSH2 0x6A8 JUMPI PUSH1 0x0 PUSH1 0x3 DUP2 GT ISZERO PUSH2 0x423 JUMPI PUSH2 0x422 PUSH2 0x13D7 JUMP JUMPDEST JUMPDEST PUSH1 0xFF AND DUP6 PUSH1 0xC0 ADD MLOAD PUSH1 0xFF AND SUB PUSH2 0x49A JUMPI PUSH1 0x0 DUP7 PUSH1 0x80 ADD CALLDATALOAD DUP7 PUSH1 0x40 ADD MLOAD EQ SWAP1 POP DUP1 DUP2 PUSH2 0x46E JUMPI PUSH32 0x455155414C535F4641494C000000000000000000000000000000000000000000 PUSH2 0x490 JUMP JUMPDEST PUSH32 0x4F4B000000000000000000000000000000000000000000000000000000000000 JUMPDEST SWAP3 POP SWAP3 POP POP PUSH2 0x1132 JUMP JUMPDEST PUSH1 0x1 PUSH1 0x3 DUP2 GT ISZERO PUSH2 0x4AE JUMPI PUSH2 0x4AD PUSH2 0x13D7 JUMP JUMPDEST JUMPDEST PUSH1 0xFF AND DUP6 PUSH1 0xC0 ADD MLOAD PUSH1 0xFF AND SUB PUSH2 0x525 JUMPI PUSH1 0x0 DUP7 PUSH1 0xA0 ADD CALLDATALOAD DUP7 PUSH1 0x60 ADD MLOAD EQ SWAP1 POP DUP1 DUP2 PUSH2 0x4F9 JUMPI PUSH32 0x455155414C535F4641494C000000000000000000000000000000000000000000 PUSH2 0x51B JUMP JUMPDEST PUSH32 0x4F4B000000000000000000000000000000000000000000000000000000000000 JUMPDEST SWAP3 POP SWAP3 POP POP PUSH2 0x1132 JUMP JUMPDEST PUSH1 0x2 PUSH1 0x3 DUP2 GT ISZERO PUSH2 0x539 JUMPI PUSH2 0x538 PUSH2 0x13D7 JUMP JUMPDEST JUMPDEST PUSH1 0xFF AND DUP6 PUSH1 0xC0 ADD MLOAD PUSH1 0xFF AND SUB PUSH2 0x5E5 JUMPI PUSH1 0x0 DUP7 PUSH1 0xA0 ADD CALLDATALOAD PUSH1 0x0 SHR SWAP1 POP PUSH1 0x0 DUP2 PUSH20 0xFFFFFFFFFFFFFFFFFFFFFFFFFFFFFFFFFFFFFFFF AND DUP8 PUSH1 0x80 ADD MLOAD PUSH20 0xFFFFFFFFFFFFFFFFFFFFFFFFFFFFFFFFFFFFFFFF AND EQ SWAP1 POP DUP1 DUP2 PUSH2 0x5B8 JUMPI PUSH32 0x455155414C535F4641494C000000000000000000000000000000000000000000 PUSH2 0x5DA JUMP JUMPDEST PUSH32 0x4F4B000000000000000000000000000000000000000000000000000000000000 JUMPDEST SWAP4 POP SWAP4 POP POP POP PUSH2 0x1132 JUMP JUMPDEST PUSH1 0x3 DUP1 DUP2 GT ISZERO PUSH2 0x5F8 JUMPI PUSH2 0x5F7 PUSH2 0x13D7 JUMP JUMPDEST JUMPDEST PUSH1 0xFF AND DUP6 PUSH1 0xC0 ADD MLOAD PUSH1 0xFF AND SUB PUSH2 0x67C JUMPI PUSH1 0x0 DUP1 DUP8 PUSH1 0x80 ADD CALLDATALOAD EQ ISZERO SWAP1 POP PUSH1 0x0 DUP2 ISZERO ISZERO DUP8 PUSH1 0xA0 ADD MLOAD ISZERO ISZERO EQ SWAP1 POP DUP1 DUP2 PUSH2 0x64F JUMPI PUSH32 0x455155414C535F4641494C000000000000000000000000000000000000000000 PUSH2 0x671 JUMP JUMPDEST PUSH32 0x4F4B000000000000000000000000000000000000000000000000000000000000 JUMPDEST SWAP4 POP SWAP4 POP POP POP PUSH2 0x1132 JUMP JUMPDEST PUSH1 0x0 PUSH32 0x554E535550504F525445445F5459504500000000000000000000000000000000 SWAP2 POP SWAP2 POP PUSH2 0x1132 JUMP JUMPDEST PUSH1 0x2 PUSH1 0xA DUP2 GT ISZERO PUSH2 0x6BC JUMPI PUSH2 0x6BB PUSH2 0x13D7 JUMP JUMPDEST JUMPDEST DUP7 PUSH1 0x0 ADD PUSH1 0x20 DUP2 ADD SWAP1 PUSH2 0x6CF SWAP2 SWAP1 PUSH2 0x16D5 JUMP JUMPDEST PUSH1 0xA DUP2 GT ISZERO PUSH2 0x6E1 JUMPI PUSH2 0x6E0 PUSH2 0x13D7 JUMP JUMPDEST JUMPDEST SUB PUSH2 0x7B2 JUMPI PUSH1 0x0 PUSH1 0x3 DUP2 GT ISZERO PUSH2 0x6FA JUMPI PUSH2 0x6F9 PUSH2 0x13D7 JUMP JUMPDEST JUMPDEST PUSH1 0xFF AND DUP6 PUSH1 0xC0 ADD MLOAD PUSH1 0xFF AND EQ PUSH2 0x736 JUMPI PUSH1 0x0 PUSH32 0x545950455F4D49534D4154434800000000000000000000000000000000000000 SWAP2 POP SWAP2 POP PUSH2 0x1132 JUMP JUMPDEST PUSH1 0x0 DUP7 PUSH1 0x40 ADD CALLDATALOAD DUP7 PUSH1 0x40 ADD MLOAD SLT ISZERO DUP1 ISZERO PUSH2 0x758 JUMPI POP DUP7 PUSH1 0x60 ADD CALLDATALOAD DUP7 PUSH1 0x40 ADD MLOAD SGT ISZERO JUMPDEST SWAP1 POP DUP1 DUP2 PUSH2 0x786 JUMPI PUSH32 0x52414E47455F4641494C00000000000000000000000000000000000000000000 PUSH2 0x7A8 JUMP JUMPDEST PUSH32 0x4F4B000000000000000000000000000000000000000000000000000000000000 JUMPDEST SWAP3 POP SWAP3 POP POP PUSH2 0x1132 JUMP JUMPDEST PUSH1 0x3 PUSH1 0xA DUP2 GT ISZERO PUSH2 0x7C6 JUMPI PUSH2 0x7C5 PUSH2 0x13D7 JUMP JUMPDEST JUMPDEST DUP7 PUSH1 0x0 ADD PUSH1 0x20 DUP2 ADD SWAP1 PUSH2 0x7D9 SWAP2 SWAP1 PUSH2 0x16D5 JUMP JUMPDEST PUSH1 0xA DUP2 GT ISZERO PUSH2 0x7EB JUMPI PUSH2 0x7EA PUSH2 0x13D7 JUMP JUMPDEST JUMPDEST SUB PUSH2 0x8A7 JUMPI PUSH1 0x1 PUSH1 0x3 DUP2 GT ISZERO PUSH2 0x804 JUMPI PUSH2 0x803 PUSH2 0x13D7 JUMP JUMPDEST JUMPDEST PUSH1 0xFF AND DUP6 PUSH1 0xC0 ADD MLOAD PUSH1 0xFF AND EQ PUSH2 0x840 JUMPI PUSH1 0x0 PUSH32 0x545950455F4D49534D4154434800000000000000000000000000000000000000 SWAP2 POP SWAP2 POP PUSH2 0x1132 JUMP JUMPDEST PUSH1 0x0 DUP7 PUSH1 0xA0 ADD CALLDATALOAD DUP7 PUSH1 0x60 ADD MLOAD EQ SWAP1 POP DUP1 DUP2 PUSH2 0x87B JUMPI PUSH32 0x484153485F4D49534D4154434800000000000000000000000000000000000000 PUSH2 0x89D JUMP JUMPDEST PUSH32 0x4F4B000000000000000000000000000000000000000000000000000000000000 JUMPDEST SWAP3 POP SWAP3 POP POP PUSH2 0x1132 JUMP JUMPDEST PUSH1 0x4 PUSH1 0xA DUP2 GT ISZERO PUSH2 0x8BB JUMPI PUSH2 0x8BA PUSH2 0x13D7 JUMP JUMPDEST JUMPDEST DUP7 PUSH1 0x0 ADD PUSH1 0x20 DUP2 ADD SWAP1 PUSH2 0x8CE SWAP2 SWAP1 PUSH2 0x16D5 JUMP JUMPDEST PUSH1 0xA DUP2 GT ISZERO PUSH2 0x8E0 JUMPI PUSH2 0x8DF PUSH2 0x13D7 JUMP JUMPDEST JUMPDEST SUB PUSH2 0x9E4 JUMPI PUSH1 0x0 PUSH1 0x3 DUP2 GT ISZERO PUSH2 0x8F9 JUMPI PUSH2 0x8F8 PUSH2 0x13D7 JUMP JUMPDEST JUMPDEST PUSH1 0xFF AND DUP6 PUSH1 0xC0 ADD MLOAD PUSH1 0xFF AND EQ PUSH2 0x935 JUMPI PUSH1 0x0 PUSH32 0x545950455F4D49534D4154434800000000000000000000000000000000000000 SWAP2 POP SWAP2 POP PUSH2 0x1132 JUMP JUMPDEST PUSH1 0x0 DUP6 PUSH1 0x40 ADD MLOAD SLT ISZERO PUSH2 0x96E JUMPI PUSH1 0x0 PUSH32 0x494E56414C49445F54494D455354414D50000000000000000000000000000000 SWAP2 POP SWAP2 POP PUSH2 0x1132 JUMP JUMPDEST PUSH1 0x0 DUP6 PUSH1 0x40 ADD MLOAD SWAP1 POP PUSH1 0x0 DUP5 DUP3 GT ISZERO DUP1 ISZERO PUSH2 0x989 JUMPI POP DUP5 TIMESTAMP GT ISZERO JUMPDEST SWAP1 POP DUP1 DUP2 PUSH2 0x9B7 JUMPI PUSH32 0x444541444C494E455F4641494C00000000000000000000000000000000000000 PUSH2 0x9D9 JUMP JUMPDEST PUSH32 0x4F4B000000000000000000000000000000000000000000000000000000000000 JUMPDEST SWAP4 POP SWAP4 POP POP POP PUSH2 0x1132 JUMP JUMPDEST PUSH1 0x5 PUSH1 0xA DUP2 GT ISZERO PUSH2 0x9F8 JUMPI PUSH2 0x9F7 PUSH2 0x13D7 JUMP JUMPDEST JUMPDEST DUP7 PUSH1 0x0 ADD PUSH1 0x20 DUP2 ADD SWAP1 PUSH2 0xA0B SWAP2 SWAP1 PUSH2 0x16D5 JUMP JUMPDEST PUSH1 0xA DUP2 GT ISZERO PUSH2 0xA1D JUMPI PUSH2 0xA1C PUSH2 0x13D7 JUMP JUMPDEST JUMPDEST SUB PUSH2 0xB0E JUMPI PUSH1 0x2 PUSH1 0x3 DUP2 GT ISZERO PUSH2 0xA36 JUMPI PUSH2 0xA35 PUSH2 0x13D7 JUMP JUMPDEST JUMPDEST PUSH1 0xFF AND DUP6 PUSH1 0xC0 ADD MLOAD PUSH1 0xFF AND EQ PUSH2 0xA72 JUMPI PUSH1 0x0 PUSH32 0x545950455F4D49534D4154434800000000000000000000000000000000000000 SWAP2 POP SWAP2 POP PUSH2 0x1132 JUMP JUMPDEST PUSH1 0x0 DUP7 PUSH1 0xA0 ADD CALLDATALOAD PUSH1 0x0 SHR SWAP1 POP PUSH1 0x0 DUP2 PUSH20 0xFFFFFFFFFFFFFFFFFFFFFFFFFFFFFFFFFFFFFFFF AND DUP8 PUSH1 0x80 ADD MLOAD PUSH20 0xFFFFFFFFFFFFFFFFFFFFFFFFFFFFFFFFFFFFFFFF AND EQ SWAP1 POP DUP1 DUP2 PUSH2 0xAE1 JUMPI PUSH32 0x5349474E45525F4D49534D415443480000000000000000000000000000000000 PUSH2 0xB03 JUMP JUMPDEST PUSH32 0x4F4B000000000000000000000000000000000000000000000000000000000000 JUMPDEST SWAP4 POP SWAP4 POP POP POP PUSH2 0x1132 JUMP JUMPDEST PUSH1 0x6 PUSH1 0xA DUP2 GT ISZERO PUSH2 0xB22 JUMPI PUSH2 0xB21 PUSH2 0x13D7 JUMP JUMPDEST JUMPDEST DUP7 PUSH1 0x0 ADD PUSH1 0x20 DUP2 ADD SWAP1 PUSH2 0xB35 SWAP2 SWAP1 PUSH2 0x16D5 JUMP JUMPDEST PUSH1 0xA DUP2 GT ISZERO PUSH2 0xB47 JUMPI PUSH2 0xB46 PUSH2 0x13D7 JUMP JUMPDEST JUMPDEST SUB PUSH2 0xC57 JUMPI PUSH1 0x1 PUSH1 0x3 DUP2 GT ISZERO PUSH2 0xB60 JUMPI PUSH2 0xB5F PUSH2 0x13D7 JUMP JUMPDEST JUMPDEST PUSH1 0xFF AND DUP6 PUSH1 0xC0 ADD MLOAD PUSH1 0xFF AND EQ PUSH2 0xB9C JUMPI PUSH1 0x0 PUSH32 0x545950455F4D49534D4154434800000000000000000000000000000000000000 SWAP2 POP SWAP2 POP PUSH2 0x1132 JUMP JUMPDEST PUSH1 0x0 JUMPDEST DUP7 DUP1 PUSH1 0xC0 ADD SWAP1 PUSH2 0xBAF SWAP2 SWAP1 PUSH2 0x1CD6 JUMP JUMPDEST SWAP1 POP DUP2 LT ISZERO PUSH2 0xC2A JUMPI DUP7 DUP1 PUSH1 0xC0 ADD SWAP1 PUSH2 0xBC8 SWAP2 SWAP1 PUSH2 0x1CD6 JUMP JUMPDEST DUP3 DUP2 DUP2 LT PUSH2 0xBD9 JUMPI PUSH2 0xBD8 PUSH2 0x164A JUMP JUMPDEST JUMPDEST SWAP1 POP PUSH1 0x20 MUL ADD CALLDATALOAD DUP7 PUSH1 0x60 ADD MLOAD SUB PUSH2 0xC17 JUMPI PUSH1 0x1 PUSH32 0x4F4B000000000000000000000000000000000000000000000000000000000000 SWAP3 POP SWAP3 POP POP PUSH2 0x1132 JUMP JUMPDEST DUP1 DUP1 PUSH2 0xC22 SWAP1 PUSH2 0x1731 JUMP JUMPDEST SWAP2 POP POP PUSH2 0xB9F JUMP JUMPDEST POP PUSH1 0x0 PUSH32 0x4E4F545F494E5F454E554D000000000000000000000000000000000000000000 SWAP2 POP SWAP2 POP PUSH2 0x1132 JUMP JUMPDEST PUSH1 0x7 PUSH1 0xA DUP2 GT ISZERO PUSH2 0xC6B JUMPI PUSH2 0xC6A PUSH2 0x13D7 JUMP JUMPDEST JUMPDEST DUP7 PUSH1 0x0 ADD PUSH1 0x20 DUP2 ADD SWAP1 PUSH2 0xC7E SWAP2 SWAP1 PUSH2 0x16D5 JUMP JUMPDEST PUSH1 0xA DUP2 GT ISZERO PUSH2 0xC90 JUMPI PUSH2 0xC8F PUSH2 0x13D7 JUMP JUMPDEST JUMPDEST SUB PUSH2 0xDA3 JUMPI PUSH1 0x0 PUSH1 0x3 DUP2 GT ISZERO PUSH2 0xCA9 JUMPI PUSH2 0xCA8 PUSH2 0x13D7 JUMP JUMPDEST JUMPDEST PUSH1 0xFF AND DUP6 PUSH1 0xC0 ADD MLOAD PUSH1 0xFF AND EQ PUSH2 0xCE5 JUMPI PUSH1 0x0 PUSH32 0x545950455F4D49534D4154434800000000000000000000000000000000000000 SWAP2 POP SWAP2 POP PUSH2 0x1132 JUMP JUMPDEST PUSH1 0x0 DUP6 PUSH1 0x40 ADD MLOAD SLT ISZERO PUSH2 0xD1E JUMPI PUSH1 0x0 PUSH32 0x494E56414C49445F54494D455354414D50000000000000000000000000000000 SWAP2 POP SWAP2 POP PUSH2 0x1132 JUMP JUMPDEST PUSH1 0x0 DUP6 PUSH1 0x40 ADD MLOAD SWAP1 POP PUSH1 0x0 DUP2 TIMESTAMP LT ISZERO DUP1 ISZERO PUSH2 0xD48 JUMPI POP DUP8 PUSH1 0x80 ADD CALLDATALOAD DUP3 TIMESTAMP PUSH2 0xD45 SWAP2 SWAP1 PUSH2 0x1D39 JUMP JUMPDEST GT ISZERO JUMPDEST SWAP1 POP DUP1 DUP2 PUSH2 0xD76 JUMPI PUSH32 0x5354414C455F4441544100000000000000000000000000000000000000000000 PUSH2 0xD98 JUMP JUMPDEST PUSH32 0x4F4B000000000000000000000000000000000000000000000000000000000000 JUMPDEST SWAP4 POP SWAP4 POP POP POP PUSH2 0x1132 JUMP JUMPDEST PUSH1 0x8 PUSH1 0xA DUP2 GT ISZERO PUSH2 0xDB7 JUMPI PUSH2 0xDB6 PUSH2 0x13D7 JUMP JUMPDEST JUMPDEST DUP7 PUSH1 0x0 ADD PUSH1 0x20 DUP2 ADD SWAP1 PUSH2 0xDCA SWAP2 SWAP1 PUSH2 0x16D5 JUMP JUMPDEST PUSH1 0xA DUP2 GT ISZERO PUSH2 0xDDC JUMPI PUSH2 0xDDB PUSH2 0x13D7 JUMP JUMPDEST JUMPDEST SUB PUSH2 0xEAD JUMPI PUSH1 0x0 PUSH1 0x3 DUP2 GT ISZERO PUSH2 0xDF5 JUMPI PUSH2 0xDF4 PUSH2 0x13D7 JUMP JUMPDEST JUMPDEST PUSH1 0xFF AND DUP6 PUSH1 0xC0 ADD MLOAD PUSH1 0xFF AND EQ PUSH2 0xE31 JUMPI PUSH1 0x0 PUSH32 0x545950455F4D49534D4154434800000000000000000000000000000000000000 SWAP2 POP SWAP2 POP PUSH2 0x1132 JUMP JUMPDEST PUSH1 0x0 DUP7 PUSH1 0x40 ADD CALLDATALOAD DUP7 PUSH1 0x40 ADD MLOAD SLT ISZERO DUP1 ISZERO PUSH2 0xE53 JUMPI POP DUP7 PUSH1 0x60 ADD CALLDATALOAD DUP7 PUSH1 0x40 ADD MLOAD SGT ISZERO JUMPDEST SWAP1 POP DUP1 DUP2 PUSH2 0xE81 JUMPI PUSH32 0x54494D455354414D505F57494E444F575F4641494C0000000000000000000000 PUSH2 0xEA3 JUMP JUMPDEST PUSH32 0x4F4B000000000000000000000000000000000000000000000000000000000000 JUMPDEST SWAP3 POP SWAP3 POP POP PUSH2 0x1132 JUMP JUMPDEST PUSH1 0x9 PUSH1 0xA DUP2 GT ISZERO PUSH2 0xEC1 JUMPI PUSH2 0xEC0 PUSH2 0x13D7 JUMP JUMPDEST JUMPDEST DUP7 PUSH1 0x0 ADD PUSH1 0x20 DUP2 ADD SWAP1 PUSH2 0xED4 SWAP2 SWAP1 PUSH2 0x16D5 JUMP JUMPDEST PUSH1 0xA DUP2 GT ISZERO PUSH2 0xEE6 JUMPI PUSH2 0xEE5 PUSH2 0x13D7 JUMP JUMPDEST JUMPDEST SUB PUSH2 0xFA2 JUMPI PUSH1 0x1 PUSH1 0x3 DUP2 GT ISZERO PUSH2 0xEFF JUMPI PUSH2 0xEFE PUSH2 0x13D7 JUMP JUMPDEST JUMPDEST PUSH1 0xFF AND DUP6 PUSH1 0xC0 ADD MLOAD PUSH1 0xFF AND EQ PUSH2 0xF3B JUMPI PUSH1 0x0 PUSH32 0x545950455F4D49534D4154434800000000000000000000000000000000000000 SWAP2 POP SWAP2 POP PUSH2 0x1132 JUMP JUMPDEST PUSH1 0x0 DUP7 PUSH1 0xA0 ADD CALLDATALOAD DUP7 PUSH1 0x60 ADD MLOAD EQ SWAP1 POP DUP1 DUP2 PUSH2 0xF76 JUMPI PUSH32 0x4D45524B4C455F524F4F545F4D49534D41544348000000000000000000000000 PUSH2 0xF98 JUMP JUMPDEST PUSH32 0x4F4B000000000000000000000000000000000000000000000000000000000000 JUMPDEST SWAP3 POP SWAP3 POP POP PUSH2 0x1132 JUMP JUMPDEST PUSH1 0xA DUP1 DUP2 GT ISZERO PUSH2 0xFB5 JUMPI PUSH2 0xFB4 PUSH2 0x13D7 JUMP JUMPDEST JUMPDEST DUP7 PUSH1 0x0 ADD PUSH1 0x20 DUP2 ADD SWAP1 PUSH2 0xFC8 SWAP2 SWAP1 PUSH2 0x16D5 JUMP JUMPDEST PUSH1 0xA DUP2 GT ISZERO PUSH2 0xFDA JUMPI PUSH2 0xFD9 PUSH2 0x13D7 JUMP JUMPDEST JUMPDEST SUB PUSH2 0x110A JUMPI PUSH1 0x2 PUSH1 0x3 DUP2 GT ISZERO PUSH2 0xFF3 JUMPI PUSH2 0xFF2 PUSH2 0x13D7 JUMP JUMPDEST JUMPDEST PUSH1 0xFF AND DUP6 PUSH1 0xC0 ADD MLOAD PUSH1 0xFF AND EQ PUSH2 0x102F JUMPI PUSH1 0x0 PUSH32 0x545950455F4D49534D4154434800000000000000000000000000000000000000 SWAP2 POP SWAP2 POP PUSH2 0x1132 JUMP JUMPDEST PUSH1 0x0 DUP6 PUSH1 0x80 ADD MLOAD PUSH20 0xFFFFFFFFFFFFFFFFFFFFFFFFFFFFFFFFFFFFFFFF AND PUSH1 0x0 SHL SWAP1 POP PUSH1 0x0 JUMPDEST DUP8 DUP1 PUSH1 0xC0 ADD SWAP1 PUSH2 0x1064 SWAP2 SWAP1 PUSH2 0x1CD6 JUMP JUMPDEST SWAP1 POP DUP2 LT ISZERO PUSH2 0x10DC JUMPI DUP8 DUP1 PUSH1 0xC0 ADD SWAP1 PUSH2 0x107D SWAP2 SWAP1 PUSH2 0x1CD6 JUMP JUMPDEST DUP3 DUP2 DUP2 LT PUSH2 0x108E JUMPI PUSH2 0x108D PUSH2 0x164A JUMP JUMPDEST JUMPDEST SWAP1 POP PUSH1 0x20 MUL ADD CALLDATALOAD DUP3 SUB PUSH2 0x10C9 JUMPI PUSH1 0x1 PUSH32 0x4F4B000000000000000000000000000000000000000000000000000000000000 SWAP4 POP SWAP4 POP POP POP PUSH2 0x1132 JUMP JUMPDEST DUP1 DUP1 PUSH2 0x10D4 SWAP1 PUSH2 0x1731 JUMP JUMPDEST SWAP2 POP POP PUSH2 0x1054 JUMP JUMPDEST POP PUSH1 0x0 PUSH32 0x5349474E45525F4E4F545F414C4C4F5745440000000000000000000000000000 SWAP3 POP SWAP3 POP POP PUSH2 0x1132 JUMP JUMPDEST PUSH1 0x0 PUSH32 0x554E4B4E4F574E5F434F4E53545241494E540000000000000000000000000000 SWAP2 POP SWAP2 POP JUMPDEST SWAP5 POP SWAP5 SWAP3 POP POP POP JUMP JUMPDEST PUSH1 0x40 MLOAD DUP1 PUSH1 0x80 ADD PUSH1 0x40 MSTORE DUP1 PUSH1 0x0 DUP1 NOT AND DUP2 MSTORE PUSH1 0x20 ADD PUSH1 0x0 PUSH1 0xA DUP2 GT ISZERO PUSH2 0x1164 JUMPI PUSH2 0x1163 PUSH2 0x13D7 JUMP JUMPDEST JUMPDEST DUP2 MSTORE PUSH1 0x20 ADD PUSH1 0x0 ISZERO ISZERO DUP2 MSTORE PUSH1 0x20 ADD PUSH1 0x0 DUP1 NOT AND DUP2 MSTORE POP SWAP1 JUMP JUMPDEST PUSH1 0x40 MLOAD DUP1 PUSH1 0xE0 ADD PUSH1 0x40 MSTORE DUP1 PUSH1 0x0 DUP1 NOT AND DUP2 MSTORE PUSH1 0x20 ADD PUSH1 0x0 ISZERO ISZERO DUP2 MSTORE PUSH1 0x20 ADD PUSH1 0x0 DUP2 MSTORE PUSH1 0x20 ADD PUSH1 0x0 DUP1 NOT AND DUP2 MSTORE PUSH1 0x20 ADD PUSH1 0x0 PUSH20 0xFFFFFFFFFFFFFFFFFFFFFFFFFFFFFFFFFFFFFFFF AND DUP2 MSTORE PUSH1 0x20 ADD PUSH1 0x0 ISZERO ISZERO DUP2 MSTORE PUSH1 0x20 ADD PUSH1 0x0 PUSH1 0xFF AND DUP2 MSTORE POP SWAP1 JUMP JUMPDEST PUSH1 0x0 PUSH1 0x40 MLOAD SWAP1 POP SWAP1 JUMP JUMPDEST PUSH1 0x0 DUP1 REVERT JUMPDEST PUSH1 0x0 DUP1 REVERT JUMPDEST PUSH1 0x0 DUP1 REVERT JUMPDEST PUSH1 0x0 DUP1 REVERT JUMPDEST PUSH1 0x0 DUP1 REVERT JUMPDEST PUSH1 0x0 DUP1 DUP4 PUSH1 0x1F DUP5 ADD SLT PUSH2 0x1216 JUMPI PUSH2 0x1215 PUSH2 0x11F1 JUMP JUMPDEST JUMPDEST DUP3 CALLDATALOAD SWAP1 POP PUSH8 0xFFFFFFFFFFFFFFFF DUP2 GT ISZERO PUSH2 0x1233 JUMPI PUSH2 0x1232 PUSH2 0x11F6 JUMP JUMPDEST JUMPDEST PUSH1 0x20 DUP4 ADD SWAP2 POP DUP4 PUSH1 0xE0 DUP3 MUL DUP4 ADD GT ISZERO PUSH2 0x124F JUMPI PUSH2 0x124E PUSH2 0x11FB JUMP JUMPDEST JUMPDEST SWAP3 POP SWAP3 SWAP1 POP JUMP JUMPDEST PUSH1 0x0 DUP1 DUP4 PUSH1 0x1F DUP5 ADD SLT PUSH2 0x126C JUMPI PUSH2 0x126B PUSH2 0x11F1 JUMP JUMPDEST JUMPDEST DUP3 CALLDATALOAD SWAP1 POP PUSH8 0xFFFFFFFFFFFFFFFF DUP2 GT ISZERO PUSH2 0x1289 JUMPI PUSH2 0x1288 PUSH2 0x11F6 JUMP JUMPDEST JUMPDEST PUSH1 0x20 DUP4 ADD SWAP2 POP DUP4 PUSH1 0x20 DUP3 MUL DUP4 ADD GT ISZERO PUSH2 0x12A5 JUMPI PUSH2 0x12A4 PUSH2 0x11FB JUMP JUMPDEST JUMPDEST SWAP3 POP SWAP3 SWAP1 POP JUMP JUMPDEST PUSH1 0x0 DUP2 SWAP1 POP SWAP2 SWAP1 POP JUMP JUMPDEST PUSH2 0x12BF DUP2 PUSH2 0x12AC JUMP JUMPDEST DUP2 EQ PUSH2 0x12CA JUMPI PUSH1 0x0 DUP1 REVERT JUMPDEST POP JUMP JUMPDEST PUSH1 0x0 DUP2 CALLDATALOAD SWAP1 POP PUSH2 0x12DC DUP2 PUSH2 0x12B6 JUMP JUMPDEST SWAP3 SWAP2 POP POP JUMP JUMPDEST PUSH1 0x0 DUP1 PUSH1 0x0 DUP1 PUSH1 0x0 PUSH1 0x60 DUP7 DUP9 SUB SLT ISZERO PUSH2 0x12FE JUMPI PUSH2 0x12FD PUSH2 0x11E7 JUMP JUMPDEST JUMPDEST PUSH1 0x0 DUP7 ADD CALLDATALOAD PUSH8 0xFFFFFFFFFFFFFFFF DUP2 GT ISZERO PUSH2 0x131C JUMPI PUSH2 0x131B PUSH2 0x11EC JUMP JUMPDEST JUMPDEST PUSH2 0x1328 DUP9 DUP3 DUP10 ADD PUSH2 0x1200 JUMP JUMPDEST SWAP6 POP SWAP6 POP POP PUSH1 0x20 DUP7 ADD CALLDATALOAD PUSH8 0xFFFFFFFFFFFFFFFF DUP2 GT ISZERO PUSH2 0x134B JUMPI PUSH2 0x134A PUSH2 0x11EC JUMP JUMPDEST JUMPDEST PUSH2 0x1357 DUP9 DUP3 DUP10 ADD PUSH2 0x1256 JUMP JUMPDEST SWAP4 POP SWAP4 POP POP PUSH1 0x40 PUSH2 0x136A DUP9 DUP3 DUP10 ADD PUSH2 0x12CD JUMP JUMPDEST SWAP2 POP POP SWAP3 SWAP6 POP SWAP3 SWAP6 SWAP1 SWAP4 POP JUMP JUMPDEST PUSH1 0x0 DUP2 ISZERO ISZERO SWAP1 POP SWAP2 SWAP1 POP JUMP JUMPDEST PUSH2 0x138C DUP2 PUSH2 0x1377 JUMP JUMPDEST DUP3 MSTORE POP POP JUMP JUMPDEST PUSH1 0x0 DUP2 MLOAD SWAP1 POP SWAP2 SWAP1 POP JUMP JUMPDEST PUSH1 0x0 DUP3 DUP3 MSTORE PUSH1 0x20 DUP3 ADD SWAP1 POP SWAP3 SWAP2 POP POP JUMP JUMPDEST PUSH1 0x0 DUP2 SWAP1 POP PUSH1 0x20 DUP3 ADD SWAP1 POP SWAP2 SWAP1 POP JUMP JUMPDEST PUSH1 0x0 DUP2 SWAP1 POP SWAP2 SWAP1 POP JUMP JUMPDEST PUSH2 0x13D1 DUP2 PUSH2 0x13BE JUMP JUMPDEST DUP3 MSTORE POP POP JUMP JUMPDEST PUSH32 0x4E487B7100000000000000000000000000000000000000000000000000000000 PUSH1 0x0 MSTORE PUSH1 0x21 PUSH1 0x4 MSTORE PUSH1 0x24 PUSH1 0x0 REVERT JUMPDEST PUSH1 0xB DUP2 LT PUSH2 0x1417 JUMPI PUSH2 0x1416 PUSH2 0x13D7 JUMP JUMPDEST JUMPDEST POP JUMP JUMPDEST PUSH1 0x0 DUP2 SWAP1 POP PUSH2 0x1428 DUP3 PUSH2 0x1406 JUMP JUMPDEST SWAP2 SWAP1 POP JUMP JUMPDEST PUSH1 0x0 PUSH2 0x1438 DUP3 PUSH2 0x141A JUMP JUMPDEST SWAP1 POP SWAP2 SWAP1 POP JUMP JUMPDEST PUSH2 0x1448 DUP2 PUSH2 0x142D JUMP JUMPDEST DUP3 MSTORE POP POP JUMP JUMPDEST PUSH2 0x1457 DUP2 PUSH2 0x1377 JUMP JUMPDEST DUP3 MSTORE POP POP JUMP JUMPDEST PUSH1 0x80 DUP3 ADD PUSH1 0x0 DUP3 ADD MLOAD PUSH2 0x1473 PUSH1 0x0 DUP6 ADD DUP3 PUSH2 0x13C8 JUMP JUMPDEST POP PUSH1 0x20 DUP3 ADD MLOAD PUSH2 0x1486 PUSH1 0x20 DUP6 ADD DUP3 PUSH2 0x143F JUMP JUMPDEST POP PUSH1 0x40 DUP3 ADD MLOAD PUSH2 0x1499 PUSH1 0x40 DUP6 ADD DUP3 PUSH2 0x144E JUMP JUMPDEST POP PUSH1 0x60 DUP3 ADD MLOAD PUSH2 0x14AC PUSH1 0x60 DUP6 ADD DUP3 PUSH2 0x13C8 JUMP JUMPDEST POP POP POP POP JUMP JUMPDEST PUSH1 0x0 PUSH2 0x14BE DUP4 DUP4 PUSH2 0x145D JUMP JUMPDEST PUSH1 0x80 DUP4 ADD SWAP1 POP SWAP3 SWAP2 POP POP JUMP JUMPDEST PUSH1 0x0 PUSH1 0x20 DUP3 ADD SWAP1 POP SWAP2 SWAP1 POP JUMP JUMPDEST PUSH1 0x0 PUSH2 0x14E2 DUP3 PUSH2 0x1392 JUMP JUMPDEST PUSH2 0x14EC DUP2 DUP6 PUSH2 0x139D JUMP JUMPDEST SWAP4 POP PUSH2 0x14F7 DUP4 PUSH2 0x13AE JUMP JUMPDEST DUP1 PUSH1 0x0 JUMPDEST DUP4 DUP2 LT ISZERO PUSH2 0x1528 JUMPI DUP2 MLOAD PUSH2 0x150F DUP9 DUP3 PUSH2 0x14B2 JUMP JUMPDEST SWAP8 POP PUSH2 0x151A DUP4 PUSH2 0x14CA JUMP JUMPDEST SWAP3 POP POP PUSH1 0x1 DUP2 ADD SWAP1 POP PUSH2 0x14FB JUMP JUMPDEST POP DUP6 SWAP4 POP POP POP POP SWAP3 SWAP2 POP POP JUMP JUMPDEST PUSH1 0x0 PUSH1 0x40 DUP3 ADD SWAP1 POP PUSH2 0x154A PUSH1 0x0 DUP4 ADD DUP6 PUSH2 0x1383 JUMP JUMPDEST DUP2 DUP2 SUB PUSH1 0x20 DUP4 ADD MSTORE PUSH2 0x155C DUP2 DUP5 PUSH2 0x14D7 JUMP JUMPDEST SWAP1 POP SWAP4 SWAP3 POP POP POP JUMP JUMPDEST PUSH2 0x156E DUP2 PUSH2 0x13BE JUMP JUMPDEST DUP2 EQ PUSH2 0x1579 JUMPI PUSH1 0x0 DUP1 REVERT JUMPDEST POP JUMP JUMPDEST PUSH1 0x0 DUP2 CALLDATALOAD SWAP1 POP PUSH2 0x158B DUP2 PUSH2 0x1565 JUMP JUMPDEST SWAP3 SWAP2 POP POP JUMP JUMPDEST PUSH1 0x0 DUP1 PUSH1 0x0 PUSH1 0x40 DUP5 DUP7 SUB SLT ISZERO PUSH2 0x15AA JUMPI PUSH2 0x15A9 PUSH2 0x11E7 JUMP JUMPDEST JUMPDEST PUSH1 0x0 PUSH2 0x15B8 DUP7 DUP3 DUP8 ADD PUSH2 0x157C JUMP JUMPDEST SWAP4 POP POP PUSH1 0x20 DUP5 ADD CALLDATALOAD PUSH8 0xFFFFFFFFFFFFFFFF DUP2 GT ISZERO PUSH2 0x15D9 JUMPI PUSH2 0x15D8 PUSH2 0x11EC JUMP JUMPDEST JUMPDEST PUSH2 0x15E5 DUP7 DUP3 DUP8 ADD PUSH2 0x1256 JUMP JUMPDEST SWAP3 POP SWAP3 POP POP SWAP3 POP SWAP3 POP SWAP3 JUMP JUMPDEST PUSH2 0x15FA DUP2 PUSH2 0x13BE JUMP JUMPDEST DUP3 MSTORE POP POP JUMP JUMPDEST PUSH1 0x0 PUSH1 0x20 DUP3 ADD SWAP1 POP PUSH2 0x1615 PUSH1 0x0 DUP4 ADD DUP5 PUSH2 0x15F1 JUMP JUMPDEST SWAP3 SWAP2 POP POP JUMP JUMPDEST PUSH32 0x4E487B7100000000000000000000000000000000000000000000000000000000 PUSH1 0x0 MSTORE PUSH1 0x41 PUSH1 0x4 MSTORE PUSH1 0x24 PUSH1 0x0 REVERT JUMPDEST PUSH32 0x4E487B7100000000000000000000000000000000000000000000000000000000 PUSH1 0x0 MSTORE PUSH1 0x32 PUSH1 0x4 MSTORE PUSH1 0x24 PUSH1 0x0 REVERT JUMPDEST PUSH1 0x0 DUP1 REVERT JUMPDEST PUSH1 0x0 DUP1 REVERT JUMPDEST PUSH1 0x0 DUP1 REVERT JUMPDEST PUSH1 0x0 DUP3 CALLDATALOAD PUSH1 0x1 PUSH1 0xE0 SUB DUP4 CALLDATASIZE SUB SUB DUP2 SLT PUSH2 0x16A4 JUMPI PUSH2 0x16A3 PUSH2 0x1679 JUMP JUMPDEST JUMPDEST DUP1 DUP4 ADD SWAP2 POP POP SWAP3 SWAP2 POP POP JUMP JUMPDEST PUSH1 0xB DUP2 LT PUSH2 0x16BD JUMPI PUSH1 0x0 DUP1 REVERT JUMPDEST POP JUMP JUMPDEST PUSH1 0x0 DUP2 CALLDATALOAD SWAP1 POP PUSH2 0x16CF DUP2 PUSH2 0x16B0 JUMP JUMPDEST SWAP3 SWAP2 POP POP JUMP JUMPDEST PUSH1 0x0 PUSH1 0x20 DUP3 DUP5 SUB SLT ISZERO PUSH2 0x16EB JUMPI PUSH2 0x16EA PUSH2 0x11E7 JUMP JUMPDEST JUMPDEST PUSH1 0x0 PUSH2 0x16F9 DUP5 DUP3 DUP6 ADD PUSH2 0x16C0 JUMP JUMPDEST SWAP2 POP POP SWAP3 SWAP2 POP POP JUMP JUMPDEST PUSH32 0x4E487B7100000000000000000000000000000000000000000000000000000000 PUSH1 0x0 MSTORE PUSH1 0x11 PUSH1 0x4 MSTORE PUSH1 0x24 PUSH1 0x0 REVERT JUMPDEST PUSH1 0x0 PUSH2 0x173C DUP3 PUSH2 0x12AC JUMP JUMPDEST SWAP2 POP PUSH32 0xFFFFFFFFFFFFFFFFFFFFFFFFFFFFFFFFFFFFFFFFFFFFFFFFFFFFFFFFFFFFFFFF DUP3 SUB PUSH2 0x176E JUMPI PUSH2 0x176D PUSH2 0x1702 JUMP JUMPDEST JUMPDEST PUSH1 0x1 DUP3 ADD SWAP1 POP SWAP2 SWAP1 POP JUMP JUMPDEST PUSH1 0x0 DUP3 DUP3 MSTORE PUSH1 0x20 DUP3 ADD SWAP1 POP SWAP3 SWAP2 POP POP JUMP JUMPDEST PUSH1 0x0 DUP2 SWAP1 POP SWAP2 SWAP1 POP JUMP JUMPDEST PUSH1 0x0 PUSH2 0x17A3 PUSH1 0x20 DUP5 ADD DUP5 PUSH2 0x16C0 JUMP JUMPDEST SWAP1 POP SWAP3 SWAP2 POP POP JUMP JUMPDEST PUSH1 0x0 PUSH2 0x17BA PUSH1 0x20 DUP5 ADD DUP5 PUSH2 0x157C JUMP JUMPDEST SWAP1 POP SWAP3 SWAP2 POP POP JUMP JUMPDEST PUSH1 0x0 DUP2 SWAP1 POP SWAP2 SWAP1 POP JUMP JUMPDEST PUSH2 0x17D5 DUP2 PUSH2 0x17C2 JUMP JUMPDEST DUP2 EQ PUSH2 0x17E0 JUMPI PUSH1 0x0 DUP1 REVERT JUMPDEST POP JUMP JUMPDEST PUSH1 0x0 DUP2 CALLDATALOAD SWAP1 POP PUSH2 0x17F2 DUP2 PUSH2 0x17CC JUMP JUMPDEST SWAP3 SWAP2 POP POP JUMP JUMPDEST PUSH1 0x0 PUSH2 0x1807 PUSH1 0x20 DUP5 ADD DUP5 PUSH2 0x17E3 JUMP JUMPDEST SWAP1 POP SWAP3 SWAP2 POP POP JUMP JUMPDEST PUSH2 0x1818 DUP2 PUSH2 0x17C2 JUMP JUMPDEST DUP3 MSTORE POP POP JUMP JUMPDEST PUSH1 0x0 DUP1 REVERT JUMPDEST PUSH1 0x0 DUP1 REVERT JUMPDEST PUSH1 0x0 DUP1 REVERT JUMPDEST PUSH1 0x0 DUP1 DUP4 CALLDATALOAD PUSH1 0x1 PUSH1 0x20 SUB DUP5 CALLDATASIZE SUB SUB DUP2 SLT PUSH2 0x184A JUMPI PUSH2 0x1849 PUSH2 0x1828 JUMP JUMPDEST JUMPDEST DUP4 DUP2 ADD SWAP3 POP DUP3 CALLDATALOAD SWAP2 POP PUSH1 0x20 DUP4 ADD SWAP3 POP PUSH8 0xFFFFFFFFFFFFFFFF DUP3 GT ISZERO PUSH2 0x1872 JUMPI PUSH2 0x1871 PUSH2 0x181E JUMP JUMPDEST JUMPDEST PUSH1 0x20 DUP3 MUL CALLDATASIZE SUB DUP4 SGT ISZERO PUSH2 0x1888 JUMPI PUSH2 0x1887 PUSH2 0x1823 JUMP JUMPDEST JUMPDEST POP SWAP3 POP SWAP3 SWAP1 POP JUMP JUMPDEST PUSH1 0x0 DUP3 DUP3 MSTORE PUSH1 0x20 DUP3 ADD SWAP1 POP SWAP3 SWAP2 POP POP JUMP JUMPDEST PUSH1 0x0 DUP1 REVERT JUMPDEST DUP3 DUP2 DUP4 CALLDATACOPY POP POP POP JUMP JUMPDEST PUSH1 0x0 PUSH2 0x18BB DUP4 DUP6 PUSH2 0x1890 JUMP JUMPDEST SWAP4 POP PUSH32 0x7FFFFFFFFFFFFFFFFFFFFFFFFFFFFFFFFFFFFFFFFFFFFFFFFFFFFFFFFFFFFFF DUP4 GT ISZERO PUSH2 0x18EE JUMPI PUSH2 0x18ED PUSH2 0x18A1 JUMP JUMPDEST JUMPDEST PUSH1 0x20 DUP4 MUL SWAP3 POP PUSH2 0x18FF DUP4 DUP6 DUP5 PUSH2 0x18A6 JUMP JUMPDEST DUP3 DUP5 ADD SWAP1 POP SWAP4 SWAP3 POP POP POP JUMP JUMPDEST PUSH1 0x0 PUSH1 0xE0 DUP4 ADD PUSH2 0x191E PUSH1 0x0 DUP5 ADD DUP5 PUSH2 0x1794 JUMP JUMPDEST PUSH2 0x192B PUSH1 0x0 DUP7 ADD DUP3 PUSH2 0x143F JUMP JUMPDEST POP PUSH2 0x1939 PUSH1 0x20 DUP5 ADD DUP5 PUSH2 0x17AB JUMP JUMPDEST PUSH2 0x1946 PUSH1 0x20 DUP7 ADD DUP3 PUSH2 0x13C8 JUMP JUMPDEST POP PUSH2 0x1954 PUSH1 0x40 DUP5 ADD DUP5 PUSH2 0x17F8 JUMP JUMPDEST PUSH2 0x1961 PUSH1 0x40 DUP7 ADD DUP3 PUSH2 0x180F JUMP JUMPDEST POP PUSH2 0x196F PUSH1 0x60 DUP5 ADD DUP5 PUSH2 0x17F8 JUMP JUMPDEST PUSH2 0x197C PUSH1 0x60 DUP7 ADD DUP3 PUSH2 0x180F JUMP JUMPDEST POP PUSH2 0x198A PUSH1 0x80 DUP5 ADD DUP5 PUSH2 0x17F8 JUMP JUMPDEST PUSH2 0x1997 PUSH1 0x80 DUP7 ADD DUP3 PUSH2 0x180F JUMP JUMPDEST POP PUSH2 0x19A5 PUSH1 0xA0 DUP5 ADD DUP5 PUSH2 0x17AB JUMP JUMPDEST PUSH2 0x19B2 PUSH1 0xA0 DUP7 ADD DUP3 PUSH2 0x13C8 JUMP JUMPDEST POP PUSH2 0x19C0 PUSH1 0xC0 DUP5 ADD DUP5 PUSH2 0x182D JUMP JUMPDEST DUP6 DUP4 SUB PUSH1 0xC0 DUP8 ADD MSTORE PUSH2 0x19D3 DUP4 DUP3 DUP5 PUSH2 0x18AF JUMP JUMPDEST SWAP3 POP POP POP DUP1 SWAP2 POP POP SWAP3 SWAP2 POP POP JUMP JUMPDEST PUSH1 0x0 PUSH2 0x19ED DUP4 DUP4 PUSH2 0x190B JUMP JUMPDEST SWAP1 POP SWAP3 SWAP2 POP POP JUMP JUMPDEST PUSH1 0x0 DUP3 CALLDATALOAD PUSH1 0x1 PUSH1 0xE0 SUB DUP4 CALLDATASIZE SUB SUB DUP2 SLT PUSH2 0x1A11 JUMPI PUSH2 0x1A10 PUSH2 0x1828 JUMP JUMPDEST JUMPDEST DUP3 DUP2 ADD SWAP2 POP POP SWAP3 SWAP2 POP POP JUMP JUMPDEST PUSH1 0x0 PUSH1 0x20 DUP3 ADD SWAP1 POP SWAP2 SWAP1 POP JUMP JUMPDEST PUSH1 0x0 PUSH2 0x1A36 DUP4 DUP6 PUSH2 0x1779 JUMP JUMPDEST SWAP4 POP DUP4 PUSH1 0x20 DUP5 MUL DUP6 ADD PUSH2 0x1A48 DUP5 PUSH2 0x178A JUMP JUMPDEST DUP1 PUSH1 0x0 JUMPDEST DUP8 DUP2 LT ISZERO PUSH2 0x1A8C JUMPI DUP5 DUP5 SUB DUP10 MSTORE PUSH2 0x1A63 DUP3 DUP5 PUSH2 0x19F5 JUMP JUMPDEST PUSH2 0x1A6D DUP6 DUP3 PUSH2 0x19E1 JUMP JUMPDEST SWAP5 POP PUSH2 0x1A78 DUP4 PUSH2 0x1A1D JUMP JUMPDEST SWAP3 POP PUSH1 0x20 DUP11 ADD SWAP10 POP POP PUSH1 0x1 DUP2 ADD SWAP1 POP PUSH2 0x1A4C JUMP JUMPDEST POP DUP3 SWAP8 POP DUP8 SWAP5 POP POP POP POP POP SWAP4 SWAP3 POP POP POP JUMP JUMPDEST PUSH1 0x0 PUSH1 0x40 DUP3 ADD SWAP1 POP PUSH2 0x1AB3 PUSH1 0x0 DUP4 ADD DUP7 PUSH2 0x15F1 JUMP JUMPDEST DUP2 DUP2 SUB PUSH1 0x20 DUP4 ADD MSTORE PUSH2 0x1AC6 DUP2 DUP5 DUP7 PUSH2 0x1A2A JUMP JUMPDEST SWAP1 POP SWAP5 SWAP4 POP POP POP POP JUMP JUMPDEST PUSH1 0x0 DUP1 REVERT JUMPDEST PUSH1 0x0 PUSH1 0x1F NOT PUSH1 0x1F DUP4 ADD AND SWAP1 POP SWAP2 SWAP1 POP JUMP JUMPDEST PUSH2 0x1AEF DUP3 PUSH2 0x1AD5 JUMP JUMPDEST DUP2 ADD DUP2 DUP2 LT PUSH8 0xFFFFFFFFFFFFFFFF DUP3 GT OR ISZERO PUSH2 0x1B0E JUMPI PUSH2 0x1B0D PUSH2 0x161B JUMP JUMPDEST JUMPDEST DUP1 PUSH1 0x40 MSTORE POP POP POP JUMP JUMPDEST PUSH1 0x0 PUSH2 0x1B21 PUSH2 0x11DD JUMP JUMPDEST SWAP1 POP PUSH2 0x1B2D DUP3 DUP3 PUSH2 0x1AE6 JUMP JUMPDEST SWAP2 SWAP1 POP JUMP JUMPDEST PUSH2 0x1B3B DUP2 PUSH2 0x1377 JUMP JUMPDEST DUP2 EQ PUSH2 0x1B46 JUMPI PUSH1 0x0 DUP1 REVERT JUMPDEST POP JUMP JUMPDEST PUSH1 0x0 DUP2 CALLDATALOAD SWAP1 POP PUSH2 0x1B58 DUP2 PUSH2 0x1B32 JUMP JUMPDEST SWAP3 SWAP2 POP POP JUMP JUMPDEST PUSH1 0x0 PUSH20 0xFFFFFFFFFFFFFFFFFFFFFFFFFFFFFFFFFFFFFFFF DUP3 AND SWAP1 POP SWAP2 SWAP1 POP JUMP JUMPDEST PUSH1 0x0 PUSH2 0x1B89 DUP3 PUSH2 0x1B5E JUMP JUMPDEST SWAP1 POP SWAP2 SWAP1 POP JUMP JUMPDEST PUSH2 0x1B99 DUP2 PUSH2 0x1B7E JUMP JUMPDEST DUP2 EQ PUSH2 0x1BA4 JUMPI PUSH1 0x0 DUP1 REVERT JUMPDEST POP JUMP JUMPDEST PUSH1 0x0 DUP2 CALLDATALOAD SWAP1 POP PUSH2 0x1BB6 DUP2 PUSH2 0x1B90 JUMP JUMPDEST SWAP3 SWAP2 POP POP JUMP JUMPDEST PUSH1 0x0 PUSH1 0xFF DUP3 AND SWAP1 POP SWAP2 SWAP1 POP JUMP JUMPDEST PUSH2 0x1BD2 DUP2 PUSH2 0x1BBC JUMP JUMPDEST DUP2 EQ PUSH2 0x1BDD JUMPI PUSH1 0x0 DUP1 REVERT JUMPDEST POP JUMP JUMPDEST PUSH1 0x0 DUP2 CALLDATALOAD SWAP1 POP PUSH2 0x1BEF DUP2 PUSH2 0x1BC9 JUMP JUMPDEST SWAP3 SWAP2 POP POP JUMP JUMPDEST PUSH1 0x0 PUSH1 0xE0 DUP3 DUP5 SUB SLT ISZERO PUSH2 0x1C0B JUMPI PUSH2 0x1C0A PUSH2 0x1AD0 JUMP JUMPDEST JUMPDEST PUSH2 0x1C15 PUSH1 0xE0 PUSH2 0x1B17 JUMP JUMPDEST SWAP1 POP PUSH1 0x0 PUSH2 0x1C25 DUP5 DUP3 DUP6 ADD PUSH2 0x157C JUMP JUMPDEST PUSH1 0x0 DUP4 ADD MSTORE POP PUSH1 0x20 PUSH2 0x1C39 DUP5 DUP3 DUP6 ADD PUSH2 0x1B49 JUMP JUMPDEST PUSH1 0x20 DUP4 ADD MSTORE POP PUSH1 0x40 PUSH2 0x1C4D DUP5 DUP3 DUP6 ADD PUSH2 0x17E3 JUMP JUMPDEST PUSH1 0x40 DUP4 ADD MSTORE POP PUSH1 0x60 PUSH2 0x1C61 DUP5 DUP3 DUP6 ADD PUSH2 0x157C JUMP JUMPDEST PUSH1 0x60 DUP4 ADD MSTORE POP PUSH1 0x80 PUSH2 0x1C75 DUP5 DUP3 DUP6 ADD PUSH2 0x1BA7 JUMP JUMPDEST PUSH1 0x80 DUP4 ADD MSTORE POP PUSH1 0xA0 PUSH2 0x1C89 DUP5 DUP3 DUP6 ADD PUSH2 0x1B49 JUMP JUMPDEST PUSH1 0xA0 DUP4 ADD MSTORE POP PUSH1 0xC0 PUSH2 0x1C9D DUP5 DUP3 DUP6 ADD PUSH2 0x1BE0 JUMP JUMPDEST PUSH1 0xC0 DUP4 ADD MSTORE POP SWAP3 SWAP2 POP POP JUMP JUMPDEST PUSH1 0x0 PUSH1 0xE0 DUP3 DUP5 SUB SLT ISZERO PUSH2 0x1CBF JUMPI PUSH2 0x1CBE PUSH2 0x11E7 JUMP JUMPDEST JUMPDEST PUSH1 0x0 PUSH2 0x1CCD DUP5 DUP3 DUP6 ADD PUSH2 0x1BF5 JUMP JUMPDEST SWAP2 POP POP SWAP3 SWAP2 POP POP JUMP JUMPDEST PUSH1 0x0 DUP1 DUP4 CALLDATALOAD PUSH1 0x1 PUSH1 0x20 SUB DUP5 CALLDATASIZE SUB SUB DUP2 SLT PUSH2 0x1CF3 JUMPI PUSH2 0x1CF2 PUSH2 0x1679 JUMP JUMPDEST JUMPDEST DUP1 DUP5 ADD SWAP3 POP DUP3 CALLDATALOAD SWAP2 POP PUSH8 0xFFFFFFFFFFFFFFFF DUP3 GT ISZERO PUSH2 0x1D15 JUMPI PUSH2 0x1D14 PUSH2 0x167E JUMP JUMPDEST JUMPDEST PUSH1 0x20 DUP4 ADD SWAP3 POP PUSH1 0x20 DUP3 MUL CALLDATASIZE SUB DUP4 SGT ISZERO PUSH2 0x1D31 JUMPI PUSH2 0x1D30 PUSH2 0x1683 JUMP JUMPDEST JUMPDEST POP SWAP3 POP SWAP3 SWAP1 POP JUMP JUMPDEST PUSH1 0x0 PUSH2 0x1D44 DUP3 PUSH2 0x12AC JUMP JUMPDEST SWAP2 POP PUSH2 0x1D4F DUP4 PUSH2 0x12AC JUMP JUMPDEST SWAP3 POP DUP3 DUP3 SUB SWAP1 POP DUP2 DUP2 GT ISZERO PUSH2 0x1D67 JUMPI PUSH2 0x1D66 PUSH2 0x1702 JUMP JUMPDEST JUMPDEST SWAP3 SWAP2 POP POP JUMP INVALID LOG2 PUSH5 0x6970667358 0x22 SLT KECCAK256 DUP2 0xD2 PUSH3 0x2CE34C 0xC6 0x28 NOT PUSH20 0x7A76A9DAB5BE2142DA02DACD63852D7E08726828 0xB6 0x2F PUSH5 0x736F6C6343 STOP ADDMOD EQ STOP CALLER "},"methodIdentifiers":{"hashSpec(bytes32,(uint8,bytes32,int256,int256,int256,bytes32,bytes32[])[])":"cadee6af","verify((bytes32,bool,int256,bytes32,address,bool,uint8)[],(uint8,bytes32,int256,int256,int256,bytes32,bytes32[])[],uint256)":"389ad449"}}}}}