{
  "_format": "hh-sol-artifact-1",
  "contractName": "VerifierV1",
  "sourceName": "contracts/VerifierV1.sol",
  "abi": [
    {
      "inputs": [
        {
          "internalType": "bytes32",
          "name": "schemaHash",
          "type": "bytes32"
        },
        {
          "components": [
            {
              "internalType": "enum VerifierV1.ConstraintType",
              "name": "constraintType",
              "type": "uint8"
            },
            {
              "internalType": "bytes32",
              "name": "fieldKey",
              "type": "bytes32"
            },
            {
              "internalType": "int256",
              "name": "minValue",
              "type": "int256"
            },
            {
              "internalType": "int256",
              "name": "maxValue",
              "type": "int256"
            },
            {
              "internalType": "int256",
              "name": "expectedValue",
              "type": "int256"
            },
            {
              "internalType": "bytes32",
              "name": "expectedHash",
              "type": "bytes32"
            },
            {
              "internalType": "bytes32[]",
              "name": "enumMembers",
              "type": "bytes32[]"
            }
          ],
          "internalType": "struct VerifierV1.Constraint[]",
          "name": "constraints",
          "type": "tuple[]"
        }
      ],
      "name": "hashSpec",
      "outputs": [
        {
          "internalType": "bytes32",
          "name": "",
          "type": "bytes32"
        }
      ],
      "stateMutability": "pure",
      "type": "function"
    },
    {
      "inputs": [
        {
          "components": [
            {
              "internalType": "bytes32",
              "name": "fieldKey",
              "type": "bytes32"
            },
            {
              "internalType": "bool",
              "name": "exists",
              "type": "bool"
            },
            {
              "internalType": "int256",
              "name": "intValue",
              "type": "int256"
            },
            {
              "internalType": "bytes32",
              "name": "hashValue",
              "type": "bytes32"
            },
            {
              "internalType": "address",
              "name": "addrValue",
              "type": "address"
            },
            {
              "internalType": "bool",
              "name": "boolValue",
              "type": "bool"
            },
            {
              "internalType": "uint8",
              "name": "valueType",
              "type": "uint8"
            }
          ],
          "internalType": "struct VerifierV1.FieldValue[]",
          "name": "fields",
          "type": "tuple[]"
        },
        {
          "components": [
            {
              "internalType": "enum VerifierV1.ConstraintType",
              "name": "constraintType",
              "type": "uint8"
            },
            {
              "internalType": "bytes32",
              "name": "fieldKey",
              "type": "bytes32"
            },
            {
              "internalType": "int256",
              "name": "minValue",
              "type": "int256"
            },
            {
              "internalType": "int256",
              "name": "maxValue",
              "type": "int256"
            },
            {
              "internalType": "int256",
              "name": "expectedValue",
              "type": "int256"
            },
            {
              "internalType": "bytes32",
              "name": "expectedHash",
              "type": "bytes32"
            },
            {
              "internalType": "bytes32[]",
              "name": "enumMembers",
              "type": "bytes32[]"
            }
          ],
          "internalType": "struct VerifierV1.Constraint[]",
          "name": "constraints",
          "type": "tuple[]"
        },
        {
          "internalType": "uint256",
          "name": "deadline",
          "type": "uint256"
        }
      ],
      "name": "verify",
      "outputs": [
        {
          "internalType": "bool",
          "name": "passed",
          "type": "bool"
        },
        {
          "components": [
            {
              "internalType": "bytes32",
              "name": "fieldKey",
              "type": "bytes32"
            },
            {
              "internalType": "enum VerifierV1.ConstraintType",
              "name": "constraintType",
              "type": "uint8"
            },
            {
              "internalType": "bool",
              "name": "passed",
              "type": "bool"
            },
            {
              "internalType": "bytes32",
              "name": "reason",
              "type": "bytes32"
            }
          ],
          "internalType": "struct VerifierV1.VerificationTrace[]",
          "name": "trace",
          "type": "tuple[]"
        }
      ],
      "stateMutability": "view",
      "type": "function"
    }
  ],
  "bytecode": "0x608060405234801561001057600080fd5b50611da3806100206000396000f3fe608060405234801561001057600080fd5b50600436106100365760003560e01c8063389ad4491461003b578063cadee6af1461006c575b600080fd5b610055600480360381019061005091906112e2565b61009c565b604051610063929190611535565b60405180910390f35b61008660048036038101906100819190611591565b6101f2565b6040516100939190611600565b60405180910390f35b600060608484905067ffffffffffffffff8111156100bd576100bc61161b565b5b6040519080825280602002602001820160405280156100f657816020015b6100e361113b565b8152602001906001900390816100db5790505b5090506001915060005b858590508110156101e7573686868381811061011f5761011e61164a565b5b90506020028101906101319190611688565b90506000806101458b8b8560200135610228565b915091506000806101588585858c6102e6565b9150915060405180608001604052808660200135815260200186600001602081019061018491906116d5565b600a811115610196576101956113d7565b5b81526020018315158152602001828152508787815181106101ba576101b961164a565b5b6020026020010181905250816101cf57600097505b505050505080806101df90611731565b915050610100565b509550959350505050565b600083838360405160200161020993929190611a9e565b6040516020818303038152906040528051906020012090509392505050565b61023061117d565b600080600090505b858590508110156102b157838686838181106102575761025661164a565b5b905060e00201600001350361029e578585828181106102795761027861164a565b5b905060e002016001818036038101906102929190611ca9565b915092509250506102de565b80806102a990611731565b915050610238565b506102ba61117d565b83816000018181525050600081602001901515908115158152505080600092509250505b935093915050565b6000806000600a8111156102fd576102fc6113d7565b5b86600001602081019061031091906116d5565b600a811115610322576103216113d7565b5b03610391576000848015610337575085602001515b90508081610365577f4649454c445f4d495353494e4700000000000000000000000000000000000000610387565b7f4f4b0000000000000000000000000000000000000000000000000000000000005b9250925050611132565b8315806103a057508460200151155b156103d15760007f4649454c445f4d495353494e470000000000000000000000000000000000000091509150611132565b6001600a8111156103e5576103e46113d7565b5b8660000160208101906103f891906116d5565b600a81111561040a576104096113d7565b5b036106a85760006003811115610423576104226113d7565b5b60ff168560c0015160ff160361049a57600086608001358660400151149050808161046e577f455155414c535f4641494c000000000000000000000000000000000000000000610490565b7f4f4b0000000000000000000000000000000000000000000000000000000000005b9250925050611132565b600160038111156104ae576104ad6113d7565b5b60ff168560c0015160ff16036105255760008660a00135866060015114905080816104f9577f455155414c535f4641494c00000000000000000000000000000000000000000061051b565b7f4f4b0000000000000000000000000000000000000000000000000000000000005b9250925050611132565b60026003811115610539576105386113d7565b5b60ff168560c0015160ff16036105e55760008660a0013560001c905060008173ffffffffffffffffffffffffffffffffffffffff16876080015173ffffffffffffffffffffffffffffffffffffffff1614905080816105b8577f455155414c535f4641494c0000000000000000000000000000000000000000006105da565b7f4f4b0000000000000000000000000000000000000000000000000000000000005b935093505050611132565b6003808111156105f8576105f76113d7565b5b60ff168560c0015160ff160361067c5760008087608001351415905060008115158760a001511515149050808161064f577f455155414c535f4641494c000000000000000000000000000000000000000000610671565b7f4f4b0000000000000000000000000000000000000000000000000000000000005b935093505050611132565b60007f554e535550504f525445445f545950450000000000000000000000000000000091509150611132565b6002600a8111156106bc576106bb6113d7565b5b8660000160208101906106cf91906116d5565b600a8111156106e1576106e06113d7565b5b036107b257600060038111156106fa576106f96113d7565b5b60ff168560c0015160ff16146107365760007f545950455f4d49534d415443480000000000000000000000000000000000000091509150611132565b6000866040013586604001511215801561075857508660600135866040015113155b90508081610786577f52414e47455f4641494c000000000000000000000000000000000000000000006107a8565b7f4f4b0000000000000000000000000000000000000000000000000000000000005b9250925050611132565b6003600a8111156107c6576107c56113d7565b5b8660000160208101906107d991906116d5565b600a8111156107eb576107ea6113d7565b5b036108a75760016003811115610804576108036113d7565b5b60ff168560c0015160ff16146108405760007f545950455f4d49534d415443480000000000000000000000000000000000000091509150611132565b60008660a001358660600151149050808161087b577f484153485f4d49534d415443480000000000000000000000000000000000000061089d565b7f4f4b0000000000000000000000000000000000000000000000000000000000005b9250925050611132565b6004600a8111156108bb576108ba6113d7565b5b8660000160208101906108ce91906116d5565b600a8111156108e0576108df6113d7565b5b036109e457600060038111156108f9576108f86113d7565b5b60ff168560c0015160ff16146109355760007f545950455f4d49534d415443480000000000000000000000000000000000000091509150611132565b60008560400151121561096e5760007f494e56414c49445f54494d455354414d5000000000000000000000000000000091509150611132565b60008560400151905060008482111580156109895750844211155b905080816109b7577f444541444c494e455f4641494c000000000000000000000000000000000000006109d9565b7f4f4b0000000000000000000000000000000000000000000000000000000000005b935093505050611132565b6005600a8111156109f8576109f76113d7565b5b866000016020810190610a0b91906116d5565b600a811115610a1d57610a1c6113d7565b5b03610b0e5760026003811115610a3657610a356113d7565b5b60ff168560c0015160ff1614610a725760007f545950455f4d49534d415443480000000000000000000000000000000000000091509150611132565b60008660a0013560001c905060008173ffffffffffffffffffffffffffffffffffffffff16876080015173ffffffffffffffffffffffffffffffffffffffff161490508081610ae1577f5349474e45525f4d49534d415443480000000000000000000000000000000000610b03565b7f4f4b0000000000000000000000000000000000000000000000000000000000005b935093505050611132565b6006600a811115610b2257610b216113d7565b5b866000016020810190610b3591906116d5565b600a811115610b4757610b466113d7565b5b03610c575760016003811115610b6057610b5f6113d7565b5b60ff168560c0015160ff1614610b9c5760007f545950455f4d49534d415443480000000000000000000000000000000000000091509150611132565b60005b868060c00190610baf9190611cd6565b9050811015610c2a57868060c00190610bc89190611cd6565b82818110610bd957610bd861164a565b5b90506020020135866060015103610c175760017f4f4b0000000000000000000000000000000000000000000000000000000000009250925050611132565b8080610c2290611731565b915050610b9f565b5060007f4e4f545f494e5f454e554d00000000000000000000000000000000000000000091509150611132565b6007600a811115610c6b57610c6a6113d7565b5b866000016020810190610c7e91906116d5565b600a811115610c9057610c8f6113d7565b5b03610da35760006003811115610ca957610ca86113d7565b5b60ff168560c0015160ff1614610ce55760007f545950455f4d49534d415443480000000000000000000000000000000000000091509150611132565b600085604001511215610d1e5760007f494e56414c49445f54494d455354414d5000000000000000000000000000000091509150611132565b6000856040015190506000814210158015610d48575087608001358242610d459190611d39565b11155b90508081610d76577f5354414c455f4441544100000000000000000000000000000000000000000000610d98565b7f4f4b0000000000000000000000000000000000000000000000000000000000005b935093505050611132565b6008600a811115610db757610db66113d7565b5b866000016020810190610dca91906116d5565b600a811115610ddc57610ddb6113d7565b5b03610ead5760006003811115610df557610df46113d7565b5b60ff168560c0015160ff1614610e315760007f545950455f4d49534d415443480000000000000000000000000000000000000091509150611132565b60008660400135866040015112158015610e5357508660600135866040015113155b90508081610e81577f54494d455354414d505f57494e444f575f4641494c0000000000000000000000610ea3565b7f4f4b0000000000000000000000000000000000000000000000000000000000005b9250925050611132565b6009600a811115610ec157610ec06113d7565b5b866000016020810190610ed491906116d5565b600a811115610ee657610ee56113d7565b5b03610fa25760016003811115610eff57610efe6113d7565b5b60ff168560c0015160ff1614610f3b5760007f545950455f4d49534d415443480000000000000000000000000000000000000091509150611132565b60008660a0013586606001511490508081610f76577f4d45524b4c455f524f4f545f4d49534d41544348000000000000000000000000610f98565b7f4f4b0000000000000000000000000000000000000000000000000000000000005b9250925050611132565b600a80811115610fb557610fb46113d7565b5b866000016020810190610fc891906116d5565b600a811115610fda57610fd96113d7565b5b0361110a5760026003811115610ff357610ff26113d7565b5b60ff168560c0015160ff161461102f5760007f545950455f4d49534d415443480000000000000000000000000000000000000091509150611132565b6000856080015173ffffffffffffffffffffffffffffffffffffffff1660001b905060005b878060c001906110649190611cd6565b90508110156110dc57878060c0019061107d9190611cd6565b8281811061108e5761108d61164a565b5b9050602002013582036110c95760017f4f4b000000000000000000000000000000000000000000000000000000000000935093505050611132565b80806110d490611731565b915050611054565b5060007f5349474e45525f4e4f545f414c4c4f57454400000000000000000000000000009250925050611132565b60007f554e4b4e4f574e5f434f4e53545241494e540000000000000000000000000000915091505b94509492505050565b6040518060800160405280600080191681526020016000600a811115611164576111636113d7565b5b8152602001600015158152602001600080191681525090565b6040518060e00160405280600080191681526020016000151581526020016000815260200160008019168152602001600073ffffffffffffffffffffffffffffffffffffffff168152602001600015158152602001600060ff1681525090565b6000604051905090565b600080fd5b600080fd5b600080fd5b600080fd5b600080fd5b60008083601f840112611216576112156111f1565b5b8235905067ffffffffffffffff811115611233576112326111f6565b5b6020830191508360e082028301111561124f5761124e6111fb565b5b9250929050565b60008083601f84011261126c5761126b6111f1565b5b8235905067ffffffffffffffff811115611289576112886111f6565b5b6020830191508360208202830111156112a5576112a46111fb565b5b9250929050565b6000819050919050565b6112bf816112ac565b81146112ca57600080fd5b50565b6000813590506112dc816112b6565b92915050565b6000806000806000606086880312156112fe576112fd6111e7565b5b600086013567ffffffffffffffff81111561131c5761131b6111ec565b5b61132888828901611200565b9550955050602086013567ffffffffffffffff81111561134b5761134a6111ec565b5b61135788828901611256565b9350935050604061136a888289016112cd565b9150509295509295909350565b60008115159050919050565b61138c81611377565b82525050565b600081519050919050565b600082825260208201905092915050565b6000819050602082019050919050565b6000819050919050565b6113d1816113be565b82525050565b7f4e487b7100000000000000000000000000000000000000000000000000000000600052602160045260246000fd5b600b8110611417576114166113d7565b5b50565b600081905061142882611406565b919050565b60006114388261141a565b9050919050565b6114488161142d565b82525050565b61145781611377565b82525050565b60808201600082015161147360008501826113c8565b506020820151611486602085018261143f565b506040820151611499604085018261144e565b5060608201516114ac60608501826113c8565b50505050565b60006114be838361145d565b60808301905092915050565b6000602082019050919050565b60006114e282611392565b6114ec818561139d565b93506114f7836113ae565b8060005b8381101561152857815161150f88826114b2565b975061151a836114ca565b9250506001810190506114fb565b5085935050505092915050565b600060408201905061154a6000830185611383565b818103602083015261155c81846114d7565b90509392505050565b61156e816113be565b811461157957600080fd5b50565b60008135905061158b81611565565b92915050565b6000806000604084860312156115aa576115a96111e7565b5b60006115b88682870161157c565b935050602084013567ffffffffffffffff8111156115d9576115d86111ec565b5b6115e586828701611256565b92509250509250925092565b6115fa816113be565b82525050565b600060208201905061161560008301846115f1565b92915050565b7f4e487b7100000000000000000000000000000000000000000000000000000000600052604160045260246000fd5b7f4e487b7100000000000000000000000000000000000000000000000000000000600052603260045260246000fd5b600080fd5b600080fd5b600080fd5b60008235600160e0038336030381126116a4576116a3611679565b5b80830191505092915050565b600b81106116bd57600080fd5b50565b6000813590506116cf816116b0565b92915050565b6000602082840312156116eb576116ea6111e7565b5b60006116f9848285016116c0565b91505092915050565b7f4e487b7100000000000000000000000000000000000000000000000000000000600052601160045260246000fd5b600061173c826112ac565b91507fffffffffffffffffffffffffffffffffffffffffffffffffffffffffffffffff820361176e5761176d611702565b5b600182019050919050565b600082825260208201905092915050565b6000819050919050565b60006117a360208401846116c0565b905092915050565b60006117ba602084018461157c565b905092915050565b6000819050919050565b6117d5816117c2565b81146117e057600080fd5b50565b6000813590506117f2816117cc565b92915050565b600061180760208401846117e3565b905092915050565b611818816117c2565b82525050565b600080fd5b600080fd5b600080fd5b6000808335600160200384360303811261184a57611849611828565b5b83810192508235915060208301925067ffffffffffffffff8211156118725761187161181e565b5b60208202360383131561188857611887611823565b5b509250929050565b600082825260208201905092915050565b600080fd5b82818337505050565b60006118bb8385611890565b93507f07ffffffffffffffffffffffffffffffffffffffffffffffffffffffffffffff8311156118ee576118ed6118a1565b5b6020830292506118ff8385846118a6565b82840190509392505050565b600060e0830161191e6000840184611794565b61192b600086018261143f565b5061193960208401846117ab565b61194660208601826113c8565b5061195460408401846117f8565b611961604086018261180f565b5061196f60608401846117f8565b61197c606086018261180f565b5061198a60808401846117f8565b611997608086018261180f565b506119a560a08401846117ab565b6119b260a08601826113c8565b506119c060c084018461182d565b85830360c08701526119d38382846118af565b925050508091505092915050565b60006119ed838361190b565b905092915050565b60008235600160e003833603038112611a1157611a10611828565b5b82810191505092915050565b6000602082019050919050565b6000611a368385611779565b935083602084028501611a488461178a565b8060005b87811015611a8c578484038952611a6382846119f5565b611a6d85826119e1565b9450611a7883611a1d565b925060208a01995050600181019050611a4c565b50829750879450505050509392505050565b6000604082019050611ab360008301866115f1565b8181036020830152611ac6818486611a2a565b9050949350505050565b600080fd5b6000601f19601f8301169050919050565b611aef82611ad5565b810181811067ffffffffffffffff82111715611b0e57611b0d61161b565b5b80604052505050565b6000611b216111dd565b9050611b2d8282611ae6565b919050565b611b3b81611377565b8114611b4657600080fd5b50565b600081359050611b5881611b32565b92915050565b600073ffffffffffffffffffffffffffffffffffffffff82169050919050565b6000611b8982611b5e565b9050919050565b611b9981611b7e565b8114611ba457600080fd5b50565b600081359050611bb681611b90565b92915050565b600060ff82169050919050565b611bd281611bbc565b8114611bdd57600080fd5b50565b600081359050611bef81611bc9565b92915050565b600060e08284031215611c0b57611c0a611ad0565b5b611c1560e0611b17565b90506000611c258482850161157c565b6000830152506020611c3984828501611b49565b6020830152506040611c4d848285016117e3565b6040830152506060611c618482850161157c565b6060830152506080611c7584828501611ba7565b60808301525060a0611c8984828501611b49565b60a08301525060c0611c9d84828501611be0565b60c08301525092915050565b600060e08284031215611cbf57611cbe6111e7565b5b6000611ccd84828501611bf5565b91505092915050565b60008083356001602003843603038112611cf357611cf2611679565b5b80840192508235915067ffffffffffffffff821115611d1557611d1461167e565b5b602083019250602082023603831315611d3157611d30611683565b5b509250929050565b6000611d44826112ac565b9150611d4f836112ac565b9250828203905081811115611d6757611d66611702565b5b9291505056fea264697066735822122081d2622ce34cc62819737a76a9dab5be2142da02dacd63852d7e08726828b62f64736f6c63430008140033",
  "linkReferences": {},
  "deployedLinkReferences": {}
}