{
  "_format": "hh-sol-artifact-1",
  "contractName": "AttestationRegistry",
  "sourceName": "contracts/AttestationRegistry.sol",
  "abi": [
    {
      "inputs": [],
      "stateMutability": "nonpayable",
      "type": "constructor"
    },
    {
      "anonymous": false,
      "inputs": [
        {
          "indexed": true,
          "internalType": "bytes32",
          "name": "taskId",
          "type": "bytes32"
        },
        {
          "indexed": true,
          "internalType": "address",
          "name": "provider",
          "type": "address"
        },
        {
          "indexed": false,
          "internalType": "bool",
          "name": "passed",
          "type": "bool"
        },
        {
          "indexed": false,
          "internalType": "uint256",
          "name": "timestamp",
          "type": "uint256"
        }
      ],
      "name": "AttestationRecorded",
      "type": "event"
    },
    {
      "anonymous": false,
      "inputs": [
        {
          "indexed": true,
          "internalType": "address",
          "name": "newTaskCommitment",
          "type": "address"
        }
      ],
      "name": "TaskCommitmentUpdated",
      "type": "event"
    },
    {
      "inputs": [
        {
          "internalType": "uint256",
          "name": "",
          "type": "uint256"
        }
      ],
      "name": "allAttestations",
      "outputs": [
        {
          "internalType": "bytes32",
          "name": "",
          "type": "bytes32"
        }
      ],
      "stateMutability": "view",
      "type": "function"
    },
    {
      "inputs": [
        {
          "internalType": "bytes32",
          "name": "",
          "type": "bytes32"
        }
      ],
      "name": "attestations",
      "outputs": [
        {
          "internalType": "bytes32",
          "name": "taskId",
          "type": "bytes32"
        },
        {
          "internalType": "address",
          "name": "provider",
          "type": "address"
        },
        {
          "internalType": "bool",
          "name": "passed",
          "type": "bool"
        },
        {
          "internalType": "uint256",
          "name": "timestamp",
          "type": "uint256"
        },
        {
          "internalType": "uint256",
          "name": "blockNumber",
          "type": "uint256"
        }
      ],
      "stateMutability": "view",
      "type": "function"
    },
    {
      "inputs": [
        {
          "internalType": "bytes32",
          "name": "taskId",
          "type": "bytes32"
        }
      ],
      "name": "getAttestation",
      "outputs": [
        {
          "components": [
            {
              "internalType": "bytes32",
              "name": "taskId",
              "type": "bytes32"
            },
            {
              "internalType": "address",
              "name": "provider",
              "type": "address"
            },
            {
              "internalType": "bool",
              "name": "passed",
              "type": "bool"
            },
            {
              "internalType": "uint256",
              "name": "timestamp",
              "type": "uint256"
            },
            {
              "internalType": "uint256",
              "name": "blockNumber",
              "type": "uint256"
            }
          ],
          "internalType": "struct AttestationRegistry.Attestation",
          "name": "",
          "type": "tuple"
        }
      ],
      "stateMutability": "view",
      "type": "function"
    },
    {
      "inputs": [
        {
          "internalType": "address",
          "name": "provider",
          "type": "address"
        }
      ],
      "name": "getProviderHistory",
      "outputs": [
        {
          "internalType": "bytes32[]",
          "name": "",
          "type": "bytes32[]"
        }
      ],
      "stateMutability": "view",
      "type": "function"
    },
    {
      "inputs": [
        {
          "internalType": "address",
          "name": "provider",
          "type": "address"
        }
      ],
      "name": "getProviderStats",
      "outputs": [
        {
          "internalType": "uint256",
          "name": "totalTasks",
          "type": "uint256"
        },
        {
          "internalType": "uint256",
          "name": "passed",
          "type": "uint256"
        },
        {
          "internalType": "uint256",
          "name": "failed",
          "type": "uint256"
        },
        {
          "internalType": "uint256",
          "name": "successRate",
          "type": "uint256"
        }
      ],
      "stateMutability": "view",
      "type": "function"
    },
    {
      "inputs": [],
      "name": "getTotalAttestations",
      "outputs": [
        {
          "internalType": "uint256",
          "name": "",
          "type": "uint256"
        }
      ],
      "stateMutability": "view",
      "type": "function"
    },
    {
      "inputs": [],
      "name": "owner",
      "outputs": [
        {
          "internalType": "address",
          "name": "",
          "type": "address"
        }
      ],
      "stateMutability": "view",
      "type": "function"
    },
    {
      "inputs": [
        {
          "internalType": "address",
          "name": "",
          "type": "address"
        }
      ],
      "name": "providerFailCount",
      "outputs": [
        {
          "internalType": "uint256",
          "name": "",
          "type": "uint256"
        }
      ],
      "stateMutability": "view",
      "type": "function"
    },
    {
      "inputs": [
        {
          "internalType": "address",
          "name": "",
          "type": "address"
        },
        {
          "internalType": "uint256",
          "name": "",
          "type": "uint256"
        }
      ],
      "name": "providerHistory",
      "outputs": [
        {
          "internalType": "bytes32",
          "name": "",
          "type": "bytes32"
        }
      ],
      "stateMutability": "view",
      "type": "function"
    },
    {
      "inputs": [
        {
          "internalType": "address",
          "name": "",
          "type": "address"
        }
      ],
      "name": "providerPassCount",
      "outputs": [
        {
          "internalType": "uint256",
          "name": "",
          "type": "uint256"
        }
      ],
      "stateMutability": "view",
      "type": "function"
    },
    {
      "inputs": [
        {
          "internalType": "bytes32",
          "name": "taskId",
          "type": "bytes32"
        },
        {
          "internalType": "bool",
          "name": "passed",
          "type": "bool"
        },
        {
          "internalType": "address",
          "name": "provider",
          "type": "address"
        }
      ],
      "name": "record",
      "outputs": [],
      "stateMutability": "nonpayable",
      "type": "function"
    },
    {
      "inputs": [
        {
          "internalType": "address",
          "name": "_taskCommitment",
          "type": "address"
        }
      ],
      "name": "setTaskCommitment",
      "outputs": [],
      "stateMutability": "nonpayable",
      "type": "function"
    },
    {
      "inputs": [],
      "name": "taskCommitment",
      "outputs": [
        {
          "internalType": "address",
          "name": "",
          "type": "address"
        }
      ],
      "stateMutability": "view",
      "type": "function"
    }
  ],
  "bytecode": "0x60a060405234801561001057600080fd5b503373ffffffffffffffffffffffffffffffffffffffff1660808173ffffffffffffffffffffffffffffffffffffffff16815250506080516114a4610067600039600081816107e2015261086901526114a46000f3fe608060405234801561001057600080fd5b50600436106100cf5760003560e01c80638da5cb5b1161008c578063a3112a6411610066578063a3112a641461023c578063bc42887b1461026c578063e5e75b7d1461029c578063e9342f27146102cf576100cf565b80638da5cb5b146101ce578063940992a3146101ec5780639f998ec414610220576100cf565b8063028b53ed146100d45780631914e002146101045780631ef3383014610134578063279a9b741461015257806355a7a6cc14610182578063632dfb0b146101b2575b600080fd5b6100ee60048036038101906100e99190610c30565b6102ed565b6040516100fb9190610c76565b60405180910390f35b61011e60048036038101906101199190610cef565b610311565b60405161012b9190610dda565b60405180910390f35b61013c6103a8565b6040516101499190610e0b565b60405180910390f35b61016c60048036038101906101679190610e26565b6103cc565b6040516101799190610c76565b60405180910390f35b61019c60048036038101906101979190610cef565b6103fd565b6040516101a99190610e75565b60405180910390f35b6101cc60048036038101906101c79190610ef4565b610415565b005b6101d66107e0565b6040516101e39190610e0b565b60405180910390f35b61020660048036038101906102019190610f47565b610804565b604051610217959493929190610f83565b60405180910390f35b61023a60048036038101906102359190610cef565b610867565b005b61025660048036038101906102519190610f47565b6109ea565b604051610263919061106b565b60405180910390f35b61028660048036038101906102819190610cef565b610aa6565b6040516102939190610e75565b60405180910390f35b6102b660048036038101906102b19190610cef565b610abe565b6040516102c69493929190611086565b60405180910390f35b6102d7610b9e565b6040516102e49190610e75565b60405180910390f35b600581815481106102fd57600080fd5b906000526020600020016000915090505481565b6060600260008373ffffffffffffffffffffffffffffffffffffffff1673ffffffffffffffffffffffffffffffffffffffff16815260200190815260200160002080548060200260200160405190810160405280929190818152602001828054801561039c57602002820191906000526020600020905b815481526020019060010190808311610388575b50505050509050919050565b60008054906101000a900473ffffffffffffffffffffffffffffffffffffffff1681565b600260205281600052604060002081815481106103e857600080fd5b90600052602060002001600091509150505481565b60036020528060005260406000206000915090505481565b60008054906101000a900473ffffffffffffffffffffffffffffffffffffffff1673ffffffffffffffffffffffffffffffffffffffff163373ffffffffffffffffffffffffffffffffffffffff16146104a3576040517f08c379a000000000000000000000000000000000000000000000000000000000815260040161049a90611128565b60405180910390fd5b60006001600085815260200190815260200160002060020154146104fc576040517f08c379a00000000000000000000000000000000000000000000000000000000081526004016104f390611194565b60405180910390fd5b600073ffffffffffffffffffffffffffffffffffffffff168173ffffffffffffffffffffffffffffffffffffffff160361056b576040517f08c379a000000000000000000000000000000000000000000000000000000000815260040161056290611200565b60405180910390fd5b6040518060a001604052808481526020018273ffffffffffffffffffffffffffffffffffffffff168152602001831515815260200142815260200143815250600160008581526020019081526020016000206000820151816000015560208201518160010160006101000a81548173ffffffffffffffffffffffffffffffffffffffff021916908373ffffffffffffffffffffffffffffffffffffffff16021790555060408201518160010160146101000a81548160ff0219169083151502179055506060820151816002015560808201518160030155905050600260008273ffffffffffffffffffffffffffffffffffffffff1673ffffffffffffffffffffffffffffffffffffffff1681526020019081526020016000208390806001815401808255809150506001900390600052602060002001600090919091909150556005839080600181540180825580915050600190039060005260206000200160009091909190915055811561073457600360008273ffffffffffffffffffffffffffffffffffffffff1673ffffffffffffffffffffffffffffffffffffffff168152602001908152602001600020600081548092919061072a9061124f565b919050555061078a565b600460008273ffffffffffffffffffffffffffffffffffffffff1673ffffffffffffffffffffffffffffffffffffffff16815260200190815260200160002060008154809291906107849061124f565b91905055505b8073ffffffffffffffffffffffffffffffffffffffff16837f42680517ecbc52683b040a271747741740588d61334b8a4d3f4957804339791d84426040516107d3929190611297565b60405180910390a3505050565b7f000000000000000000000000000000000000000000000000000000000000000081565b60016020528060005260406000206000915090508060000154908060010160009054906101000a900473ffffffffffffffffffffffffffffffffffffffff16908060010160149054906101000a900460ff16908060020154908060030154905085565b7f000000000000000000000000000000000000000000000000000000000000000073ffffffffffffffffffffffffffffffffffffffff163373ffffffffffffffffffffffffffffffffffffffff16146108f5576040517f08c379a00000000000000000000000000000000000000000000000000000000081526004016108ec9061130c565b60405180910390fd5b600073ffffffffffffffffffffffffffffffffffffffff168173ffffffffffffffffffffffffffffffffffffffff1603610964576040517f08c379a000000000000000000000000000000000000000000000000000000000815260040161095b90611378565b60405180910390fd5b806000806101000a81548173ffffffffffffffffffffffffffffffffffffffff021916908373ffffffffffffffffffffffffffffffffffffffff1602179055508073ffffffffffffffffffffffffffffffffffffffff167f7b8cc3c7bf35f62a5adfef243abcba768944755655a167e1ccdf53a7197b95df60405160405180910390a250565b6109f2610bab565b600160008381526020019081526020016000206040518060a0016040529081600082015481526020016001820160009054906101000a900473ffffffffffffffffffffffffffffffffffffffff1673ffffffffffffffffffffffffffffffffffffffff1673ffffffffffffffffffffffffffffffffffffffff1681526020016001820160149054906101000a900460ff16151515158152602001600282015481526020016003820154815250509050919050565b60046020528060005260406000206000915090505481565b6000806000806000600360008773ffffffffffffffffffffffffffffffffffffffff1673ffffffffffffffffffffffffffffffffffffffff1681526020019081526020016000205490506000600460008873ffffffffffffffffffffffffffffffffffffffff1673ffffffffffffffffffffffffffffffffffffffff16815260200190815260200160002054905060008183610b5a9190611398565b90506000808214610b825781606485610b7391906113cc565b610b7d919061143d565b610b85565b60005b9050818484839750975097509750505050509193509193565b6000600580549050905090565b6040518060a0016040528060008019168152602001600073ffffffffffffffffffffffffffffffffffffffff16815260200160001515815260200160008152602001600081525090565b600080fd5b6000819050919050565b610c0d81610bfa565b8114610c1857600080fd5b50565b600081359050610c2a81610c04565b92915050565b600060208284031215610c4657610c45610bf5565b5b6000610c5484828501610c1b565b91505092915050565b6000819050919050565b610c7081610c5d565b82525050565b6000602082019050610c8b6000830184610c67565b92915050565b600073ffffffffffffffffffffffffffffffffffffffff82169050919050565b6000610cbc82610c91565b9050919050565b610ccc81610cb1565b8114610cd757600080fd5b50565b600081359050610ce981610cc3565b92915050565b600060208284031215610d0557610d04610bf5565b5b6000610d1384828501610cda565b91505092915050565b600081519050919050565b600082825260208201905092915050565b6000819050602082019050919050565b610d5181610c5d565b82525050565b6000610d638383610d48565b60208301905092915050565b6000602082019050919050565b6000610d8782610d1c565b610d918185610d27565b9350610d9c83610d38565b8060005b83811015610dcd578151610db48882610d57565b9750610dbf83610d6f565b925050600181019050610da0565b5085935050505092915050565b60006020820190508181036000830152610df48184610d7c565b905092915050565b610e0581610cb1565b82525050565b6000602082019050610e206000830184610dfc565b92915050565b60008060408385031215610e3d57610e3c610bf5565b5b6000610e4b85828601610cda565b9250506020610e5c85828601610c1b565b9150509250929050565b610e6f81610bfa565b82525050565b6000602082019050610e8a6000830184610e66565b92915050565b610e9981610c5d565b8114610ea457600080fd5b50565b600081359050610eb681610e90565b92915050565b60008115159050919050565b610ed181610ebc565b8114610edc57600080fd5b50565b600081359050610eee81610ec8565b92915050565b600080600060608486031215610f0d57610f0c610bf5565b5b6000610f1b86828701610ea7565b9350506020610f2c86828701610edf565b9250506040610f3d86828701610cda565b9150509250925092565b600060208284031215610f5d57610f5c610bf5565b5b6000610f6b84828501610ea7565b91505092915050565b610f7d81610ebc565b82525050565b600060a082019050610f986000830188610c67565b610fa56020830187610dfc565b610fb26040830186610f74565b610fbf6060830185610e66565b610fcc6080830184610e66565b9695505050505050565b610fdf81610cb1565b82525050565b610fee81610ebc565b82525050565b610ffd81610bfa565b82525050565b60a0820160008201516110196000850182610d48565b50602082015161102c6020850182610fd6565b50604082015161103f6040850182610fe5565b5060608201516110526060850182610ff4565b5060808201516110656080850182610ff4565b50505050565b600060a0820190506110806000830184611003565b92915050565b600060808201905061109b6000830187610e66565b6110a86020830186610e66565b6110b56040830185610e66565b6110c26060830184610e66565b95945050505050565b600082825260208201905092915050565b7f43616c6c6572206973206e6f74205461736b436f6d6d69746d656e7400000000600082015250565b6000611112601c836110cb565b915061111d826110dc565b602082019050919050565b6000602082019050818103600083015261114181611105565b9050919050565b7f416c726561647920617474657374656400000000000000000000000000000000600082015250565b600061117e6010836110cb565b915061118982611148565b602082019050919050565b600060208201905081810360008301526111ad81611171565b9050919050565b7f5a65726f2070726f766964657200000000000000000000000000000000000000600082015250565b60006111ea600d836110cb565b91506111f5826111b4565b602082019050919050565b60006020820190508181036000830152611219816111dd565b9050919050565b7f4e487b7100000000000000000000000000000000000000000000000000000000600052601160045260246000fd5b600061125a82610bfa565b91507fffffffffffffffffffffffffffffffffffffffffffffffffffffffffffffffff820361128c5761128b611220565b5b600182019050919050565b60006040820190506112ac6000830185610f74565b6112b96020830184610e66565b9392505050565b7f4e6f74206f776e65720000000000000000000000000000000000000000000000600082015250565b60006112f66009836110cb565b9150611301826112c0565b602082019050919050565b60006020820190508181036000830152611325816112e9565b9050919050565b7f5a65726f20616464726573730000000000000000000000000000000000000000600082015250565b6000611362600c836110cb565b915061136d8261132c565b602082019050919050565b6000602082019050818103600083015261139181611355565b9050919050565b60006113a382610bfa565b91506113ae83610bfa565b92508282019050808211156113c6576113c5611220565b5b92915050565b60006113d782610bfa565b91506113e283610bfa565b92508282026113f081610bfa565b9150828204841483151761140757611406611220565b5b5092915050565b7f4e487b7100000000000000000000000000000000000000000000000000000000600052601260045260246000fd5b600061144882610bfa565b915061145383610bfa565b9250826114635761146261140e565b5b82820490509291505056fea26469706673582212201162fa6edb76c9b156ca7f06acc8a0c66ab2cd355e14ad1bd3908488526e5b2f64736f6c63430008140033",
  "linkReferences": {},
  "deployedLinkReferences": {}
}