{
  "_format": "hh-sol-artifact-1",
  "contractName": "TaskCommitment",
  "sourceName": "contracts/TaskCommitment.sol",
  "abi": [
    {
      "inputs": [
        {
          "internalType": "address",
          "name": "_vault",
          "type": "address"
        },
        {
          "internalType": "address",
          "name": "_verifier",
          "type": "address"
        }
      ],
      "stateMutability": "nonpayable",
      "type": "constructor"
    },
    {
      "inputs": [],
      "name": "ECDSAInvalidSignature",
      "type": "error"
    },
    {
      "inputs": [
        {
          "internalType": "uint256",
          "name": "length",
          "type": "uint256"
        }
      ],
      "name": "ECDSAInvalidSignatureLength",
      "type": "error"
    },
    {
      "inputs": [
        {
          "internalType": "bytes32",
          "name": "s",
          "type": "bytes32"
        }
      ],
      "name": "ECDSAInvalidSignatureS",
      "type": "error"
    },
    {
      "anonymous": false,
      "inputs": [
        {
          "indexed": true,
          "internalType": "bytes32",
          "name": "taskId",
          "type": "bytes32"
        },
        {
          "indexed": true,
          "internalType": "address",
          "name": "providerAA",
          "type": "address"
        },
        {
          "indexed": true,
          "internalType": "address",
          "name": "buyer",
          "type": "address"
        },
        {
          "indexed": false,
          "internalType": "uint256",
          "name": "liabilityAmount",
          "type": "uint256"
        }
      ],
      "name": "CommitmentCreated",
      "type": "event"
    },
    {
      "anonymous": false,
      "inputs": [
        {
          "indexed": true,
          "internalType": "bytes32",
          "name": "taskId",
          "type": "bytes32"
        },
        {
          "indexed": false,
          "internalType": "bytes32",
          "name": "outputHash",
          "type": "bytes32"
        }
      ],
      "name": "DeliverySubmitted",
      "type": "event"
    },
    {
      "anonymous": false,
      "inputs": [
        {
          "indexed": true,
          "internalType": "bytes32",
          "name": "taskId",
          "type": "bytes32"
        },
        {
          "indexed": true,
          "internalType": "address",
          "name": "providerAA",
          "type": "address"
        },
        {
          "indexed": false,
          "internalType": "uint256",
          "name": "amount",
          "type": "uint256"
        }
      ],
      "name": "LiabilityReserved",
      "type": "event"
    },
    {
      "anonymous": false,
      "inputs": [
        {
          "indexed": true,
          "internalType": "bytes32",
          "name": "taskId",
          "type": "bytes32"
        },
        {
          "indexed": false,
          "internalType": "bytes32",
          "name": "paymentReference",
          "type": "bytes32"
        }
      ],
      "name": "PaymentLinked",
      "type": "event"
    },
    {
      "anonymous": false,
      "inputs": [
        {
          "indexed": true,
          "internalType": "bytes32",
          "name": "taskId",
          "type": "bytes32"
        },
        {
          "indexed": true,
          "internalType": "address",
          "name": "providerAA",
          "type": "address"
        }
      ],
      "name": "TaskExpired",
      "type": "event"
    },
    {
      "anonymous": false,
      "inputs": [
        {
          "indexed": true,
          "internalType": "bytes32",
          "name": "taskId",
          "type": "bytes32"
        },
        {
          "indexed": true,
          "internalType": "uint256",
          "name": "index",
          "type": "uint256"
        },
        {
          "indexed": false,
          "internalType": "bytes32",
          "name": "fieldKey",
          "type": "bytes32"
        },
        {
          "indexed": false,
          "internalType": "uint8",
          "name": "constraintType",
          "type": "uint8"
        },
        {
          "indexed": false,
          "internalType": "bool",
          "name": "passed",
          "type": "bool"
        },
        {
          "indexed": false,
          "internalType": "bytes32",
          "name": "reason",
          "type": "bytes32"
        }
      ],
      "name": "VerificationTraceItem",
      "type": "event"
    },
    {
      "anonymous": false,
      "inputs": [
        {
          "indexed": true,
          "internalType": "bytes32",
          "name": "taskId",
          "type": "bytes32"
        },
        {
          "indexed": true,
          "internalType": "address",
          "name": "providerAA",
          "type": "address"
        },
        {
          "indexed": false,
          "internalType": "bytes32",
          "name": "failReason",
          "type": "bytes32"
        }
      ],
      "name": "VerifiedFail",
      "type": "event"
    },
    {
      "anonymous": false,
      "inputs": [
        {
          "indexed": true,
          "internalType": "bytes32",
          "name": "taskId",
          "type": "bytes32"
        },
        {
          "indexed": true,
          "internalType": "address",
          "name": "providerAA",
          "type": "address"
        }
      ],
      "name": "VerifiedPass",
      "type": "event"
    },
    {
      "inputs": [],
      "name": "DOMAIN_SEPARATOR",
      "outputs": [
        {
          "internalType": "bytes32",
          "name": "",
          "type": "bytes32"
        }
      ],
      "stateMutability": "view",
      "type": "function"
    },
    {
      "inputs": [],
      "name": "attestationRegistry",
      "outputs": [
        {
          "internalType": "address",
          "name": "",
          "type": "address"
        }
      ],
      "stateMutability": "view",
      "type": "function"
    },
    {
      "inputs": [
        {
          "internalType": "bytes32",
          "name": "",
          "type": "bytes32"
        }
      ],
      "name": "commitmentSchemaHash",
      "outputs": [
        {
          "internalType": "bytes32",
          "name": "",
          "type": "bytes32"
        }
      ],
      "stateMutability": "view",
      "type": "function"
    },
    {
      "inputs": [
        {
          "internalType": "bytes32",
          "name": "",
          "type": "bytes32"
        }
      ],
      "name": "commitments",
      "outputs": [
        {
          "internalType": "bytes32",
          "name": "taskId",
          "type": "bytes32"
        },
        {
          "internalType": "bytes32",
          "name": "specHash",
          "type": "bytes32"
        },
        {
          "internalType": "address",
          "name": "providerAA",
          "type": "address"
        },
        {
          "internalType": "address",
          "name": "providerSigner",
          "type": "address"
        },
        {
          "internalType": "address",
          "name": "buyer",
          "type": "address"
        },
        {
          "internalType": "uint256",
          "name": "liabilityAmount",
          "type": "uint256"
        },
        {
          "internalType": "uint256",
          "name": "deadlineTimestamp",
          "type": "uint256"
        },
        {
          "internalType": "uint8",
          "name": "verifierVersion",
          "type": "uint8"
        },
        {
          "internalType": "bytes32",
          "name": "paymentReference",
          "type": "bytes32"
        },
        {
          "internalType": "bytes32",
          "name": "commitmentNonce",
          "type": "bytes32"
        },
        {
          "internalType": "enum TaskCommitment.TaskState",
          "name": "taskState",
          "type": "uint8"
        },
        {
          "internalType": "uint256",
          "name": "createdAt",
          "type": "uint256"
        }
      ],
      "stateMutability": "view",
      "type": "function"
    },
    {
      "inputs": [
        {
          "internalType": "address",
          "name": "providerAA",
          "type": "address"
        },
        {
          "internalType": "address",
          "name": "providerSigner",
          "type": "address"
        },
        {
          "internalType": "bytes32",
          "name": "schemaHash",
          "type": "bytes32"
        },
        {
          "components": [
            {
              "internalType": "enum VerifierV1.ConstraintType",
              "name": "constraintType",
              "type": "uint8"
            },
            {
              "internalType": "bytes32",
              "name": "fieldKey",
              "type": "bytes32"
            },
            {
              "internalType": "int256",
              "name": "minValue",
              "type": "int256"
            },
            {
              "internalType": "int256",
              "name": "maxValue",
              "type": "int256"
            },
            {
              "internalType": "int256",
              "name": "expectedValue",
              "type": "int256"
            },
            {
              "internalType": "bytes32",
              "name": "expectedHash",
              "type": "bytes32"
            },
            {
              "internalType": "bytes32[]",
              "name": "enumMembers",
              "type": "bytes32[]"
            }
          ],
          "internalType": "struct VerifierV1.Constraint[]",
          "name": "constraints",
          "type": "tuple[]"
        },
        {
          "internalType": "uint256",
          "name": "liabilityAmount",
          "type": "uint256"
        },
        {
          "internalType": "uint256",
          "name": "deadlineTimestamp",
          "type": "uint256"
        },
        {
          "internalType": "uint8",
          "name": "verifierVersion",
          "type": "uint8"
        },
        {
          "internalType": "bytes32",
          "name": "commitmentNonce",
          "type": "bytes32"
        }
      ],
      "name": "createCommitment",
      "outputs": [
        {
          "internalType": "bytes32",
          "name": "taskId",
          "type": "bytes32"
        }
      ],
      "stateMutability": "nonpayable",
      "type": "function"
    },
    {
      "inputs": [
        {
          "internalType": "bytes32",
          "name": "taskId",
          "type": "bytes32"
        }
      ],
      "name": "expireTask",
      "outputs": [],
      "stateMutability": "nonpayable",
      "type": "function"
    },
    {
      "inputs": [
        {
          "internalType": "bytes32",
          "name": "taskId",
          "type": "bytes32"
        }
      ],
      "name": "getCommitment",
      "outputs": [
        {
          "components": [
            {
              "internalType": "bytes32",
              "name": "taskId",
              "type": "bytes32"
            },
            {
              "internalType": "bytes32",
              "name": "specHash",
              "type": "bytes32"
            },
            {
              "internalType": "address",
              "name": "providerAA",
              "type": "address"
            },
            {
              "internalType": "address",
              "name": "providerSigner",
              "type": "address"
            },
            {
              "internalType": "address",
              "name": "buyer",
              "type": "address"
            },
            {
              "internalType": "uint256",
              "name": "liabilityAmount",
              "type": "uint256"
            },
            {
              "internalType": "uint256",
              "name": "deadlineTimestamp",
              "type": "uint256"
            },
            {
              "internalType": "uint8",
              "name": "verifierVersion",
              "type": "uint8"
            },
            {
              "internalType": "bytes32",
              "name": "paymentReference",
              "type": "bytes32"
            },
            {
              "internalType": "bytes32",
              "name": "commitmentNonce",
              "type": "bytes32"
            },
            {
              "internalType": "enum TaskCommitment.TaskState",
              "name": "taskState",
              "type": "uint8"
            },
            {
              "internalType": "uint256",
              "name": "createdAt",
              "type": "uint256"
            }
          ],
          "internalType": "struct TaskCommitment.Commitment",
          "name": "",
          "type": "tuple"
        }
      ],
      "stateMutability": "view",
      "type": "function"
    },
    {
      "inputs": [
        {
          "internalType": "bytes32",
          "name": "taskId",
          "type": "bytes32"
        },
        {
          "internalType": "uint256",
          "name": "index",
          "type": "uint256"
        }
      ],
      "name": "getConstraint",
      "outputs": [
        {
          "components": [
            {
              "internalType": "enum VerifierV1.ConstraintType",
              "name": "constraintType",
              "type": "uint8"
            },
            {
              "internalType": "bytes32",
              "name": "fieldKey",
              "type": "bytes32"
            },
            {
              "internalType": "int256",
              "name": "minValue",
              "type": "int256"
            },
            {
              "internalType": "int256",
              "name": "maxValue",
              "type": "int256"
            },
            {
              "internalType": "int256",
              "name": "expectedValue",
              "type": "int256"
            },
            {
              "internalType": "bytes32",
              "name": "expectedHash",
              "type": "bytes32"
            },
            {
              "internalType": "bytes32[]",
              "name": "enumMembers",
              "type": "bytes32[]"
            }
          ],
          "internalType": "struct VerifierV1.Constraint",
          "name": "",
          "type": "tuple"
        }
      ],
      "stateMutability": "view",
      "type": "function"
    },
    {
      "inputs": [
        {
          "internalType": "bytes32",
          "name": "taskId",
          "type": "bytes32"
        }
      ],
      "name": "getConstraintCount",
      "outputs": [
        {
          "internalType": "uint256",
          "name": "",
          "type": "uint256"
        }
      ],
      "stateMutability": "view",
      "type": "function"
    },
    {
      "inputs": [
        {
          "internalType": "bytes32",
          "name": "taskId",
          "type": "bytes32"
        },
        {
          "internalType": "bytes32",
          "name": "paymentReference",
          "type": "bytes32"
        }
      ],
      "name": "linkPayment",
      "outputs": [],
      "stateMutability": "nonpayable",
      "type": "function"
    },
    {
      "inputs": [],
      "name": "owner",
      "outputs": [
        {
          "internalType": "address",
          "name": "",
          "type": "address"
        }
      ],
      "stateMutability": "view",
      "type": "function"
    },
    {
      "inputs": [
        {
          "internalType": "bytes32",
          "name": "taskId",
          "type": "bytes32"
        }
      ],
      "name": "reserveLiability",
      "outputs": [],
      "stateMutability": "nonpayable",
      "type": "function"
    },
    {
      "inputs": [
        {
          "internalType": "address",
          "name": "_registry",
          "type": "address"
        }
      ],
      "name": "setAttestationRegistry",
      "outputs": [],
      "stateMutability": "nonpayable",
      "type": "function"
    },
    {
      "inputs": [
        {
          "internalType": "bytes32",
          "name": "taskId",
          "type": "bytes32"
        },
        {
          "components": [
            {
              "internalType": "bytes32",
              "name": "taskId",
              "type": "bytes32"
            },
            {
              "internalType": "bytes32",
              "name": "outputHash",
              "type": "bytes32"
            },
            {
              "internalType": "uint256",
              "name": "timestamp",
              "type": "uint256"
            },
            {
              "internalType": "uint8",
              "name": "schemaVersion",
              "type": "uint8"
            },
            {
              "internalType": "address",
              "name": "signerAddress",
              "type": "address"
            },
            {
              "internalType": "bytes32",
              "name": "providerNonce",
              "type": "bytes32"
            },
            {
              "internalType": "bytes",
              "name": "signature",
              "type": "bytes"
            }
          ],
          "internalType": "struct TaskCommitment.DeliveryObject",
          "name": "delivery",
          "type": "tuple"
        },
        {
          "components": [
            {
              "internalType": "bytes32",
              "name": "fieldKey",
              "type": "bytes32"
            },
            {
              "internalType": "bool",
              "name": "exists",
              "type": "bool"
            },
            {
              "internalType": "int256",
              "name": "intValue",
              "type": "int256"
            },
            {
              "internalType": "bytes32",
              "name": "hashValue",
              "type": "bytes32"
            },
            {
              "internalType": "address",
              "name": "addrValue",
              "type": "address"
            },
            {
              "internalType": "bool",
              "name": "boolValue",
              "type": "bool"
            },
            {
              "internalType": "uint8",
              "name": "valueType",
              "type": "uint8"
            }
          ],
          "internalType": "struct VerifierV1.FieldValue[]",
          "name": "fields",
          "type": "tuple[]"
        }
      ],
      "name": "submitDelivery",
      "outputs": [],
      "stateMutability": "nonpayable",
      "type": "function"
    },
    {
      "inputs": [
        {
          "internalType": "bytes32",
          "name": "",
          "type": "bytes32"
        }
      ],
      "name": "usedCommitmentNonces",
      "outputs": [
        {
          "internalType": "bool",
          "name": "",
          "type": "bool"
        }
      ],
      "stateMutability": "view",
      "type": "function"
    },
    {
      "inputs": [
        {
          "internalType": "bytes32",
          "name": "",
          "type": "bytes32"
        }
      ],
      "name": "usedDeliveryDigests",
      "outputs": [
        {
          "internalType": "bool",
          "name": "",
          "type": "bool"
        }
      ],
      "stateMutability": "view",
      "type": "function"
    },
    {
      "inputs": [
        {
          "internalType": "bytes32",
          "name": "",
          "type": "bytes32"
        }
      ],
      "name": "usedDeliveryNonces",
      "outputs": [
        {
          "internalType": "bool",
          "name": "",
          "type": "bool"
        }
      ],
      "stateMutability": "view",
      "type": "function"
    },
    {
      "inputs": [],
      "name": "vault",
      "outputs": [
        {
          "internalType": "contract ProviderVault",
          "name": "",
          "type": "address"
        }
      ],
      "stateMutability": "view",
      "type": "function"
    },
    {
      "inputs": [],
      "name": "verifier",
      "outputs": [
        {
          "internalType": "contract VerifierV1",
          "name": "",
          "type": "address"
        }
      ],
      "stateMutability": "view",
      "type": "function"
    }
  ],
  "bytecode": "0x60c06040523480156200001157600080fd5b506040516200570038038062005700833981810160405281019062000037919062000312565b600073ffffffffffffffffffffffffffffffffffffffff168273ffffffffffffffffffffffffffffffffffffffff1603620000a9576040517f08c379a0000000000000000000000000000000000000000000000000000000008152600401620000a090620003ba565b60405180910390fd5b600073ffffffffffffffffffffffffffffffffffffffff168173ffffffffffffffffffffffffffffffffffffffff16036200011b576040517f08c379a000000000000000000000000000000000000000000000000000000000815260040162000112906200042c565b60405180910390fd5b816000806101000a81548173ffffffffffffffffffffffffffffffffffffffff021916908373ffffffffffffffffffffffffffffffffffffffff16021790555080600160006101000a81548173ffffffffffffffffffffffffffffffffffffffff021916908373ffffffffffffffffffffffffffffffffffffffff1602179055503373ffffffffffffffffffffffffffffffffffffffff1660a08173ffffffffffffffffffffffffffffffffffffffff16815250507f8b73c3c69bb8fe3d512ecc4cf759cc79239f7b179b0ffacaa9a75d522b39400f6040518060400160405280600681526020017f4143434f52440000000000000000000000000000000000000000000000000000815250805190602001206040518060400160405280600181526020017f31000000000000000000000000000000000000000000000000000000000000008152508051906020012046306040516020016200028395949392919062000495565b60405160208183030381529060405280519060200120608081815250505050620004f2565b600080fd5b600073ffffffffffffffffffffffffffffffffffffffff82169050919050565b6000620002da82620002ad565b9050919050565b620002ec81620002cd565b8114620002f857600080fd5b50565b6000815190506200030c81620002e1565b92915050565b600080604083850312156200032c576200032b620002a8565b5b60006200033c85828601620002fb565b92505060206200034f85828601620002fb565b9150509250929050565b600082825260208201905092915050565b7f5a65726f207661756c7400000000000000000000000000000000000000000000600082015250565b6000620003a2600a8362000359565b9150620003af826200036a565b602082019050919050565b60006020820190508181036000830152620003d58162000393565b9050919050565b7f5a65726f20766572696669657200000000000000000000000000000000000000600082015250565b600062000414600d8362000359565b91506200042182620003dc565b602082019050919050565b60006020820190508181036000830152620004478162000405565b9050919050565b6000819050919050565b62000463816200044e565b82525050565b6000819050919050565b6200047e8162000469565b82525050565b6200048f81620002cd565b82525050565b600060a082019050620004ac600083018862000458565b620004bb602083018762000458565b620004ca604083018662000458565b620004d9606083018562000473565b620004e8608083018462000484565b9695505050505050565b60805160a0516151da62000526600039600081816104250152610e8f0152600081816107ac01526125cf01526151da6000f3fe608060405234801561001057600080fd5b50600436106101215760003560e01c806379727363116100ad5780639d669c3c116100715780639d669c3c14610337578063ed6d73f914610367578063f37e054814610385578063fbe21bdc146103b5578063fbfa77cf146103e557610121565b80637972736314610276578063839df945146102a65780638da5cb5b146102e15780638dfeed24146102ff5780638f2553b61461031b57610121565b80633644e515116100f45780633644e515146101ac5780635697a2ec146101ca5780636203e738146101e65780636c16d7c2146102165780637795820c1461024657610121565b806302d5264a1461012657806306d856001461015657806313cca49e146101725780632b7ac3f31461018e575b600080fd5b610140600480360381019061013b9190612de9565b610403565b60405161014d9190612e31565b60405180910390f35b610170600480360381019061016b9190612eaa565b610423565b005b61018c60048036038101906101879190612ed7565b610564565b005b610196610784565b6040516101a39190612f76565b60405180910390f35b6101b46107aa565b6040516101c19190612fa0565b60405180910390f35b6101e460048036038101906101df9190612de9565b6107ce565b005b61020060048036038101906101fb9190612de9565b610b8d565b60405161020d9190612e31565b60405180910390f35b610230600480360381019061022b9190612de9565b610bad565b60405161023d9190612fa0565b60405180910390f35b610260600480360381019061025b9190612de9565b610bc5565b60405161026d919061317b565b60405180910390f35b610290600480360381019061028b9190612de9565b610d93565b60405161029d91906131a6565b60405180910390f35b6102c060048036038101906102bb9190612de9565b610db3565b6040516102d89c9b9a999897969594939291906131ee565b60405180910390f35b6102e9610e8d565b6040516102f691906132a8565b60405180910390f35b6103196004803603810190610314919061334c565b610eb1565b005b61033560048036038101906103309190612de9565b611711565b005b610351600480360381019061034c9190613408565b6119d6565b60405161035e91906135f4565b60405180910390f35b61036f611b41565b60405161037c91906132a8565b60405180910390f35b61039f600480360381019061039a9190612de9565b611b67565b6040516103ac9190612e31565b60405180910390f35b6103cf60048036038101906103ca9190613698565b611b87565b6040516103dc9190612fa0565b60405180910390f35b6103ed612429565b6040516103fa919061378f565b60405180910390f35b60066020528060005260406000206000915054906101000a900460ff1681565b7f000000000000000000000000000000000000000000000000000000000000000073ffffffffffffffffffffffffffffffffffffffff163373ffffffffffffffffffffffffffffffffffffffff16146104b1576040517f08c379a00000000000000000000000000000000000000000000000000000000081526004016104a890613807565b60405180910390fd5b600073ffffffffffffffffffffffffffffffffffffffff168173ffffffffffffffffffffffffffffffffffffffff1603610520576040517f08c379a000000000000000000000000000000000000000000000000000000000815260040161051790613873565b60405180910390fd5b80600260006101000a81548173ffffffffffffffffffffffffffffffffffffffff021916908373ffffffffffffffffffffffffffffffffffffffff16021790555050565b6000600360008481526020019081526020016000209050600081600b0154036105c2576040517f08c379a00000000000000000000000000000000000000000000000000000000081526004016105b9906138df565b60405180910390fd5b600160068111156105d6576105d561300e565b5b81600a0160009054906101000a900460ff1660068111156105fa576105f961300e565b5b1461063a576040517f08c379a00000000000000000000000000000000000000000000000000000000081526004016106319061394b565b60405180910390fd5b8060040160009054906101000a900473ffffffffffffffffffffffffffffffffffffffff1673ffffffffffffffffffffffffffffffffffffffff163373ffffffffffffffffffffffffffffffffffffffff16146106cc576040517f08c379a00000000000000000000000000000000000000000000000000000000081526004016106c3906139b7565b60405180910390fd5b6000801b8203610711576040517f08c379a000000000000000000000000000000000000000000000000000000000815260040161070890613a23565b60405180910390fd5b818160080181905550600281600a0160006101000a81548160ff021916908360068111156107425761074161300e565b5b0217905550827f15886da288d2fdbfa442ff2592886ed19492ed5fa626ab3dd6b31bd00a25c663836040516107779190612fa0565b60405180910390a2505050565b600160009054906101000a900473ffffffffffffffffffffffffffffffffffffffff1681565b7f000000000000000000000000000000000000000000000000000000000000000081565b6000600360008381526020019081526020016000209050600081600b01540361082c576040517f08c379a0000000000000000000000000000000000000000000000000000000008152600401610823906138df565b60405180910390fd5b600060068111156108405761083f61300e565b5b81600a0160009054906101000a900460ff1660068111156108645761086361300e565b5b14806108a557506001600681111561087f5761087e61300e565b5b81600a0160009054906101000a900460ff1660068111156108a3576108a261300e565b5b145b806108e55750600260068111156108bf576108be61300e565b5b81600a0160009054906101000a900460ff1660068111156108e3576108e261300e565b5b145b610924576040517f08c379a000000000000000000000000000000000000000000000000000000000815260040161091b90613a8f565b60405180910390fd5b8060060154421161096a576040517f08c379a000000000000000000000000000000000000000000000000000000000815260040161096190613afb565b60405180910390fd5b6001600681111561097e5761097d61300e565b5b81600a0160009054906101000a900460ff1660068111156109a2576109a161300e565b5b14806109e35750600260068111156109bd576109bc61300e565b5b81600a0160009054906101000a900460ff1660068111156109e1576109e061300e565b5b145b15610ac45760008054906101000a900473ffffffffffffffffffffffffffffffffffffffff1673ffffffffffffffffffffffffffffffffffffffff1663bfac59908260020160009054906101000a900473ffffffffffffffffffffffffffffffffffffffff1683600501548460040160009054906101000a900473ffffffffffffffffffffffffffffffffffffffff166040518463ffffffff1660e01b8152600401610a9193929190613b1b565b600060405180830381600087803b158015610aab57600080fd5b505af1158015610abf573d6000803e3d6000fd5b505050505b600681600a0160006101000a81548160ff02191690836006811115610aec57610aeb61300e565b5b02179055508060020160009054906101000a900473ffffffffffffffffffffffffffffffffffffffff1673ffffffffffffffffffffffffffffffffffffffff16827f5ae0a4685c4e9992702bd36c765a87a7ecfb91052e2f700f63e2f33d92db777660405160405180910390a3610b898260008360020160009054906101000a900473ffffffffffffffffffffffffffffffffffffffff1661244d565b5050565b60056020528060005260406000206000915054906101000a900460ff1681565b60076020528060005260406000206000915090505481565b610bcd612c86565b600360008381526020019081526020016000206040518061018001604052908160008201548152602001600182015481526020016002820160009054906101000a900473ffffffffffffffffffffffffffffffffffffffff1673ffffffffffffffffffffffffffffffffffffffff1673ffffffffffffffffffffffffffffffffffffffff1681526020016003820160009054906101000a900473ffffffffffffffffffffffffffffffffffffffff1673ffffffffffffffffffffffffffffffffffffffff1673ffffffffffffffffffffffffffffffffffffffff1681526020016004820160009054906101000a900473ffffffffffffffffffffffffffffffffffffffff1673ffffffffffffffffffffffffffffffffffffffff1673ffffffffffffffffffffffffffffffffffffffff16815260200160058201548152602001600682015481526020016007820160009054906101000a900460ff1660ff1660ff1681526020016008820154815260200160098201548152602001600a820160009054906101000a900460ff166006811115610d6c57610d6b61300e565b5b6006811115610d7e57610d7d61300e565b5b8152602001600b820154815250509050919050565b600060086000838152602001908152602001600020805490509050919050565b60036020528060005260406000206000915090508060000154908060010154908060020160009054906101000a900473ffffffffffffffffffffffffffffffffffffffff16908060030160009054906101000a900473ffffffffffffffffffffffffffffffffffffffff16908060040160009054906101000a900473ffffffffffffffffffffffffffffffffffffffff16908060050154908060060154908060070160009054906101000a900460ff169080600801549080600901549080600a0160009054906101000a900460ff169080600b015490508c565b7f000000000000000000000000000000000000000000000000000000000000000081565b6000600360008681526020019081526020016000209050600081600b015403610f0f576040517f08c379a0000000000000000000000000000000000000000000000000000000008152600401610f06906138df565b60405180910390fd5b60026006811115610f2357610f2261300e565b5b81600a0160009054906101000a900460ff166006811115610f4757610f4661300e565b5b14610f87576040517f08c379a0000000000000000000000000000000000000000000000000000000008152600401610f7e9061394b565b60405180910390fd5b8060020160009054906101000a900473ffffffffffffffffffffffffffffffffffffffff1673ffffffffffffffffffffffffffffffffffffffff163373ffffffffffffffffffffffffffffffffffffffff1614611019576040517f08c379a000000000000000000000000000000000000000000000000000000000815260040161101090613b9e565b60405180910390fd5b8060060154421115611060576040517f08c379a000000000000000000000000000000000000000000000000000000000815260040161105790613c0a565b60405180910390fd5b848460000135146110a6576040517f08c379a000000000000000000000000000000000000000000000000000000000815260040161109d90613c76565b60405180910390fd5b8060030160009054906101000a900473ffffffffffffffffffffffffffffffffffffffff1673ffffffffffffffffffffffffffffffffffffffff168460800160208101906110f49190612eaa565b73ffffffffffffffffffffffffffffffffffffffff161461114a576040517f08c379a000000000000000000000000000000000000000000000000000000000815260040161114190613ce2565b60405180910390fd5b600560008560a00135815260200190815260200160002060009054906101000a900460ff16156111af576040517f08c379a00000000000000000000000000000000000000000000000000000000081526004016111a690613d4e565b60405180910390fd5b6000600160009054906101000a900473ffffffffffffffffffffffffffffffffffffffff1673ffffffffffffffffffffffffffffffffffffffff1663cadee6af6007600089815260200190815260200160002054600860008a81526020019081526020016000206040518363ffffffff1660e01b8152600401611233929190614034565b602060405180830381865afa158015611250573d6000803e3d6000fd5b505050506040513d601f19601f820116820180604052508101906112749190614079565b9050816001015481146112bc576040517f08c379a00000000000000000000000000000000000000000000000000000000081526004016112b3906140f2565b60405180910390fd5b60006112c8838761253b565b90506006600082815260200190815260200160002060009054906101000a900460ff161561132b576040517f08c379a00000000000000000000000000000000000000000000000000000000081526004016113229061415e565b60405180910390fd5b600061134682888060c00190611341919061418d565b61261f565b90508360030160009054906101000a900473ffffffffffffffffffffffffffffffffffffffff1673ffffffffffffffffffffffffffffffffffffffff168173ffffffffffffffffffffffffffffffffffffffff16146113da576040517f08c379a00000000000000000000000000000000000000000000000000000000081526004016113d19061423c565b60405180910390fd5b6001600560008960a00135815260200190815260200160002060006101000a81548160ff02191690831515021790555060016006600084815260200190815260200160002060006101000a81548160ff021916908315150217905550600384600a0160006101000a81548160ff0219169083600681111561145e5761145d61300e565b5b0217905550877fad8578136a5b42ae9e2a5cbc2743365e76b284462cd7273c9b8afa548b62a68a88602001356040516114979190612fa0565b60405180910390a2600080600160009054906101000a900473ffffffffffffffffffffffffffffffffffffffff1673ffffffffffffffffffffffffffffffffffffffff1663389ad4498989600860008f81526020019081526020016000208a600601546040518563ffffffff1660e01b815260040161151994939291906144a4565b600060405180830381865afa158015611536573d6000803e3d6000fd5b505050506040513d6000823e3d601f19601f8201168201806040525081019061155f91906146f1565b9150915060007f554e4b4e4f574e00000000000000000000000000000000000000000000000000905060005b82518110156116e257808c7f62e72bbe5e1982227d3126991cb791456e480725ea55f0b8c45c4fe2513989508584815181106115ca576115c961474d565b5b6020026020010151600001518685815181106115e9576115e861474d565b5b602002602001015160200151600a8111156116075761160661300e565b5b87868151811061161a5761161961474d565b5b6020026020010151604001518887815181106116395761163861474d565b5b602002602001015160600151604051611655949392919061477c565b60405180910390a38281815181106116705761166f61474d565b5b6020026020010151604001511580156116a857507f554e4b4e4f574e0000000000000000000000000000000000000000000000000082145b156116cf578281815181106116c0576116bf61474d565b5b60200260200101516060015191505b80806116da906147f0565b91505061158b565b5082156116f8576116f38b88612678565b611704565b6117038b88836127f6565b5b5050505050505050505050565b6000600360008381526020019081526020016000209050600081600b01540361176f576040517f08c379a0000000000000000000000000000000000000000000000000000000008152600401611766906138df565b60405180910390fd5b600060068111156117835761178261300e565b5b81600a0160009054906101000a900460ff1660068111156117a7576117a661300e565b5b146117e7576040517f08c379a00000000000000000000000000000000000000000000000000000000081526004016117de9061394b565b60405180910390fd5b8060020160009054906101000a900473ffffffffffffffffffffffffffffffffffffffff1673ffffffffffffffffffffffffffffffffffffffff163373ffffffffffffffffffffffffffffffffffffffff1614611879576040517f08c379a000000000000000000000000000000000000000000000000000000000815260040161187090613b9e565b60405180910390fd5b60008054906101000a900473ffffffffffffffffffffffffffffffffffffffff1673ffffffffffffffffffffffffffffffffffffffff1663c3c45e668260020160009054906101000a900473ffffffffffffffffffffffffffffffffffffffff1683600501546040518363ffffffff1660e01b81526004016118fc929190614838565b600060405180830381600087803b15801561191657600080fd5b505af115801561192a573d6000803e3d6000fd5b50505050600181600a0160006101000a81548160ff021916908360068111156119565761195561300e565b5b02179055508060020160009054906101000a900473ffffffffffffffffffffffffffffffffffffffff1673ffffffffffffffffffffffffffffffffffffffff16827f94c25aad765e29023d514ebd938b989756b3e1492abdf99f775c3cf36128e08383600501546040516119ca91906131a6565b60405180910390a35050565b6119de612d4a565b60086000848152602001908152602001600020805490508210611a36576040517f08c379a0000000000000000000000000000000000000000000000000000000008152600401611a2d906148ad565b60405180910390fd5b600860008481526020019081526020016000208281548110611a5b57611a5a61474d565b5b90600052602060002090600702016040518060e00160405290816000820160009054906101000a900460ff16600a811115611a9957611a9861300e565b5b600a811115611aab57611aaa61300e565b5b8152602001600182015481526020016002820154815260200160038201548152602001600482015481526020016005820154815260200160068201805480602002602001604051908101604052809291908181526020018280548015611b3057602002820191906000526020600020905b815481526020019060010190808311611b1c575b505050505081525050905092915050565b600260009054906101000a900473ffffffffffffffffffffffffffffffffffffffff1681565b60046020528060005260406000206000915054906101000a900460ff1681565b60008073ffffffffffffffffffffffffffffffffffffffff168a73ffffffffffffffffffffffffffffffffffffffff1603611bf7576040517f08c379a0000000000000000000000000000000000000000000000000000000008152600401611bee90614919565b60405180910390fd5b600073ffffffffffffffffffffffffffffffffffffffff168973ffffffffffffffffffffffffffffffffffffffff1603611c66576040517f08c379a0000000000000000000000000000000000000000000000000000000008152600401611c5d90614985565b60405180910390fd5b6000801b8803611cab576040517f08c379a0000000000000000000000000000000000000000000000000000000008152600401611ca2906149f1565b60405180910390fd5b60008511611cee576040517f08c379a0000000000000000000000000000000000000000000000000000000008152600401611ce590614a5d565b60405180910390fd5b428411611d30576040517f08c379a0000000000000000000000000000000000000000000000000000000008152600401611d2790614ac9565b60405180910390fd5b6004600083815260200190815260200160002060009054906101000a900460ff1615611d91576040517f08c379a0000000000000000000000000000000000000000000000000000000008152600401611d8890614b35565b60405180910390fd5b6000600160009054906101000a900473ffffffffffffffffffffffffffffffffffffffff1673ffffffffffffffffffffffffffffffffffffffff1663cadee6af8a8a8a6040518463ffffffff1660e01b8152600401611df293929190614dfa565b602060405180830381865afa158015611e0f573d6000803e3d6000fd5b505050506040513d601f19601f82011682018060405250810190611e339190614079565b9050338b8b8389898989604051602001611e54989796959493929190614e2c565b604051602081830303815290604052805190602001209150600060036000848152602001908152602001600020600b015414611ec5576040517f08c379a0000000000000000000000000000000000000000000000000000000008152600401611ebc90614ef6565b60405180910390fd5b60016004600085815260200190815260200160002060006101000a81548160ff0219169083151502179055506040518061018001604052808381526020018281526020018c73ffffffffffffffffffffffffffffffffffffffff1681526020018b73ffffffffffffffffffffffffffffffffffffffff1681526020013373ffffffffffffffffffffffffffffffffffffffff1681526020018781526020018681526020018560ff1681526020016000801b815260200184815260200160006006811115611f9557611f9461300e565b5b81526020014281525060036000848152602001908152602001600020600082015181600001556020820151816001015560408201518160020160006101000a81548173ffffffffffffffffffffffffffffffffffffffff021916908373ffffffffffffffffffffffffffffffffffffffff16021790555060608201518160030160006101000a81548173ffffffffffffffffffffffffffffffffffffffff021916908373ffffffffffffffffffffffffffffffffffffffff16021790555060808201518160040160006101000a81548173ffffffffffffffffffffffffffffffffffffffff021916908373ffffffffffffffffffffffffffffffffffffffff16021790555060a0820151816005015560c0820151816006015560e08201518160070160006101000a81548160ff021916908360ff1602179055506101008201518160080155610120820151816009015561014082015181600a0160006101000a81548160ff021916908360068111156121115761211061300e565b5b021790555061016082015181600b015590505088600760008481526020019081526020016000208190555060005b888890508110156123b45760006008600085815260200190815260200160002060018160018154018082558091505003906000526020600020906007020190508989838181106121925761219161474d565b5b90506020028101906121a49190614f16565b60000160208101906121b69190614f3e565b8160000160006101000a81548160ff0219169083600a8111156121dc576121db61300e565b5b02179055508989838181106121f4576121f361474d565b5b90506020028101906122069190614f16565b6020013581600101819055508989838181106122255761222461474d565b5b90506020028101906122379190614f16565b6040013581600201819055508989838181106122565761225561474d565b5b90506020028101906122689190614f16565b6060013581600301819055508989838181106122875761228661474d565b5b90506020028101906122999190614f16565b6080013581600401819055508989838181106122b8576122b761474d565b5b90506020028101906122ca9190614f16565b60a00135816005018190555060005b8a8a848181106122ec576122eb61474d565b5b90506020028101906122fe9190614f16565b8060c0019061230d9190614f6b565b905081101561239f57816006018b8b8581811061232d5761232c61474d565b5b905060200281019061233f9190614f16565b8060c0019061234e9190614f6b565b8381811061235f5761235e61474d565b5b9050602002013590806001815401808255809150506001900390600052602060002001600090919091909150558080612397906147f0565b9150506122d9565b505080806123ac906147f0565b91505061213f565b503373ffffffffffffffffffffffffffffffffffffffff168b73ffffffffffffffffffffffffffffffffffffffff16837fa0dbee9dad276b6464c3686df69d3fecae5490da1c1d38c26668c0f12b2a77aa8960405161241391906131a6565b60405180910390a4509998505050505050505050565b60008054906101000a900473ffffffffffffffffffffffffffffffffffffffff1681565b600073ffffffffffffffffffffffffffffffffffffffff16600260009054906101000a900473ffffffffffffffffffffffffffffffffffffffff1673ffffffffffffffffffffffffffffffffffffffff16031561253657600260009054906101000a900473ffffffffffffffffffffffffffffffffffffffff1673ffffffffffffffffffffffffffffffffffffffff1663632dfb0b8484846040518463ffffffff1660e01b815260040161250393929190614fce565b600060405180830381600087803b15801561251d57600080fd5b505af1158015612531573d6000803e3d6000fd5b505050505b505050565b6000807f14506c4f17be2a4f30d79d559dd3db7b5e40686363a2a5076c12c00383055f798360000135846020013585604001358660600160208101906125819190615005565b8760800160208101906125949190612eaa565b8860a001358a600801546040516020016125b5989796959493929190615032565b6040516020818303038152906040528051906020012090507f000000000000000000000000000000000000000000000000000000000000000081604051602001612600929190615128565b6040516020818303038152906040528051906020012091505092915050565b600061266f8484848080601f016020809104026020016040519081016040528093929190818152602001838380828437600081840152601f19601f820116905080830192505050505050506129a6565b90509392505050565b600481600a0160006101000a81548160ff021916908360068111156126a05761269f61300e565b5b021790555060008054906101000a900473ffffffffffffffffffffffffffffffffffffffff1673ffffffffffffffffffffffffffffffffffffffff16633593fdf98260020160009054906101000a900473ffffffffffffffffffffffffffffffffffffffff1683600501546040518363ffffffff1660e01b8152600401612728929190614838565b600060405180830381600087803b15801561274257600080fd5b505af1158015612756573d6000803e3d6000fd5b505050508060020160009054906101000a900473ffffffffffffffffffffffffffffffffffffffff1673ffffffffffffffffffffffffffffffffffffffff16827fcdf5e85f0614cba3dd0f499e0a5c1fe3b246edea81e517af9643313e4465764060405160405180910390a36127f28260018360020160009054906101000a900473ffffffffffffffffffffffffffffffffffffffff1661244d565b5050565b600582600a0160006101000a81548160ff0219169083600681111561281e5761281d61300e565b5b021790555060008054906101000a900473ffffffffffffffffffffffffffffffffffffffff1673ffffffffffffffffffffffffffffffffffffffff1663bfac59908360020160009054906101000a900473ffffffffffffffffffffffffffffffffffffffff1684600501548560040160009054906101000a900473ffffffffffffffffffffffffffffffffffffffff166040518463ffffffff1660e01b81526004016128cc93929190613b1b565b600060405180830381600087803b1580156128e657600080fd5b505af11580156128fa573d6000803e3d6000fd5b505050508160020160009054906101000a900473ffffffffffffffffffffffffffffffffffffffff1673ffffffffffffffffffffffffffffffffffffffff16837f71d866dd3bb5605efdd8f598335baf9f5de458452a2cc55ff24d0e1849dc1935836040516129699190612fa0565b60405180910390a36129a18360008460020160009054906101000a900473ffffffffffffffffffffffffffffffffffffffff1661244d565b505050565b6000806000806129b686866129d2565b9250925092506129c68282612a2e565b82935050505092915050565b60008060006041845103612a175760008060006020870151925060408701519150606087015160001a9050612a0988828585612b92565b955095509550505050612a27565b60006002855160001b9250925092505b9250925092565b60006003811115612a4257612a4161300e565b5b826003811115612a5557612a5461300e565b5b0315612b8e5760016003811115612a6f57612a6e61300e565b5b826003811115612a8257612a8161300e565b5b03612ab9576040517ff645eedf00000000000000000000000000000000000000000000000000000000815260040160405180910390fd5b60026003811115612acd57612acc61300e565b5b826003811115612ae057612adf61300e565b5b03612b25578060001c6040517ffce698f7000000000000000000000000000000000000000000000000000000008152600401612b1c91906131a6565b60405180910390fd5b600380811115612b3857612b3761300e565b5b826003811115612b4b57612b4a61300e565b5b03612b8d57806040517fd78bce0c000000000000000000000000000000000000000000000000000000008152600401612b849190612fa0565b60405180910390fd5b5b5050565b60008060007f7fffffffffffffffffffffffffffffff5d576e7357a4501ddfe92f46681b20a08460001c1115612bd2576000600385925092509250612c7c565b600060018888888860405160008152602001604052604051612bf7949392919061515f565b6020604051602081039080840390855afa158015612c19573d6000803e3d6000fd5b505050602060405103519050600073ffffffffffffffffffffffffffffffffffffffff168173ffffffffffffffffffffffffffffffffffffffff1603612c6d57600060016000801b93509350935050612c7c565b8060008060001b935093509350505b9450945094915050565b6040518061018001604052806000801916815260200160008019168152602001600073ffffffffffffffffffffffffffffffffffffffff168152602001600073ffffffffffffffffffffffffffffffffffffffff168152602001600073ffffffffffffffffffffffffffffffffffffffff1681526020016000815260200160008152602001600060ff168152602001600080191681526020016000801916815260200160006006811115612d3d57612d3c61300e565b5b8152602001600081525090565b6040518060e001604052806000600a811115612d6957612d6861300e565b5b81526020016000801916815260200160008152602001600081526020016000815260200160008019168152602001606081525090565b6000604051905090565b600080fd5b600080fd5b6000819050919050565b612dc681612db3565b8114612dd157600080fd5b50565b600081359050612de381612dbd565b92915050565b600060208284031215612dff57612dfe612da9565b5b6000612e0d84828501612dd4565b91505092915050565b60008115159050919050565b612e2b81612e16565b82525050565b6000602082019050612e466000830184612e22565b92915050565b600073ffffffffffffffffffffffffffffffffffffffff82169050919050565b6000612e7782612e4c565b9050919050565b612e8781612e6c565b8114612e9257600080fd5b50565b600081359050612ea481612e7e565b92915050565b600060208284031215612ec057612ebf612da9565b5b6000612ece84828501612e95565b91505092915050565b60008060408385031215612eee57612eed612da9565b5b6000612efc85828601612dd4565b9250506020612f0d85828601612dd4565b9150509250929050565b6000819050919050565b6000612f3c612f37612f3284612e4c565b612f17565b612e4c565b9050919050565b6000612f4e82612f21565b9050919050565b6000612f6082612f43565b9050919050565b612f7081612f55565b82525050565b6000602082019050612f8b6000830184612f67565b92915050565b612f9a81612db3565b82525050565b6000602082019050612fb56000830184612f91565b92915050565b612fc481612db3565b82525050565b612fd381612e6c565b82525050565b6000819050919050565b612fec81612fd9565b82525050565b600060ff82169050919050565b61300881612ff2565b82525050565b7f4e487b7100000000000000000000000000000000000000000000000000000000600052602160045260246000fd5b6007811061304e5761304d61300e565b5b50565b600081905061305f8261303d565b919050565b600061306f82613051565b9050919050565b61307f81613064565b82525050565b6101808201600082015161309c6000850182612fbb565b5060208201516130af6020850182612fbb565b5060408201516130c26040850182612fca565b5060608201516130d56060850182612fca565b5060808201516130e86080850182612fca565b5060a08201516130fb60a0850182612fe3565b5060c082015161310e60c0850182612fe3565b5060e082015161312160e0850182612fff565b50610100820151613136610100850182612fbb565b5061012082015161314b610120850182612fbb565b50610140820151613160610140850182613076565b50610160820151613175610160850182612fe3565b50505050565b6000610180820190506131916000830184613085565b92915050565b6131a081612fd9565b82525050565b60006020820190506131bb6000830184613197565b92915050565b6131ca81612e6c565b82525050565b6131d981612ff2565b82525050565b6131e881613064565b82525050565b600061018082019050613204600083018f612f91565b613211602083018e612f91565b61321e604083018d6131c1565b61322b606083018c6131c1565b613238608083018b6131c1565b61324560a083018a613197565b61325260c0830189613197565b61325f60e08301886131d0565b61326d610100830187612f91565b61327b610120830186612f91565b6132896101408301856131df565b613297610160830184613197565b9d9c50505050505050505050505050565b60006020820190506132bd60008301846131c1565b92915050565b600080fd5b600060e082840312156132de576132dd6132c3565b5b81905092915050565b600080fd5b600080fd5b600080fd5b60008083601f84011261330c5761330b6132e7565b5b8235905067ffffffffffffffff811115613329576133286132ec565b5b6020830191508360e0820283011115613345576133446132f1565b5b9250929050565b6000806000806060858703121561336657613365612da9565b5b600061337487828801612dd4565b945050602085013567ffffffffffffffff81111561339557613394612dae565b5b6133a1878288016132c8565b935050604085013567ffffffffffffffff8111156133c2576133c1612dae565b5b6133ce878288016132f6565b925092505092959194509250565b6133e581612fd9565b81146133f057600080fd5b50565b600081359050613402816133dc565b92915050565b6000806040838503121561341f5761341e612da9565b5b600061342d85828601612dd4565b925050602061343e858286016133f3565b9150509250929050565b600b81106134595761345861300e565b5b50565b600081905061346a82613448565b919050565b600061347a8261345c565b9050919050565b61348a8161346f565b82525050565b6000819050919050565b6134a381613490565b82525050565b600081519050919050565b600082825260208201905092915050565b6000819050602082019050919050565b60006134e18383612fbb565b60208301905092915050565b6000602082019050919050565b6000613505826134a9565b61350f81856134b4565b935061351a836134c5565b8060005b8381101561354b57815161353288826134d5565b975061353d836134ed565b92505060018101905061351e565b5085935050505092915050565b600060e0830160008301516135706000860182613481565b5060208301516135836020860182612fbb565b506040830151613596604086018261349a565b5060608301516135a9606086018261349a565b5060808301516135bc608086018261349a565b5060a08301516135cf60a0860182612fbb565b5060c083015184820360c08601526135e782826134fa565b9150508091505092915050565b6000602082019050818103600083015261360e8184613558565b905092915050565b60008083601f84011261362c5761362b6132e7565b5b8235905067ffffffffffffffff811115613649576136486132ec565b5b602083019150836020820283011115613665576136646132f1565b5b9250929050565b61367581612ff2565b811461368057600080fd5b50565b6000813590506136928161366c565b92915050565b60008060008060008060008060006101008a8c0312156136bb576136ba612da9565b5b60006136c98c828d01612e95565b99505060206136da8c828d01612e95565b98505060406136eb8c828d01612dd4565b97505060608a013567ffffffffffffffff81111561370c5761370b612dae565b5b6137188c828d01613616565b9650965050608061372b8c828d016133f3565b94505060a061373c8c828d016133f3565b93505060c061374d8c828d01613683565b92505060e061375e8c828d01612dd4565b9150509295985092959850929598565b600061377982612f43565b9050919050565b6137898161376e565b82525050565b60006020820190506137a46000830184613780565b92915050565b600082825260208201905092915050565b7f4e6f74206f776e65720000000000000000000000000000000000000000000000600082015250565b60006137f16009836137aa565b91506137fc826137bb565b602082019050919050565b60006020820190508181036000830152613820816137e4565b9050919050565b7f5a65726f20616464726573730000000000000000000000000000000000000000600082015250565b600061385d600c836137aa565b915061386882613827565b602082019050919050565b6000602082019050818103600083015261388c81613850565b9050919050565b7f5461736b206e6f7420666f756e64000000000000000000000000000000000000600082015250565b60006138c9600e836137aa565b91506138d482613893565b602082019050919050565b600060208201905081810360008301526138f8816138bc565b9050919050565b7f496e76616c696420737461746500000000000000000000000000000000000000600082015250565b6000613935600d836137aa565b9150613940826138ff565b602082019050919050565b6000602082019050818103600083015261396481613928565b9050919050565b7f4f6e6c7920627579657200000000000000000000000000000000000000000000600082015250565b60006139a1600a836137aa565b91506139ac8261396b565b602082019050919050565b600060208201905081810360008301526139d081613994565b9050919050565b7f5a65726f207061796d656e74207265666572656e636500000000000000000000600082015250565b6000613a0d6016836137aa565b9150613a18826139d7565b602082019050919050565b60006020820190508181036000830152613a3c81613a00565b9050919050565b7f43616e6e6f742065787069726500000000000000000000000000000000000000600082015250565b6000613a79600d836137aa565b9150613a8482613a43565b602082019050919050565b60006020820190508181036000830152613aa881613a6c565b9050919050565b7f4e6f742079657420657870697265640000000000000000000000000000000000600082015250565b6000613ae5600f836137aa565b9150613af082613aaf565b602082019050919050565b60006020820190508181036000830152613b1481613ad8565b9050919050565b6000606082019050613b3060008301866131c1565b613b3d6020830185613197565b613b4a60408301846131c1565b949350505050565b7f4f6e6c792070726f766964657220414100000000000000000000000000000000600082015250565b6000613b886010836137aa565b9150613b9382613b52565b602082019050919050565b60006020820190508181036000830152613bb781613b7b565b9050919050565b7f446561646c696e65207061737365640000000000000000000000000000000000600082015250565b6000613bf4600f836137aa565b9150613bff82613bbe565b602082019050919050565b60006020820190508181036000830152613c2381613be7565b9050919050565b7f5461736b2062696e64696e67206d69736d617463680000000000000000000000600082015250565b6000613c606015836137aa565b9150613c6b82613c2a565b602082019050919050565b60006020820190508181036000830152613c8f81613c53565b9050919050565b7f5369676e6572206d69736d617463680000000000000000000000000000000000600082015250565b6000613ccc600f836137aa565b9150613cd782613c96565b602082019050919050565b60006020820190508181036000830152613cfb81613cbf565b9050919050565b7f5265706c6179206e6f6e63652075736564000000000000000000000000000000600082015250565b6000613d386011836137aa565b9150613d4382613d02565b602082019050919050565b60006020820190508181036000830152613d6781613d2b565b9050919050565b600081549050919050565b600082825260208201905092915050565b60008190508160005260206000209050919050565b60008160001c9050919050565b600060ff82169050919050565b6000613dcc613dc783613d9f565b613dac565b9050919050565b6000819050919050565b6000613df0613deb83613d9f565b613dd3565b9050919050565b6000819050919050565b6000613e14613e0f83613d9f565b613df7565b9050919050565b600081549050919050565b60008190508160005260206000209050919050565b6000613e478254613ddd565b9050919050565b6000600182019050919050565b6000613e6682613e1b565b613e7081856134b4565b9350613e7b83613e26565b8060005b83811015613eb357613e9082613e3b565b613e9a88826134d5565b9750613ea583613e4e565b925050600181019050613e7f565b5085935050505092915050565b600060e083016000808401549050613ed781613db9565b613ee46000870182613481565b5060018401549050613ef581613ddd565b613f026020870182612fbb565b5060028401549050613f1381613e01565b613f20604087018261349a565b5060038401549050613f3181613e01565b613f3e606087018261349a565b5060048401549050613f4f81613e01565b613f5c608087018261349a565b5060058401549050613f6d81613ddd565b613f7a60a0870182612fbb565b506006840185830360c0870152613f918382613e5b565b925050819250505092915050565b6000613fab8383613ec0565b905092915050565b6000600782019050919050565b6000613fcb82613d6e565b613fd58185613d79565b935083602082028501613fe785613d8a565b8060005b85811015614022578484038952816140038582613f9f565b945061400e83613fb3565b925060208a01995050600181019050613feb565b50829750879550505050505092915050565b60006040820190506140496000830185612f91565b818103602083015261405b8184613fc0565b90509392505050565b60008151905061407381612dbd565b92915050565b60006020828403121561408f5761408e612da9565b5b600061409d84828501614064565b91505092915050565b7f53746f726564207370656320636f727275707465640000000000000000000000600082015250565b60006140dc6015836137aa565b91506140e7826140a6565b602082019050919050565b6000602082019050818103600083015261410b816140cf565b9050919050565b7f5265706c61792064696765737420757365640000000000000000000000000000600082015250565b60006141486012836137aa565b915061415382614112565b602082019050919050565b600060208201905081810360008301526141778161413b565b9050919050565b600080fd5b600080fd5b600080fd5b600080833560016020038436030381126141aa576141a961417e565b5b80840192508235915067ffffffffffffffff8211156141cc576141cb614183565b5b6020830192506001820236038313156141e8576141e7614188565b5b509250929050565b7f496e76616c69642070726f7669646572207369676e6174757265000000000000600082015250565b6000614226601a836137aa565b9150614231826141f0565b602082019050919050565b6000602082019050818103600083015261425581614219565b9050919050565b600082825260208201905092915050565b6000819050919050565b60006142866020840184612dd4565b905092915050565b61429781612e16565b81146142a257600080fd5b50565b6000813590506142b48161428e565b92915050565b60006142c960208401846142a5565b905092915050565b6142da81612e16565b82525050565b6142e981613490565b81146142f457600080fd5b50565b600081359050614306816142e0565b92915050565b600061431b60208401846142f7565b905092915050565b60006143326020840184612e95565b905092915050565b60006143496020840184613683565b905092915050565b60e082016143626000830183614277565b61436f6000850182612fbb565b5061437d60208301836142ba565b61438a60208501826142d1565b50614398604083018361430c565b6143a5604085018261349a565b506143b36060830183614277565b6143c06060850182612fbb565b506143ce6080830183614323565b6143db6080850182612fca565b506143e960a08301836142ba565b6143f660a08501826142d1565b5061440460c083018361433a565b61441160c0850182612fff565b50505050565b60006144238383614351565b60e08301905092915050565b600082905092915050565b600060e082019050919050565b6000614453838561425c565b935061445e8261426d565b8060005b8581101561449757614474828461442f565b61447e8882614417565b97506144898361443a565b925050600181019050614462565b5085925050509392505050565b600060608201905081810360008301526144bf818688614447565b905081810360208301526144d38185613fc0565b90506144e26040830184613197565b95945050505050565b6000815190506144fa8161428e565b92915050565b6000601f19601f8301169050919050565b7f4e487b7100000000000000000000000000000000000000000000000000000000600052604160045260246000fd5b61454982614500565b810181811067ffffffffffffffff8211171561456857614567614511565b5b80604052505050565b600061457b612d9f565b90506145878282614540565b919050565b600067ffffffffffffffff8211156145a7576145a6614511565b5b602082029050602081019050919050565b600080fd5b600b81106145ca57600080fd5b50565b6000815190506145dc816145bd565b92915050565b6000608082840312156145f8576145f76145b8565b5b6146026080614571565b9050600061461284828501614064565b6000830152506020614626848285016145cd565b602083015250604061463a848285016144eb565b604083015250606061464e84828501614064565b60608301525092915050565b600061466d6146688461458c565b614571565b905080838252602082019050608084028301858111156146905761468f6132f1565b5b835b818110156146b957806146a588826145e2565b845260208401935050608081019050614692565b5050509392505050565b600082601f8301126146d8576146d76132e7565b5b81516146e884826020860161465a565b91505092915050565b6000806040838503121561470857614707612da9565b5b6000614716858286016144eb565b925050602083015167ffffffffffffffff81111561473757614736612dae565b5b614743858286016146c3565b9150509250929050565b7f4e487b7100000000000000000000000000000000000000000000000000000000600052603260045260246000fd5b60006080820190506147916000830187612f91565b61479e60208301866131d0565b6147ab6040830185612e22565b6147b86060830184612f91565b95945050505050565b7f4e487b7100000000000000000000000000000000000000000000000000000000600052601160045260246000fd5b60006147fb82612fd9565b91507fffffffffffffffffffffffffffffffffffffffffffffffffffffffffffffffff820361482d5761482c6147c1565b5b600182019050919050565b600060408201905061484d60008301856131c1565b61485a6020830184613197565b9392505050565b7f436f6e73747261696e7420696e646578206f7574206f6620626f756e64730000600082015250565b6000614897601e836137aa565b91506148a282614861565b602082019050919050565b600060208201905081810360008301526148c68161488a565b9050919050565b7f5a65726f2070726f766964657220414100000000000000000000000000000000600082015250565b60006149036010836137aa565b915061490e826148cd565b602082019050919050565b60006020820190508181036000830152614932816148f6565b9050919050565b7f5a65726f2070726f7669646572207369676e6572000000000000000000000000600082015250565b600061496f6014836137aa565b915061497a82614939565b602082019050919050565b6000602082019050818103600083015261499e81614962565b9050919050565b7f5a65726f20736368656d61206861736800000000000000000000000000000000600082015250565b60006149db6010836137aa565b91506149e6826149a5565b602082019050919050565b60006020820190508181036000830152614a0a816149ce565b9050919050565b7f4c696162696c697479206d757374206265203e20300000000000000000000000600082015250565b6000614a476015836137aa565b9150614a5282614a11565b602082019050919050565b60006020820190508181036000830152614a7681614a3a565b9050919050565b7f446561646c696e65206d75737420626520696e20667574757265000000000000600082015250565b6000614ab3601a836137aa565b9150614abe82614a7d565b602082019050919050565b60006020820190508181036000830152614ae281614aa6565b9050919050565b7f4e6f6e636520616c726561647920757365640000000000000000000000000000600082015250565b6000614b1f6012836137aa565b9150614b2a82614ae9565b602082019050919050565b60006020820190508181036000830152614b4e81614b12565b9050919050565b6000819050919050565b600081359050614b6e816145bd565b92915050565b6000614b836020840184614b5f565b905092915050565b600080fd5b600080fd5b600080fd5b60008083356001602003843603038112614bb757614bb6614b95565b5b83810192508235915060208301925067ffffffffffffffff821115614bdf57614bde614b8b565b5b602082023603831315614bf557614bf4614b90565b5b509250929050565b600080fd5b82818337505050565b6000614c1783856134b4565b93507f07ffffffffffffffffffffffffffffffffffffffffffffffffffffffffffffff831115614c4a57614c49614bfd565b5b602083029250614c5b838584614c02565b82840190509392505050565b600060e08301614c7a6000840184614b74565b614c876000860182613481565b50614c956020840184614277565b614ca26020860182612fbb565b50614cb0604084018461430c565b614cbd604086018261349a565b50614ccb606084018461430c565b614cd8606086018261349a565b50614ce6608084018461430c565b614cf3608086018261349a565b50614d0160a0840184614277565b614d0e60a0860182612fbb565b50614d1c60c0840184614b9a565b85830360c0870152614d2f838284614c0b565b925050508091505092915050565b6000614d498383614c67565b905092915050565b60008235600160e003833603038112614d6d57614d6c614b95565b5b82810191505092915050565b6000602082019050919050565b6000614d928385613d79565b935083602084028501614da484614b55565b8060005b87811015614de8578484038952614dbf8284614d51565b614dc98582614d3d565b9450614dd483614d79565b925060208a01995050600181019050614da8565b50829750879450505050509392505050565b6000604082019050614e0f6000830186612f91565b8181036020830152614e22818486614d86565b9050949350505050565b600061010082019050614e42600083018b6131c1565b614e4f602083018a6131c1565b614e5c60408301896131c1565b614e696060830188612f91565b614e766080830187613197565b614e8360a0830186613197565b614e9060c08301856131d0565b614e9d60e0830184612f91565b9998505050505050505050565b7f5461736b20616c72656164792065786973747300000000000000000000000000600082015250565b6000614ee06013836137aa565b9150614eeb82614eaa565b602082019050919050565b60006020820190508181036000830152614f0f81614ed3565b9050919050565b60008235600160e003833603038112614f3257614f3161417e565b5b80830191505092915050565b600060208284031215614f5457614f53612da9565b5b6000614f6284828501614b5f565b91505092915050565b60008083356001602003843603038112614f8857614f8761417e565b5b80840192508235915067ffffffffffffffff821115614faa57614fa9614183565b5b602083019250602082023603831315614fc657614fc5614188565b5b509250929050565b6000606082019050614fe36000830186612f91565b614ff06020830185612e22565b614ffd60408301846131c1565b949350505050565b60006020828403121561501b5761501a612da9565b5b600061502984828501613683565b91505092915050565b600061010082019050615048600083018b612f91565b615055602083018a612f91565b6150626040830189612f91565b61506f6060830188613197565b61507c60808301876131d0565b61508960a08301866131c1565b61509660c0830185612f91565b6150a360e0830184612f91565b9998505050505050505050565b600081905092915050565b7f1901000000000000000000000000000000000000000000000000000000000000600082015250565b60006150f16002836150b0565b91506150fc826150bb565b600282019050919050565b6000819050919050565b61512261511d82612db3565b615107565b82525050565b6000615133826150e4565b915061513f8285615111565b60208201915061514f8284615111565b6020820191508190509392505050565b60006080820190506151746000830187612f91565b61518160208301866131d0565b61518e6040830185612f91565b61519b6060830184612f91565b9594505050505056fea2646970667358221220e64a6006f41364cd0cb788bdb30c92ddfd0a50e110adc5294e66578c301677cc64736f6c63430008140033",
  "linkReferences": {},
  "deployedLinkReferences": {}
}