{
  "_format": "hh-sol-artifact-1",
  "contractName": "AUSD",
  "sourceName": "contracts/AUSD.sol",
  "abi": [
    {
      "inputs": [],
      "stateMutability": "nonpayable",
      "type": "constructor"
    },
    {
      "anonymous": false,
      "inputs": [
        {
          "indexed": true,
          "internalType": "address",
          "name": "owner",
          "type": "address"
        },
        {
          "indexed": true,
          "internalType": "address",
          "name": "spender",
          "type": "address"
        },
        {
          "indexed": false,
          "internalType": "uint256",
          "name": "value",
          "type": "uint256"
        }
      ],
      "name": "Approval",
      "type": "event"
    },
    {
      "anonymous": false,
      "inputs": [
        {
          "indexed": true,
          "internalType": "address",
          "name": "authorizer",
          "type": "address"
        },
        {
          "indexed": true,
          "internalType": "bytes32",
          "name": "nonce",
          "type": "bytes32"
        }
      ],
      "name": "AuthorizationUsed",
      "type": "event"
    },
    {
      "anonymous": false,
      "inputs": [
        {
          "indexed": true,
          "internalType": "address",
          "name": "to",
          "type": "address"
        },
        {
          "indexed": false,
          "internalType": "uint256",
          "name": "amount",
          "type": "uint256"
        }
      ],
      "name": "Mint",
      "type": "event"
    },
    {
      "anonymous": false,
      "inputs": [
        {
          "indexed": true,
          "internalType": "address",
          "name": "from",
          "type": "address"
        },
        {
          "indexed": true,
          "internalType": "address",
          "name": "to",
          "type": "address"
        },
        {
          "indexed": false,
          "internalType": "uint256",
          "name": "value",
          "type": "uint256"
        }
      ],
      "name": "Transfer",
      "type": "event"
    },
    {
      "inputs": [],
      "name": "DOMAIN_SEPARATOR",
      "outputs": [
        {
          "internalType": "bytes32",
          "name": "",
          "type": "bytes32"
        }
      ],
      "stateMutability": "view",
      "type": "function"
    },
    {
      "inputs": [],
      "name": "RECEIVE_WITH_AUTHORIZATION_TYPEHASH",
      "outputs": [
        {
          "internalType": "bytes32",
          "name": "",
          "type": "bytes32"
        }
      ],
      "stateMutability": "view",
      "type": "function"
    },
    {
      "inputs": [],
      "name": "TRANSFER_WITH_AUTHORIZATION_TYPEHASH",
      "outputs": [
        {
          "internalType": "bytes32",
          "name": "",
          "type": "bytes32"
        }
      ],
      "stateMutability": "view",
      "type": "function"
    },
    {
      "inputs": [
        {
          "internalType": "address",
          "name": "",
          "type": "address"
        },
        {
          "internalType": "address",
          "name": "",
          "type": "address"
        }
      ],
      "name": "allowance",
      "outputs": [
        {
          "internalType": "uint256",
          "name": "",
          "type": "uint256"
        }
      ],
      "stateMutability": "view",
      "type": "function"
    },
    {
      "inputs": [
        {
          "internalType": "address",
          "name": "spender",
          "type": "address"
        },
        {
          "internalType": "uint256",
          "name": "amount",
          "type": "uint256"
        }
      ],
      "name": "approve",
      "outputs": [
        {
          "internalType": "bool",
          "name": "",
          "type": "bool"
        }
      ],
      "stateMutability": "nonpayable",
      "type": "function"
    },
    {
      "inputs": [
        {
          "internalType": "address",
          "name": "",
          "type": "address"
        },
        {
          "internalType": "bytes32",
          "name": "",
          "type": "bytes32"
        }
      ],
      "name": "authorizationState",
      "outputs": [
        {
          "internalType": "bool",
          "name": "",
          "type": "bool"
        }
      ],
      "stateMutability": "view",
      "type": "function"
    },
    {
      "inputs": [
        {
          "internalType": "address",
          "name": "",
          "type": "address"
        }
      ],
      "name": "balanceOf",
      "outputs": [
        {
          "internalType": "uint256",
          "name": "",
          "type": "uint256"
        }
      ],
      "stateMutability": "view",
      "type": "function"
    },
    {
      "inputs": [],
      "name": "decimals",
      "outputs": [
        {
          "internalType": "uint8",
          "name": "",
          "type": "uint8"
        }
      ],
      "stateMutability": "view",
      "type": "function"
    },
    {
      "inputs": [
        {
          "internalType": "address",
          "name": "to",
          "type": "address"
        },
        {
          "internalType": "uint256",
          "name": "amount",
          "type": "uint256"
        }
      ],
      "name": "mint",
      "outputs": [],
      "stateMutability": "nonpayable",
      "type": "function"
    },
    {
      "inputs": [],
      "name": "name",
      "outputs": [
        {
          "internalType": "string",
          "name": "",
          "type": "string"
        }
      ],
      "stateMutability": "view",
      "type": "function"
    },
    {
      "inputs": [],
      "name": "owner",
      "outputs": [
        {
          "internalType": "address",
          "name": "",
          "type": "address"
        }
      ],
      "stateMutability": "view",
      "type": "function"
    },
    {
      "inputs": [
        {
          "internalType": "address",
          "name": "from",
          "type": "address"
        },
        {
          "internalType": "address",
          "name": "to",
          "type": "address"
        },
        {
          "internalType": "uint256",
          "name": "value",
          "type": "uint256"
        },
        {
          "internalType": "uint256",
          "name": "validAfter",
          "type": "uint256"
        },
        {
          "internalType": "uint256",
          "name": "validBefore",
          "type": "uint256"
        },
        {
          "internalType": "bytes32",
          "name": "nonce",
          "type": "bytes32"
        },
        {
          "internalType": "uint8",
          "name": "v",
          "type": "uint8"
        },
        {
          "internalType": "bytes32",
          "name": "r",
          "type": "bytes32"
        },
        {
          "internalType": "bytes32",
          "name": "s",
          "type": "bytes32"
        }
      ],
      "name": "receiveWithAuthorization",
      "outputs": [],
      "stateMutability": "nonpayable",
      "type": "function"
    },
    {
      "inputs": [],
      "name": "symbol",
      "outputs": [
        {
          "internalType": "string",
          "name": "",
          "type": "string"
        }
      ],
      "stateMutability": "view",
      "type": "function"
    },
    {
      "inputs": [],
      "name": "totalSupply",
      "outputs": [
        {
          "internalType": "uint256",
          "name": "",
          "type": "uint256"
        }
      ],
      "stateMutability": "view",
      "type": "function"
    },
    {
      "inputs": [
        {
          "internalType": "address",
          "name": "to",
          "type": "address"
        },
        {
          "internalType": "uint256",
          "name": "amount",
          "type": "uint256"
        }
      ],
      "name": "transfer",
      "outputs": [
        {
          "internalType": "bool",
          "name": "",
          "type": "bool"
        }
      ],
      "stateMutability": "nonpayable",
      "type": "function"
    },
    {
      "inputs": [
        {
          "internalType": "address",
          "name": "from",
          "type": "address"
        },
        {
          "internalType": "address",
          "name": "to",
          "type": "address"
        },
        {
          "internalType": "uint256",
          "name": "amount",
          "type": "uint256"
        }
      ],
      "name": "transferFrom",
      "outputs": [
        {
          "internalType": "bool",
          "name": "",
          "type": "bool"
        }
      ],
      "stateMutability": "nonpayable",
      "type": "function"
    },
    {
      "inputs": [
        {
          "internalType": "address",
          "name": "from",
          "type": "address"
        },
        {
          "internalType": "address",
          "name": "to",
          "type": "address"
        },
        {
          "internalType": "uint256",
          "name": "value",
          "type": "uint256"
        },
        {
          "internalType": "uint256",
          "name": "validAfter",
          "type": "uint256"
        },
        {
          "internalType": "uint256",
          "name": "validBefore",
          "type": "uint256"
        },
        {
          "internalType": "bytes32",
          "name": "nonce",
          "type": "bytes32"
        },
        {
          "internalType": "uint8",
          "name": "v",
          "type": "uint8"
        },
        {
          "internalType": "bytes32",
          "name": "r",
          "type": "bytes32"
        },
        {
          "internalType": "bytes32",
          "name": "s",
          "type": "bytes32"
        }
      ],
      "name": "transferWithAuthorization",
      "outputs": [],
      "stateMutability": "nonpayable",
      "type": "function"
    }
  ],
  "bytecode": "0x60806040523480156200001157600080fd5b5033600160006101000a81548173ffffffffffffffffffffffffffffffffffffffff021916908373ffffffffffffffffffffffffffffffffffffffff1602179055507f8b73c3c69bb8fe3d512ecc4cf759cc79239f7b179b0ffacaa9a75d522b39400f6040518060400160405280600a81526020017f4143434f52442055534400000000000000000000000000000000000000000000815250805190602001206040518060400160405280600181526020017f3100000000000000000000000000000000000000000000000000000000000000815250805190602001204630604051602001620001069594939291906200035a565b60405160208183030381529060405280519060200120600581905550620001393364e8d4a510006200013f60201b60201c565b620004c1565b600073ffffffffffffffffffffffffffffffffffffffff168273ffffffffffffffffffffffffffffffffffffffff1603620001b1576040517f08c379a0000000000000000000000000000000000000000000000000000000008152600401620001a89062000418565b60405180910390fd5b80600080828254620001c4919062000469565b9250508190555080600260008473ffffffffffffffffffffffffffffffffffffffff1673ffffffffffffffffffffffffffffffffffffffff16815260200190815260200160002060008282546200021c919062000469565b925050819055508173ffffffffffffffffffffffffffffffffffffffff16600073ffffffffffffffffffffffffffffffffffffffff167fddf252ad1be2c89b69c2b068fc378daa952ba7f163c4a11628f55a4df523b3ef83604051620002839190620004a4565b60405180910390a38173ffffffffffffffffffffffffffffffffffffffff167f0f6798a560793a54c3bcfe86a93cde1e73087d944c0ea20544137d412139688582604051620002d39190620004a4565b60405180910390a25050565b6000819050919050565b620002f481620002df565b82525050565b6000819050919050565b6200030f81620002fa565b82525050565b600073ffffffffffffffffffffffffffffffffffffffff82169050919050565b6000620003428262000315565b9050919050565b620003548162000335565b82525050565b600060a082019050620003716000830188620002e9565b620003806020830187620002e9565b6200038f6040830186620002e9565b6200039e606083018562000304565b620003ad608083018462000349565b9695505050505050565b600082825260208201905092915050565b7f4d696e7420746f207a65726f2061646472657373000000000000000000000000600082015250565b600062000400601483620003b7565b91506200040d82620003c8565b602082019050919050565b600060208201905081810360008301526200043381620003f1565b9050919050565b7f4e487b7100000000000000000000000000000000000000000000000000000000600052601160045260246000fd5b60006200047682620002fa565b91506200048383620002fa565b92508282019050808211156200049e576200049d6200043a565b5b92915050565b6000602082019050620004bb600083018462000304565b92915050565b611e2380620004d16000396000f3fe608060405234801561001057600080fd5b506004361061010b5760003560e01c80637f2eecc3116100a2578063a9059cbb11610071578063a9059cbb146102ac578063dd62ed3e146102dc578063e3ee160e1461030c578063e94a010214610328578063ef55bec6146103585761010b565b80637f2eecc3146102345780638da5cb5b1461025257806395d89b4114610270578063a0cc6a681461028e5761010b565b8063313ce567116100de578063313ce567146101ac5780633644e515146101ca57806340c10f19146101e857806370a08231146102045761010b565b806306fdde0314610110578063095ea7b31461012e57806318160ddd1461015e57806323b872dd1461017c575b600080fd5b610118610374565b604051610125919061133d565b60405180910390f35b610148600480360381019061014391906113f8565b6103ad565b6040516101559190611453565b60405180910390f35b61016661049f565b604051610173919061147d565b60405180910390f35b61019660048036038101906101919190611498565b6104a5565b6040516101a39190611453565b60405180910390f35b6101b461060f565b6040516101c19190611507565b60405180910390f35b6101d2610614565b6040516101df919061153b565b60405180910390f35b61020260048036038101906101fd91906113f8565b61061a565b005b61021e60048036038101906102199190611556565b6106b8565b60405161022b919061147d565b60405180910390f35b61023c6106d0565b604051610249919061153b565b60405180910390f35b61025a6106f4565b6040516102679190611592565b60405180910390f35b61027861071a565b604051610285919061133d565b60405180910390f35b610296610753565b6040516102a3919061153b565b60405180910390f35b6102c660048036038101906102c191906113f8565b610777565b6040516102d39190611453565b60405180910390f35b6102f660048036038101906102f191906115ad565b61078e565b604051610303919061147d565b60405180910390f35b61032660048036038101906103219190611645565b6107b3565b005b610342600480360381019061033d919061170f565b610adc565b60405161034f9190611453565b60405180910390f35b610372600480360381019061036d9190611645565b610b0b565b005b6040518060400160405280600a81526020017f4143434f5244205553440000000000000000000000000000000000000000000081525081565b600081600360003373ffffffffffffffffffffffffffffffffffffffff1673ffffffffffffffffffffffffffffffffffffffff16815260200190815260200160002060008573ffffffffffffffffffffffffffffffffffffffff1673ffffffffffffffffffffffffffffffffffffffff168152602001908152602001600020819055508273ffffffffffffffffffffffffffffffffffffffff163373ffffffffffffffffffffffffffffffffffffffff167f8c5be1e5ebec7d5bd14f71427d1e84f3dd0314c0f7b2291e5b200ac8c7c3b9258460405161048d919061147d565b60405180910390a36001905092915050565b60005481565b600081600360008673ffffffffffffffffffffffffffffffffffffffff1673ffffffffffffffffffffffffffffffffffffffff16815260200190815260200160002060003373ffffffffffffffffffffffffffffffffffffffff1673ffffffffffffffffffffffffffffffffffffffff168152602001908152602001600020541015610566576040517f08c379a000000000000000000000000000000000000000000000000000000000815260040161055d9061179b565b60405180910390fd5b81600360008673ffffffffffffffffffffffffffffffffffffffff1673ffffffffffffffffffffffffffffffffffffffff16815260200190815260200160002060003373ffffffffffffffffffffffffffffffffffffffff1673ffffffffffffffffffffffffffffffffffffffff16815260200190815260200160002060008282546105f291906117ea565b92505081905550610604848484610ea2565b600190509392505050565b600681565b60055481565b600160009054906101000a900473ffffffffffffffffffffffffffffffffffffffff1673ffffffffffffffffffffffffffffffffffffffff163373ffffffffffffffffffffffffffffffffffffffff16146106aa576040517f08c379a00000000000000000000000000000000000000000000000000000000081526004016106a19061186a565b60405180910390fd5b6106b48282611118565b5050565b60026020528060005260406000206000915090505481565b7fd099cc98ef71107a616c4f0f941f04c322d8e254fe26b3c6668db87aae413de881565b600160009054906101000a900473ffffffffffffffffffffffffffffffffffffffff1681565b6040518060400160405280600481526020017f415553440000000000000000000000000000000000000000000000000000000081525081565b7f7c7c6cdb67a18743f49ec6fa9b35f50d52ed05cbed4cc592e13b44501c1a226781565b6000610784338484610ea2565b6001905092915050565b6003602052816000526040600020602052806000526040600020600091509150505481565b8542116107f5576040517f08c379a00000000000000000000000000000000000000000000000000000000081526004016107ec906118d6565b60405180910390fd5b844210610837576040517f08c379a000000000000000000000000000000000000000000000000000000000815260040161082e90611942565b60405180910390fd5b600460008a73ffffffffffffffffffffffffffffffffffffffff1673ffffffffffffffffffffffffffffffffffffffff168152602001908152602001600020600085815260200190815260200160002060009054906101000a900460ff16156108d5576040517f08c379a00000000000000000000000000000000000000000000000000000000081526004016108cc906119ae565b60405180910390fd5b60006005547f7c7c6cdb67a18743f49ec6fa9b35f50d52ed05cbed4cc592e13b44501c1a22678b8b8b8b8b8b60405160200161091797969594939291906119ce565b6040516020818303038152906040528051906020012060405160200161093e929190611ab5565b60405160208183030381529060405280519060200120905060006001828686866040516000815260200160405260405161097b9493929190611aec565b6020604051602081039080840390855afa15801561099d573d6000803e3d6000fd5b5050506020604051035190508a73ffffffffffffffffffffffffffffffffffffffff168173ffffffffffffffffffffffffffffffffffffffff1614610a17576040517f08c379a0000000000000000000000000000000000000000000000000000000008152600401610a0e90611b7d565b60405180910390fd5b6001600460008d73ffffffffffffffffffffffffffffffffffffffff1673ffffffffffffffffffffffffffffffffffffffff168152602001908152602001600020600088815260200190815260200160002060006101000a81548160ff021916908315150217905550858b73ffffffffffffffffffffffffffffffffffffffff167f98de503528ee59b575ef0c0a2576a82497bfc029a5685b209e9ec333479b10a560405160405180910390a3610acf8b8b8b610ea2565b5050505050505050505050565b60046020528160005260406000206020528060005260406000206000915091509054906101000a900460ff1681565b3373ffffffffffffffffffffffffffffffffffffffff168873ffffffffffffffffffffffffffffffffffffffff1614610b79576040517f08c379a0000000000000000000000000000000000000000000000000000000008152600401610b7090611be9565b60405180910390fd5b854211610bbb576040517f08c379a0000000000000000000000000000000000000000000000000000000008152600401610bb2906118d6565b60405180910390fd5b844210610bfd576040517f08c379a0000000000000000000000000000000000000000000000000000000008152600401610bf490611942565b60405180910390fd5b600460008a73ffffffffffffffffffffffffffffffffffffffff1673ffffffffffffffffffffffffffffffffffffffff168152602001908152602001600020600085815260200190815260200160002060009054906101000a900460ff1615610c9b576040517f08c379a0000000000000000000000000000000000000000000000000000000008152600401610c92906119ae565b60405180910390fd5b60006005547fd099cc98ef71107a616c4f0f941f04c322d8e254fe26b3c6668db87aae413de88b8b8b8b8b8b604051602001610cdd97969594939291906119ce565b60405160208183030381529060405280519060200120604051602001610d04929190611ab5565b604051602081830303815290604052805190602001209050600060018286868660405160008152602001604052604051610d419493929190611aec565b6020604051602081039080840390855afa158015610d63573d6000803e3d6000fd5b5050506020604051035190508a73ffffffffffffffffffffffffffffffffffffffff168173ffffffffffffffffffffffffffffffffffffffff1614610ddd576040517f08c379a0000000000000000000000000000000000000000000000000000000008152600401610dd490611b7d565b60405180910390fd5b6001600460008d73ffffffffffffffffffffffffffffffffffffffff1673ffffffffffffffffffffffffffffffffffffffff168152602001908152602001600020600088815260200190815260200160002060006101000a81548160ff021916908315150217905550858b73ffffffffffffffffffffffffffffffffffffffff167f98de503528ee59b575ef0c0a2576a82497bfc029a5685b209e9ec333479b10a560405160405180910390a3610e958b8b8b610ea2565b5050505050505050505050565b600073ffffffffffffffffffffffffffffffffffffffff168373ffffffffffffffffffffffffffffffffffffffff1603610f11576040517f08c379a0000000000000000000000000000000000000000000000000000000008152600401610f0890611c55565b60405180910390fd5b600073ffffffffffffffffffffffffffffffffffffffff168273ffffffffffffffffffffffffffffffffffffffff1603610f80576040517f08c379a0000000000000000000000000000000000000000000000000000000008152600401610f7790611cc1565b60405180910390fd5b80600260008573ffffffffffffffffffffffffffffffffffffffff1673ffffffffffffffffffffffffffffffffffffffff168152602001908152602001600020541015611002576040517f08c379a0000000000000000000000000000000000000000000000000000000008152600401610ff990611d2d565b60405180910390fd5b80600260008573ffffffffffffffffffffffffffffffffffffffff1673ffffffffffffffffffffffffffffffffffffffff168152602001908152602001600020600082825461105191906117ea565b9250508190555080600260008473ffffffffffffffffffffffffffffffffffffffff1673ffffffffffffffffffffffffffffffffffffffff16815260200190815260200160002060008282546110a79190611d4d565b925050819055508173ffffffffffffffffffffffffffffffffffffffff168373ffffffffffffffffffffffffffffffffffffffff167fddf252ad1be2c89b69c2b068fc378daa952ba7f163c4a11628f55a4df523b3ef8360405161110b919061147d565b60405180910390a3505050565b600073ffffffffffffffffffffffffffffffffffffffff168273ffffffffffffffffffffffffffffffffffffffff1603611187576040517f08c379a000000000000000000000000000000000000000000000000000000000815260040161117e90611dcd565b60405180910390fd5b806000808282546111989190611d4d565b9250508190555080600260008473ffffffffffffffffffffffffffffffffffffffff1673ffffffffffffffffffffffffffffffffffffffff16815260200190815260200160002060008282546111ee9190611d4d565b925050819055508173ffffffffffffffffffffffffffffffffffffffff16600073ffffffffffffffffffffffffffffffffffffffff167fddf252ad1be2c89b69c2b068fc378daa952ba7f163c4a11628f55a4df523b3ef83604051611253919061147d565b60405180910390a38173ffffffffffffffffffffffffffffffffffffffff167f0f6798a560793a54c3bcfe86a93cde1e73087d944c0ea20544137d4121396885826040516112a1919061147d565b60405180910390a25050565b600081519050919050565b600082825260208201905092915050565b60005b838110156112e75780820151818401526020810190506112cc565b60008484015250505050565b6000601f19601f8301169050919050565b600061130f826112ad565b61131981856112b8565b93506113298185602086016112c9565b611332816112f3565b840191505092915050565b600060208201905081810360008301526113578184611304565b905092915050565b600080fd5b600073ffffffffffffffffffffffffffffffffffffffff82169050919050565b600061138f82611364565b9050919050565b61139f81611384565b81146113aa57600080fd5b50565b6000813590506113bc81611396565b92915050565b6000819050919050565b6113d5816113c2565b81146113e057600080fd5b50565b6000813590506113f2816113cc565b92915050565b6000806040838503121561140f5761140e61135f565b5b600061141d858286016113ad565b925050602061142e858286016113e3565b9150509250929050565b60008115159050919050565b61144d81611438565b82525050565b60006020820190506114686000830184611444565b92915050565b611477816113c2565b82525050565b6000602082019050611492600083018461146e565b92915050565b6000806000606084860312156114b1576114b061135f565b5b60006114bf868287016113ad565b93505060206114d0868287016113ad565b92505060406114e1868287016113e3565b9150509250925092565b600060ff82169050919050565b611501816114eb565b82525050565b600060208201905061151c60008301846114f8565b92915050565b6000819050919050565b61153581611522565b82525050565b6000602082019050611550600083018461152c565b92915050565b60006020828403121561156c5761156b61135f565b5b600061157a848285016113ad565b91505092915050565b61158c81611384565b82525050565b60006020820190506115a76000830184611583565b92915050565b600080604083850312156115c4576115c361135f565b5b60006115d2858286016113ad565b92505060206115e3858286016113ad565b9150509250929050565b6115f681611522565b811461160157600080fd5b50565b600081359050611613816115ed565b92915050565b611622816114eb565b811461162d57600080fd5b50565b60008135905061163f81611619565b92915050565b60008060008060008060008060006101208a8c0312156116685761166761135f565b5b60006116768c828d016113ad565b99505060206116878c828d016113ad565b98505060406116988c828d016113e3565b97505060606116a98c828d016113e3565b96505060806116ba8c828d016113e3565b95505060a06116cb8c828d01611604565b94505060c06116dc8c828d01611630565b93505060e06116ed8c828d01611604565b9250506101006116ff8c828d01611604565b9150509295985092959850929598565b600080604083850312156117265761172561135f565b5b6000611734858286016113ad565b925050602061174585828601611604565b9150509250929050565b7f496e73756666696369656e7420616c6c6f77616e636500000000000000000000600082015250565b60006117856016836112b8565b91506117908261174f565b602082019050919050565b600060208201905081810360008301526117b481611778565b9050919050565b7f4e487b7100000000000000000000000000000000000000000000000000000000600052601160045260246000fd5b60006117f5826113c2565b9150611800836113c2565b9250828203905081811115611818576118176117bb565b5b92915050565b7f4e6f74206f776e65720000000000000000000000000000000000000000000000600082015250565b60006118546009836112b8565b915061185f8261181e565b602082019050919050565b6000602082019050818103600083015261188381611847565b9050919050565b7f417574686f72697a6174696f6e206e6f74207965742076616c69640000000000600082015250565b60006118c0601b836112b8565b91506118cb8261188a565b602082019050919050565b600060208201905081810360008301526118ef816118b3565b9050919050565b7f417574686f72697a6174696f6e20657870697265640000000000000000000000600082015250565b600061192c6015836112b8565b9150611937826118f6565b602082019050919050565b6000602082019050818103600083015261195b8161191f565b9050919050565b7f417574686f72697a6174696f6e20616c72656164792075736564000000000000600082015250565b6000611998601a836112b8565b91506119a382611962565b602082019050919050565b600060208201905081810360008301526119c78161198b565b9050919050565b600060e0820190506119e3600083018a61152c565b6119f06020830189611583565b6119fd6040830188611583565b611a0a606083018761146e565b611a17608083018661146e565b611a2460a083018561146e565b611a3160c083018461152c565b98975050505050505050565b600081905092915050565b7f1901000000000000000000000000000000000000000000000000000000000000600082015250565b6000611a7e600283611a3d565b9150611a8982611a48565b600282019050919050565b6000819050919050565b611aaf611aaa82611522565b611a94565b82525050565b6000611ac082611a71565b9150611acc8285611a9e565b602082019150611adc8284611a9e565b6020820191508190509392505050565b6000608082019050611b01600083018761152c565b611b0e60208301866114f8565b611b1b604083018561152c565b611b28606083018461152c565b95945050505050565b7f496e76616c6964207369676e6174757265000000000000000000000000000000600082015250565b6000611b676011836112b8565b9150611b7282611b31565b602082019050919050565b60006020820190508181036000830152611b9681611b5a565b9050919050565b7f43616c6c6572206d75737420626520726563697069656e740000000000000000600082015250565b6000611bd36018836112b8565b9150611bde82611b9d565b602082019050919050565b60006020820190508181036000830152611c0281611bc6565b9050919050565b7f5472616e736665722066726f6d207a65726f2061646472657373000000000000600082015250565b6000611c3f601a836112b8565b9150611c4a82611c09565b602082019050919050565b60006020820190508181036000830152611c6e81611c32565b9050919050565b7f5472616e7366657220746f207a65726f20616464726573730000000000000000600082015250565b6000611cab6018836112b8565b9150611cb682611c75565b602082019050919050565b60006020820190508181036000830152611cda81611c9e565b9050919050565b7f496e73756666696369656e742062616c616e6365000000000000000000000000600082015250565b6000611d176014836112b8565b9150611d2282611ce1565b602082019050919050565b60006020820190508181036000830152611d4681611d0a565b9050919050565b6000611d58826113c2565b9150611d63836113c2565b9250828201905080821115611d7b57611d7a6117bb565b5b92915050565b7f4d696e7420746f207a65726f2061646472657373000000000000000000000000600082015250565b6000611db76014836112b8565b9150611dc282611d81565b602082019050919050565b60006020820190508181036000830152611de681611daa565b905091905056fea2646970667358221220cd8f576bd788246f698bd6df27b9d4e9aa941c4ad51a9c01152ce98ff4ef71a064736f6c63430008140033",
  "linkReferences": {},
  "deployedLinkReferences": {}
}