{
  "_format": "hh-sol-artifact-1",
  "contractName": "ProviderVault",
  "sourceName": "contracts/ProviderVault.sol",
  "abi": [
    {
      "inputs": [
        {
          "internalType": "address",
          "name": "_token",
          "type": "address"
        }
      ],
      "stateMutability": "nonpayable",
      "type": "constructor"
    },
    {
      "inputs": [
        {
          "internalType": "address",
          "name": "token",
          "type": "address"
        }
      ],
      "name": "SafeERC20FailedOperation",
      "type": "error"
    },
    {
      "anonymous": false,
      "inputs": [
        {
          "indexed": true,
          "internalType": "address",
          "name": "providerAA",
          "type": "address"
        },
        {
          "indexed": false,
          "internalType": "uint256",
          "name": "amount",
          "type": "uint256"
        },
        {
          "indexed": false,
          "internalType": "uint256",
          "name": "newTotal",
          "type": "uint256"
        }
      ],
      "name": "Deposited",
      "type": "event"
    },
    {
      "anonymous": false,
      "inputs": [
        {
          "indexed": true,
          "internalType": "address",
          "name": "providerAA",
          "type": "address"
        },
        {
          "indexed": false,
          "internalType": "uint256",
          "name": "amount",
          "type": "uint256"
        },
        {
          "indexed": false,
          "internalType": "uint256",
          "name": "newLiability",
          "type": "uint256"
        }
      ],
      "name": "LiabilityReleased",
      "type": "event"
    },
    {
      "anonymous": false,
      "inputs": [
        {
          "indexed": true,
          "internalType": "address",
          "name": "providerAA",
          "type": "address"
        },
        {
          "indexed": false,
          "internalType": "uint256",
          "name": "amount",
          "type": "uint256"
        },
        {
          "indexed": false,
          "internalType": "uint256",
          "name": "newLiability",
          "type": "uint256"
        }
      ],
      "name": "LiabilityReserved",
      "type": "event"
    },
    {
      "anonymous": false,
      "inputs": [
        {
          "indexed": true,
          "internalType": "address",
          "name": "providerAA",
          "type": "address"
        },
        {
          "indexed": true,
          "internalType": "address",
          "name": "oldOperator",
          "type": "address"
        },
        {
          "indexed": true,
          "internalType": "address",
          "name": "newOperator",
          "type": "address"
        }
      ],
      "name": "OperatorUpdated",
      "type": "event"
    },
    {
      "anonymous": false,
      "inputs": [
        {
          "indexed": true,
          "internalType": "address",
          "name": "providerAA",
          "type": "address"
        },
        {
          "indexed": true,
          "internalType": "address",
          "name": "operator",
          "type": "address"
        }
      ],
      "name": "ProviderVaultRegistered",
      "type": "event"
    },
    {
      "anonymous": false,
      "inputs": [
        {
          "indexed": true,
          "internalType": "address",
          "name": "providerAA",
          "type": "address"
        },
        {
          "indexed": true,
          "internalType": "address",
          "name": "recipient",
          "type": "address"
        },
        {
          "indexed": false,
          "internalType": "uint256",
          "name": "amount",
          "type": "uint256"
        }
      ],
      "name": "Slashed",
      "type": "event"
    },
    {
      "anonymous": false,
      "inputs": [
        {
          "indexed": true,
          "internalType": "address",
          "name": "newTaskCommitment",
          "type": "address"
        }
      ],
      "name": "TaskCommitmentUpdated",
      "type": "event"
    },
    {
      "anonymous": false,
      "inputs": [
        {
          "indexed": true,
          "internalType": "address",
          "name": "providerAA",
          "type": "address"
        },
        {
          "indexed": false,
          "internalType": "uint256",
          "name": "amount",
          "type": "uint256"
        },
        {
          "indexed": false,
          "internalType": "uint256",
          "name": "remaining",
          "type": "uint256"
        }
      ],
      "name": "Withdrawn",
      "type": "event"
    },
    {
      "inputs": [],
      "name": "admin",
      "outputs": [
        {
          "internalType": "address",
          "name": "",
          "type": "address"
        }
      ],
      "stateMutability": "view",
      "type": "function"
    },
    {
      "inputs": [
        {
          "internalType": "address",
          "name": "providerAA",
          "type": "address"
        }
      ],
      "name": "availableCapacity",
      "outputs": [
        {
          "internalType": "uint256",
          "name": "",
          "type": "uint256"
        }
      ],
      "stateMutability": "view",
      "type": "function"
    },
    {
      "inputs": [
        {
          "internalType": "address",
          "name": "operator",
          "type": "address"
        }
      ],
      "name": "clearOperator",
      "outputs": [],
      "stateMutability": "nonpayable",
      "type": "function"
    },
    {
      "inputs": [
        {
          "internalType": "uint256",
          "name": "amount",
          "type": "uint256"
        }
      ],
      "name": "deposit",
      "outputs": [],
      "stateMutability": "nonpayable",
      "type": "function"
    },
    {
      "inputs": [
        {
          "internalType": "address",
          "name": "providerAA",
          "type": "address"
        }
      ],
      "name": "getVaultState",
      "outputs": [
        {
          "internalType": "uint256",
          "name": "totalDeposited",
          "type": "uint256"
        },
        {
          "internalType": "uint256",
          "name": "outstandingLiability",
          "type": "uint256"
        },
        {
          "internalType": "uint256",
          "name": "available",
          "type": "uint256"
        },
        {
          "internalType": "bool",
          "name": "registered",
          "type": "bool"
        }
      ],
      "stateMutability": "view",
      "type": "function"
    },
    {
      "inputs": [
        {
          "internalType": "address",
          "name": "",
          "type": "address"
        }
      ],
      "name": "operatorToAA",
      "outputs": [
        {
          "internalType": "address",
          "name": "",
          "type": "address"
        }
      ],
      "stateMutability": "view",
      "type": "function"
    },
    {
      "inputs": [
        {
          "internalType": "address",
          "name": "operator",
          "type": "address"
        }
      ],
      "name": "registerVault",
      "outputs": [],
      "stateMutability": "nonpayable",
      "type": "function"
    },
    {
      "inputs": [
        {
          "internalType": "address",
          "name": "providerAA",
          "type": "address"
        },
        {
          "internalType": "uint256",
          "name": "amount",
          "type": "uint256"
        }
      ],
      "name": "releaseLiability",
      "outputs": [],
      "stateMutability": "nonpayable",
      "type": "function"
    },
    {
      "inputs": [
        {
          "internalType": "address",
          "name": "providerAA",
          "type": "address"
        },
        {
          "internalType": "uint256",
          "name": "amount",
          "type": "uint256"
        }
      ],
      "name": "reserveLiability",
      "outputs": [],
      "stateMutability": "nonpayable",
      "type": "function"
    },
    {
      "inputs": [
        {
          "internalType": "address",
          "name": "caller",
          "type": "address"
        }
      ],
      "name": "resolveProvider",
      "outputs": [
        {
          "internalType": "address",
          "name": "",
          "type": "address"
        }
      ],
      "stateMutability": "view",
      "type": "function"
    },
    {
      "inputs": [
        {
          "internalType": "address",
          "name": "newOperator",
          "type": "address"
        }
      ],
      "name": "setOperator",
      "outputs": [],
      "stateMutability": "nonpayable",
      "type": "function"
    },
    {
      "inputs": [
        {
          "internalType": "address",
          "name": "_taskCommitment",
          "type": "address"
        }
      ],
      "name": "setTaskCommitment",
      "outputs": [],
      "stateMutability": "nonpayable",
      "type": "function"
    },
    {
      "inputs": [
        {
          "internalType": "address",
          "name": "providerAA",
          "type": "address"
        },
        {
          "internalType": "uint256",
          "name": "amount",
          "type": "uint256"
        },
        {
          "internalType": "address",
          "name": "recipient",
          "type": "address"
        }
      ],
      "name": "slash",
      "outputs": [],
      "stateMutability": "nonpayable",
      "type": "function"
    },
    {
      "inputs": [],
      "name": "taskCommitment",
      "outputs": [
        {
          "internalType": "address",
          "name": "",
          "type": "address"
        }
      ],
      "stateMutability": "view",
      "type": "function"
    },
    {
      "inputs": [],
      "name": "token",
      "outputs": [
        {
          "internalType": "contract IERC20",
          "name": "",
          "type": "address"
        }
      ],
      "stateMutability": "view",
      "type": "function"
    },
    {
      "inputs": [
        {
          "internalType": "address",
          "name": "",
          "type": "address"
        }
      ],
      "name": "vaults",
      "outputs": [
        {
          "internalType": "uint256",
          "name": "totalDeposited",
          "type": "uint256"
        },
        {
          "internalType": "uint256",
          "name": "outstandingLiability",
          "type": "uint256"
        },
        {
          "internalType": "bool",
          "name": "registered",
          "type": "bool"
        }
      ],
      "stateMutability": "view",
      "type": "function"
    },
    {
      "inputs": [
        {
          "internalType": "uint256",
          "name": "amount",
          "type": "uint256"
        }
      ],
      "name": "withdraw",
      "outputs": [],
      "stateMutability": "nonpayable",
      "type": "function"
    }
  ],
  "bytecode": "0x60c06040523480156200001157600080fd5b5060405162002a8338038062002a83833981810160405281019062000037919062000182565b600073ffffffffffffffffffffffffffffffffffffffff168173ffffffffffffffffffffffffffffffffffffffff1603620000a9576040517f08c379a0000000000000000000000000000000000000000000000000000000008152600401620000a09062000215565b60405180910390fd5b8073ffffffffffffffffffffffffffffffffffffffff1660808173ffffffffffffffffffffffffffffffffffffffff16815250503373ffffffffffffffffffffffffffffffffffffffff1660a08173ffffffffffffffffffffffffffffffffffffffff16815250505062000237565b600080fd5b600073ffffffffffffffffffffffffffffffffffffffff82169050919050565b60006200014a826200011d565b9050919050565b6200015c816200013d565b81146200016857600080fd5b50565b6000815190506200017c8162000151565b92915050565b6000602082840312156200019b576200019a62000118565b5b6000620001ab848285016200016b565b91505092915050565b600082825260208201905092915050565b7f5a65726f20746f6b656e20616464726573730000000000000000000000000000600082015250565b6000620001fd601283620001b4565b91506200020a82620001c5565b602082019050919050565b600060208201905081810360008301526200023081620001ee565b9050919050565b60805160a05161280a6200027960003960008181610ed90152611b85015260008181610518015281816113b80152818161177f0152611ba9015261280a6000f3fe608060405234801561001057600080fd5b506004361061010b5760003560e01c80639f998ec4116100a2578063bfac599011610071578063bfac5990146102b7578063c3c45e66146102d3578063cb3bf7e8146102ef578063f851a4401461031f578063fc0c546a1461033d5761010b565b80639f998ec414610231578063a622ee7c1461024d578063b3ab15fb1461027f578063b6b55f251461029b5761010b565b80634547bb8c116100de5780634547bb8c14610199578063461c3bd5146101b557806367ccd1cb146101e55780638a8c608a146102015761010b565b80631ef338301461011057806320ee1e441461012e5780632e1a7d4d146101615780633593fdf91461017d575b600080fd5b61011861035b565b6040516101259190611d99565b60405180910390f35b61014860048036038101906101439190611de5565b61037f565b6040516101589493929190611e46565b60405180910390f35b61017b60048036038101906101769190611eb7565b610408565b005b61019760048036038101906101929190611ee4565b6105b6565b005b6101b360048036038101906101ae9190611de5565b610845565b005b6101cf60048036038101906101ca9190611de5565b610a7e565b6040516101dc9190611d99565b60405180910390f35b6101ff60048036038101906101fa9190611de5565b610c13565b005b61021b60048036038101906102169190611de5565b610ea4565b6040516102289190611d99565b60405180910390f35b61024b60048036038101906102469190611de5565b610ed7565b005b61026760048036038101906102629190611de5565b61105a565b60405161027693929190611f24565b60405180910390f35b61029960048036038101906102949190611de5565b611091565b005b6102b560048036038101906102b09190611eb7565b61131d565b005b6102d160048036038101906102cc9190611f5b565b611471565b005b6102ed60048036038101906102e89190611ee4565b61182e565b005b61030960048036038101906103049190611de5565b611ad2565b6040516103169190611fae565b60405180910390f35b610327611b83565b6040516103349190611d99565b60405180910390f35b610345611ba7565b6040516103529190612028565b60405180910390f35b60008054906101000a900473ffffffffffffffffffffffffffffffffffffffff1681565b6000806000806000600160008773ffffffffffffffffffffffffffffffffffffffff1673ffffffffffffffffffffffffffffffffffffffff168152602001908152602001600020905080600001548160010154826001015483600001546103e69190612072565b8360020160009054906101000a900460ff169450945094509450509193509193565b6000811161044b576040517f08c379a000000000000000000000000000000000000000000000000000000000815260040161044290612103565b60405180910390fd5b600061045633610a7e565b90506000600160008373ffffffffffffffffffffffffffffffffffffffff1673ffffffffffffffffffffffffffffffffffffffff16815260200190815260200160002090506000816001015482600001546104b19190612072565b9050808411156104f6576040517f08c379a00000000000000000000000000000000000000000000000000000000081526004016104ed9061216f565b60405180910390fd5b8382600001600082825461050a9190612072565b9250508190555061055c83857f000000000000000000000000000000000000000000000000000000000000000073ffffffffffffffffffffffffffffffffffffffff16611bcb9092919063ffffffff16565b8273ffffffffffffffffffffffffffffffffffffffff167f92ccf450a286a957af52509bc1c9939d1a6a481783e142e41e2499f0bb66ebc68584600001546040516105a892919061218f565b60405180910390a250505050565b60008054906101000a900473ffffffffffffffffffffffffffffffffffffffff1673ffffffffffffffffffffffffffffffffffffffff163373ffffffffffffffffffffffffffffffffffffffff1614610644576040517f08c379a000000000000000000000000000000000000000000000000000000000815260040161063b90612204565b60405180910390fd5b600073ffffffffffffffffffffffffffffffffffffffff168273ffffffffffffffffffffffffffffffffffffffff16036106b3576040517f08c379a00000000000000000000000000000000000000000000000000000000081526004016106aa90612270565b60405180910390fd5b600081116106f6576040517f08c379a00000000000000000000000000000000000000000000000000000000081526004016106ed90612103565b60405180910390fd5b6000600160008473ffffffffffffffffffffffffffffffffffffffff1673ffffffffffffffffffffffffffffffffffffffff16815260200190815260200160002090508060020160009054906101000a900460ff1661078a576040517f08c379a0000000000000000000000000000000000000000000000000000000008152600401610781906122dc565b60405180910390fd5b81816001015410156107d1576040517f08c379a00000000000000000000000000000000000000000000000000000000081526004016107c890612348565b60405180910390fd5b818160010160008282546107e59190612072565b925050819055508273ffffffffffffffffffffffffffffffffffffffff167fdd515bcf5338807cff60d9404e5f1faa95a4c9a19eb882a97d3f14cf79f8ec0683836001015460405161083892919061218f565b60405180910390a2505050565b6000600160003373ffffffffffffffffffffffffffffffffffffffff1673ffffffffffffffffffffffffffffffffffffffff16815260200190815260200160002090508060020160009054906101000a900460ff166108d9576040517f08c379a00000000000000000000000000000000000000000000000000000000081526004016108d0906123b4565b60405180910390fd5b3373ffffffffffffffffffffffffffffffffffffffff16600260008473ffffffffffffffffffffffffffffffffffffffff1673ffffffffffffffffffffffffffffffffffffffff16815260200190815260200160002060009054906101000a900473ffffffffffffffffffffffffffffffffffffffff1673ffffffffffffffffffffffffffffffffffffffff16146109a6576040517f08c379a000000000000000000000000000000000000000000000000000000000815260040161099d90612420565b60405180910390fd5b600260008373ffffffffffffffffffffffffffffffffffffffff1673ffffffffffffffffffffffffffffffffffffffff16815260200190815260200160002060006101000a81549073ffffffffffffffffffffffffffffffffffffffff0219169055600073ffffffffffffffffffffffffffffffffffffffff168273ffffffffffffffffffffffffffffffffffffffff163373ffffffffffffffffffffffffffffffffffffffff167f758820d0b14a01c1fa60b8d2bbef25ed1b6a5af4802e5dec3f08679255ba8bf360405160405180910390a45050565b6000600160008373ffffffffffffffffffffffffffffffffffffffff1673ffffffffffffffffffffffffffffffffffffffff16815260200190815260200160002060020160009054906101000a900460ff1615610add57819050610c0e565b6000600260008473ffffffffffffffffffffffffffffffffffffffff1673ffffffffffffffffffffffffffffffffffffffff16815260200190815260200160002060009054906101000a900473ffffffffffffffffffffffffffffffffffffffff169050600073ffffffffffffffffffffffffffffffffffffffff168173ffffffffffffffffffffffffffffffffffffffff1614158015610bca5750600160008273ffffffffffffffffffffffffffffffffffffffff1673ffffffffffffffffffffffffffffffffffffffff16815260200190815260200160002060020160009054906101000a900460ff165b610c09576040517f08c379a0000000000000000000000000000000000000000000000000000000008152600401610c009061248c565b60405180910390fd5b809150505b919050565b6000600160003373ffffffffffffffffffffffffffffffffffffffff1673ffffffffffffffffffffffffffffffffffffffff16815260200190815260200160002090508060020160009054906101000a900460ff1615610ca8576040517f08c379a0000000000000000000000000000000000000000000000000000000008152600401610c9f906124f8565b60405180910390fd5b60018160020160006101000a81548160ff021916908315150217905550600073ffffffffffffffffffffffffffffffffffffffff168273ffffffffffffffffffffffffffffffffffffffff1614610e4657600073ffffffffffffffffffffffffffffffffffffffff16600260008473ffffffffffffffffffffffffffffffffffffffff1673ffffffffffffffffffffffffffffffffffffffff16815260200190815260200160002060009054906101000a900473ffffffffffffffffffffffffffffffffffffffff1673ffffffffffffffffffffffffffffffffffffffff1614610dc7576040517f08c379a0000000000000000000000000000000000000000000000000000000008152600401610dbe90612564565b60405180910390fd5b33600260008473ffffffffffffffffffffffffffffffffffffffff1673ffffffffffffffffffffffffffffffffffffffff16815260200190815260200160002060006101000a81548173ffffffffffffffffffffffffffffffffffffffff021916908373ffffffffffffffffffffffffffffffffffffffff1602179055505b8173ffffffffffffffffffffffffffffffffffffffff163373ffffffffffffffffffffffffffffffffffffffff167f89d042904ff770f1a7f9c9bf6aba610969b5c56625968d299b12d8be0e120d5c60405160405180910390a35050565b60026020528060005260406000206000915054906101000a900473ffffffffffffffffffffffffffffffffffffffff1681565b7f000000000000000000000000000000000000000000000000000000000000000073ffffffffffffffffffffffffffffffffffffffff163373ffffffffffffffffffffffffffffffffffffffff1614610f65576040517f08c379a0000000000000000000000000000000000000000000000000000000008152600401610f5c906125d0565b60405180910390fd5b600073ffffffffffffffffffffffffffffffffffffffff168173ffffffffffffffffffffffffffffffffffffffff1603610fd4576040517f08c379a0000000000000000000000000000000000000000000000000000000008152600401610fcb9061263c565b60405180910390fd5b806000806101000a81548173ffffffffffffffffffffffffffffffffffffffff021916908373ffffffffffffffffffffffffffffffffffffffff1602179055508073ffffffffffffffffffffffffffffffffffffffff167f7b8cc3c7bf35f62a5adfef243abcba768944755655a167e1ccdf53a7197b95df60405160405180910390a250565b60016020528060005260406000206000915090508060000154908060010154908060020160009054906101000a900460ff16905083565b6000600160003373ffffffffffffffffffffffffffffffffffffffff1673ffffffffffffffffffffffffffffffffffffffff16815260200190815260200160002090508060020160009054906101000a900460ff16611125576040517f08c379a000000000000000000000000000000000000000000000000000000000815260040161111c906123b4565b60405180910390fd5b60008073ffffffffffffffffffffffffffffffffffffffff168373ffffffffffffffffffffffffffffffffffffffff16146112a757600073ffffffffffffffffffffffffffffffffffffffff16600260008573ffffffffffffffffffffffffffffffffffffffff1673ffffffffffffffffffffffffffffffffffffffff16815260200190815260200160002060009054906101000a900473ffffffffffffffffffffffffffffffffffffffff1673ffffffffffffffffffffffffffffffffffffffff1614611228576040517f08c379a000000000000000000000000000000000000000000000000000000000815260040161121f90612564565b60405180910390fd5b33600260008573ffffffffffffffffffffffffffffffffffffffff1673ffffffffffffffffffffffffffffffffffffffff16815260200190815260200160002060006101000a81548173ffffffffffffffffffffffffffffffffffffffff021916908373ffffffffffffffffffffffffffffffffffffffff1602179055505b8273ffffffffffffffffffffffffffffffffffffffff168173ffffffffffffffffffffffffffffffffffffffff163373ffffffffffffffffffffffffffffffffffffffff167f758820d0b14a01c1fa60b8d2bbef25ed1b6a5af4802e5dec3f08679255ba8bf360405160405180910390a4505050565b60008111611360576040517f08c379a000000000000000000000000000000000000000000000000000000000815260040161135790612103565b60405180910390fd5b600061136b33610a7e565b90506000600160008373ffffffffffffffffffffffffffffffffffffffff1673ffffffffffffffffffffffffffffffffffffffff16815260200190815260200160002090506113fd8230857f000000000000000000000000000000000000000000000000000000000000000073ffffffffffffffffffffffffffffffffffffffff16611c1e909392919063ffffffff16565b82816000016000828254611411919061265c565b925050819055508173ffffffffffffffffffffffffffffffffffffffff167f73a19dd210f1a7f902193214c0ee91dd35ee5b4d920cba8d519eca65a7b488ca84836000015460405161146492919061218f565b60405180910390a2505050565b60008054906101000a900473ffffffffffffffffffffffffffffffffffffffff1673ffffffffffffffffffffffffffffffffffffffff163373ffffffffffffffffffffffffffffffffffffffff16146114ff576040517f08c379a00000000000000000000000000000000000000000000000000000000081526004016114f690612204565b60405180910390fd5b600073ffffffffffffffffffffffffffffffffffffffff168373ffffffffffffffffffffffffffffffffffffffff160361156e576040517f08c379a000000000000000000000000000000000000000000000000000000000815260040161156590612270565b60405180910390fd5b600073ffffffffffffffffffffffffffffffffffffffff168173ffffffffffffffffffffffffffffffffffffffff16036115dd576040517f08c379a00000000000000000000000000000000000000000000000000000000081526004016115d4906126dc565b60405180910390fd5b60008211611620576040517f08c379a000000000000000000000000000000000000000000000000000000000815260040161161790612103565b60405180910390fd5b6000600160008573ffffffffffffffffffffffffffffffffffffffff1673ffffffffffffffffffffffffffffffffffffffff16815260200190815260200160002090508060020160009054906101000a900460ff166116b4576040517f08c379a00000000000000000000000000000000000000000000000000000000081526004016116ab906122dc565b60405180910390fd5b82816001015410156116fb576040517f08c379a00000000000000000000000000000000000000000000000000000000081526004016116f290612348565b60405180910390fd5b8281600001541015611742576040517f08c379a000000000000000000000000000000000000000000000000000000000815260040161173990612748565b60405180910390fd5b828160010160008282546117569190612072565b92505081905550828160000160008282546117719190612072565b925050819055506117c382847f000000000000000000000000000000000000000000000000000000000000000073ffffffffffffffffffffffffffffffffffffffff16611bcb9092919063ffffffff16565b8173ffffffffffffffffffffffffffffffffffffffff168473ffffffffffffffffffffffffffffffffffffffff167f96e0041f14ae401fab2384e3c29da20cb0263ef760c47847db1f13403cea654c856040516118209190611fae565b60405180910390a350505050565b60008054906101000a900473ffffffffffffffffffffffffffffffffffffffff1673ffffffffffffffffffffffffffffffffffffffff163373ffffffffffffffffffffffffffffffffffffffff16146118bc576040517f08c379a00000000000000000000000000000000000000000000000000000000081526004016118b390612204565b60405180910390fd5b600073ffffffffffffffffffffffffffffffffffffffff168273ffffffffffffffffffffffffffffffffffffffff160361192b576040517f08c379a000000000000000000000000000000000000000000000000000000000815260040161192290612270565b60405180910390fd5b6000811161196e576040517f08c379a000000000000000000000000000000000000000000000000000000000815260040161196590612103565b60405180910390fd5b6000600160008473ffffffffffffffffffffffffffffffffffffffff1673ffffffffffffffffffffffffffffffffffffffff16815260200190815260200160002090508060020160009054906101000a900460ff16611a02576040517f08c379a00000000000000000000000000000000000000000000000000000000081526004016119f9906122dc565b60405180910390fd5b600081600101548260000154611a189190612072565b905080831115611a5d576040517f08c379a0000000000000000000000000000000000000000000000000000000008152600401611a54906127b4565b60405180910390fd5b82826001016000828254611a71919061265c565b925050819055508373ffffffffffffffffffffffffffffffffffffffff167f27ae3b113133dbb18ef436bfaa451d7e177ba8a50da8db37063016843ef2dd15848460010154604051611ac492919061218f565b60405180910390a250505050565b600080600160008473ffffffffffffffffffffffffffffffffffffffff1673ffffffffffffffffffffffffffffffffffffffff16815260200190815260200160002090508060020160009054906101000a900460ff16611b67576040517f08c379a0000000000000000000000000000000000000000000000000000000008152600401611b5e906122dc565b60405180910390fd5b80600101548160000154611b7b9190612072565b915050919050565b7f000000000000000000000000000000000000000000000000000000000000000081565b7f000000000000000000000000000000000000000000000000000000000000000081565b611bd88383836001611c73565b611c1957826040517f5274afe7000000000000000000000000000000000000000000000000000000008152600401611c109190611d99565b60405180910390fd5b505050565b611c2c848484846001611cdd565b611c6d57836040517f5274afe7000000000000000000000000000000000000000000000000000000008152600401611c649190611d99565b60405180910390fd5b50505050565b60008063a9059cbb60e01b90506040518160005260001960601c8616600452846024526020600060446000808b5af192506001600051148316611ccf578383151615611cc2573d6000823e3d81fd5b6000873b113d1516831692505b806040525050949350505050565b6000806323b872dd60e01b90506040518160005260001960601c871660045260001960601c8616602452846044526020600060646000808c5af192506001600051148316611d44578383151615611d37573d6000823e3d81fd5b6000883b113d1516831692505b806040526000606052505095945050505050565b600073ffffffffffffffffffffffffffffffffffffffff82169050919050565b6000611d8382611d58565b9050919050565b611d9381611d78565b82525050565b6000602082019050611dae6000830184611d8a565b92915050565b600080fd5b611dc281611d78565b8114611dcd57600080fd5b50565b600081359050611ddf81611db9565b92915050565b600060208284031215611dfb57611dfa611db4565b5b6000611e0984828501611dd0565b91505092915050565b6000819050919050565b611e2581611e12565b82525050565b60008115159050919050565b611e4081611e2b565b82525050565b6000608082019050611e5b6000830187611e1c565b611e686020830186611e1c565b611e756040830185611e1c565b611e826060830184611e37565b95945050505050565b611e9481611e12565b8114611e9f57600080fd5b50565b600081359050611eb181611e8b565b92915050565b600060208284031215611ecd57611ecc611db4565b5b6000611edb84828501611ea2565b91505092915050565b60008060408385031215611efb57611efa611db4565b5b6000611f0985828601611dd0565b9250506020611f1a85828601611ea2565b9150509250929050565b6000606082019050611f396000830186611e1c565b611f466020830185611e1c565b611f536040830184611e37565b949350505050565b600080600060608486031215611f7457611f73611db4565b5b6000611f8286828701611dd0565b9350506020611f9386828701611ea2565b9250506040611fa486828701611dd0565b9150509250925092565b6000602082019050611fc36000830184611e1c565b92915050565b6000819050919050565b6000611fee611fe9611fe484611d58565b611fc9565b611d58565b9050919050565b600061200082611fd3565b9050919050565b600061201282611ff5565b9050919050565b61202281612007565b82525050565b600060208201905061203d6000830184612019565b92915050565b7f4e487b7100000000000000000000000000000000000000000000000000000000600052601160045260246000fd5b600061207d82611e12565b915061208883611e12565b92508282039050818111156120a05761209f612043565b5b92915050565b600082825260208201905092915050565b7f416d6f756e74206d757374206265203e20300000000000000000000000000000600082015250565b60006120ed6012836120a6565b91506120f8826120b7565b602082019050919050565b6000602082019050818103600083015261211c816120e0565b9050919050565b7f496e73756666696369656e7420617661696c61626c6520636170616369747900600082015250565b6000612159601f836120a6565b915061216482612123565b602082019050919050565b600060208201905081810360008301526121888161214c565b9050919050565b60006040820190506121a46000830185611e1c565b6121b16020830184611e1c565b9392505050565b7f43616c6c6572206973206e6f74205461736b436f6d6d69746d656e7400000000600082015250565b60006121ee601c836120a6565b91506121f9826121b8565b602082019050919050565b6000602082019050818103600083015261221d816121e1565b9050919050565b7f5a65726f2070726f766964657220414100000000000000000000000000000000600082015250565b600061225a6010836120a6565b915061226582612224565b602082019050919050565b600060208201905081810360008301526122898161224d565b9050919050565b7f50726f7669646572207661756c74206e6f742072656769737465726564000000600082015250565b60006122c6601d836120a6565b91506122d182612290565b602082019050919050565b600060208201905081810360008301526122f5816122b9565b9050919050565b7f4c696162696c69747920756e646572666c6f7700000000000000000000000000600082015250565b60006123326013836120a6565b915061233d826122fc565b602082019050919050565b6000602082019050818103600083015261236181612325565b9050919050565b7f5661756c74206e6f742072656769737465726564000000000000000000000000600082015250565b600061239e6014836120a6565b91506123a982612368565b602082019050919050565b600060208201905081810360008301526123cd81612391565b9050919050565b7f4f70657261746f72206e6f74206d617070656420746f2063616c6c6572000000600082015250565b600061240a601d836120a6565b9150612415826123d4565b602082019050919050565b60006020820190508181036000830152612439816123fd565b9050919050565b7f4e6f7420617574686f72697a65642070726f7669646572000000000000000000600082015250565b60006124766017836120a6565b915061248182612440565b602082019050919050565b600060208201905081810360008301526124a581612469565b9050919050565b7f5661756c7420616c726561647920726567697374657265640000000000000000600082015250565b60006124e26018836120a6565b91506124ed826124ac565b602082019050919050565b60006020820190508181036000830152612511816124d5565b9050919050565b7f4f70657261746f7220616c72656164792061737369676e656400000000000000600082015250565b600061254e6019836120a6565b915061255982612518565b602082019050919050565b6000602082019050818103600083015261257d81612541565b9050919050565b7f4e6f742061646d696e0000000000000000000000000000000000000000000000600082015250565b60006125ba6009836120a6565b91506125c582612584565b602082019050919050565b600060208201905081810360008301526125e9816125ad565b9050919050565b7f5a65726f20616464726573730000000000000000000000000000000000000000600082015250565b6000612626600c836120a6565b9150612631826125f0565b602082019050919050565b6000602082019050818103600083015261265581612619565b9050919050565b600061266782611e12565b915061267283611e12565b925082820190508082111561268a57612689612043565b5b92915050565b7f5a65726f20726563697069656e74000000000000000000000000000000000000600082015250565b60006126c6600e836120a6565b91506126d182612690565b602082019050919050565b600060208201905081810360008301526126f5816126b9565b9050919050565b7f4465706f73697420756e646572666c6f77000000000000000000000000000000600082015250565b60006127326011836120a6565b915061273d826126fc565b602082019050919050565b6000602082019050818103600083015261276181612725565b9050919050565b7f496e73756666696369656e74207661756c742063617061636974790000000000600082015250565b600061279e601b836120a6565b91506127a982612768565b602082019050919050565b600060208201905081810360008301526127cd81612791565b905091905056fea2646970667358221220464e08a486b36928ecb650f7a2cb5f9e9b657902372406614f923f21d021a4fa64736f6c63430008140033",
  "linkReferences": {},
  "deployedLinkReferences": {}
}